:020000040800F2
:10000000600600206D0100087501000877010008F6
:10001000790100087B0100087D0100080000000054
:100020000000000000000000000000007F01000848
:10003000810100080000000083010008850100081C
:100040008701000887010008870100088701000870
:100050008701000887010008870100088701000860
:100060008701000887010008870100088701000850
:100070008701000887010008870100088701000840
:100080008701000887010008870100088701000830
:100090008701000887010008870100088701000820
:1000A0008701000887010008870100088701000810
:1000B0008701000887010008870100088701000800
:1000C00087010008870100088701000887010008F0
:1000D00087010008870100088701000887010008E0
:1000E00087010008870100088701000800F002F876
:1000F00000F02CF80AA090E8000C82448344AAF196
:100100000107DA4501D100F021F8AFF2090EBAE893
:100110000F0013F0010F18BFFB1A43F0010318473B
:100120001C0900002C0900000023002400250026E3
:10013000103A28BF78C1FBD8520728BF30C148BF4A
:100140000B6070471FB51FBD10B510BD00F031F832
:100150001146FFF7F7FF00F065FC00F04FF803B41D
:10016000FFF7F2FF03BC00F057F800000948804792
:1001700009480047FEE7FEE7FEE7FEE7FEE7FEE789
:10018000FEE7FEE7FEE7FEE704480549054A064BA1
:1001900070470000A5070008ED000008600000207F
:1001A0006006002060020020600200207047704757
:1001B0007047754600F02CF8AE4605006946534678
:1001C00020F00700854618B020B5FFF7DDFFBDE839
:1001D00020404FF000064FF000074FF000084FF0AE
:1001E000000B21F00701AC46ACE8C009ACE8C0093F
:1001F000ACE8C009ACE8C0098D46704710B50446AC
:10020000AFF300802046BDE81040FFF7A8BF000014
:10021000004870470000002001491820ABBEFEE7EF
:1002200026000200704700000549096821F010010E
:10023000034A1160114609680143116070470000CC
:100240000020024001460020034A106800F03800F8
:100250000843106070470000002002402DE9F04183
:10026000024600250026002000230024002791F8E4
:1002700003C00CF00F0591F803C00CF0100CBCF19A
:10028000000F03D091F802C04CEA050591F800C0B8
:10029000BCF1000F31D0146800202BE04FF0010CAE
:1002A0000CFA00F3B1F800C00CEA03069E4220D11C
:1002B00083004FF00F0C0CFA03F7BC4305FA03FC64
:1002C0004CEA040491F803C0BCF1280F06D14FF0AA
:1002D000010C0CFA00FCC2F814C00AE091F803C04B
:1002E000BCF1480F05D14FF0010C0CFA00FCC2F82C
:1002F00010C0401C0828D1D31460B1F800C0BCF174
:10030000FF0F34DD546800202EE000F1080C4FF0A0
:10031000010808FA0CF3B1F800C00CEA03069E428B
:1003200021D183004FF00F0C0CFA03F7BC4305FA00
:1003300003FC4CEA040491F803C0BCF1280F05D17A
:1003400000F1080C08FA0CF8C2F8148091F803C008
:10035000BCF1480F07D100F1080C4FF0010808FA72
:100360000CF8C2F81080401C0828CED35460BDE8B9
:10037000F0810000F0B50A4600230024002100258A
:1003800000F00046B6F1004F02D11D4EF16901E0C8
:100390001B4E7168C0F3034583B200F44016B6F5F6
:1003A000401F08D121F07061154E766826F0706606
:1003B000134F7E6012E000F48016B6F5801F06D160
:1003C000032606FA05F4A14341F0706106E0460DEC
:1003D000360103FA06F6B14341F0706122B1460DD1
:1003E000360103FA06F6314300F00046B6F1004F3D
:1003F00002D1034EF16101E0014E7160F0BD0000D9
:1004000000000140416170470161704770B50021F3
:1004100000230F22C47804B3154C246804F4E0646C
:10042000C4F5E064210AC1F10403CA40447804FA27
:1004300003F184781440214309010E4C0678A1553C
:10044000047804F01F050124AC4005786D11AD005F
:1004500005F1E025C5F8004109E0047804F01F0526
:100460000124AC40044D0678761145F8264070BD55
:100470000CED00E000E400E080E100E029B1064A74
:10048000D2690243044BDA6104E0034AD269824331
:10049000014BDA61704700000010024029B1064AA2
:1004A00092690243044B9A6104E0034A92698243D1
:1004B000014B9A61704700000010024010B51E48C1
:1004C000806940F001001C49886101211B48FFF749
:1004D00051FF4FF4803000F065F800BF312000F08C
:1004E0002FF80028FAD00220FFF7ACFE1020FFF70B
:1004F0009BFE4FF4E0114FF4803000F097F801209C
:1005000000F08EF800BF392000F01AF80028FAD069
:10051000002000F03BF84FF4806000F069F8002004
:1005200000F072F8022000F08FF800BF00F026F80B
:100530000828FBD110BD000000100240000230006E
:1005400010B501460022002300204A11012A02D1E1
:10055000094C236806E0022A02D1074C236A01E015
:10056000054C636A01F01F02012494401C400CB149
:10057000012000E0002010BD001002400248406849
:1005800000F00C00704700000010024001460020FF
:10059000034A506820F0F0000843506070470000A4
:1005A000001002401149096821F480310F4A11609E
:1005B0001146096821F480211160B0F5803F03D015
:1005C000B0F5802F0ED106E00849096841F480316A
:1005D000064A116007E00549096841F4A021034A71
:1005E000116000E000BF00BF704700000010024033
:1005F00001460020034A506820F4E0600843506040
:10060000704700000010024001460020034A506875
:1006100020F4605040EAC100506070470010024072
:10062000014908667047000000004242024600206F
:10063000044B586820F47C1042EA01031843014B34
:10064000586070470010024001460020034A50687D
:1006500020F0030008435060704700000010024083
:1006600010B500F001F810BD0CB50020019000900D
:100670003348006840F480303149086000BF30489A
:10068000006800F4003000900198401C0190009830
:1006900018B90198B0F5A06FF1D12948006800F4AD
:1006A000003010B10120009001E00020009000987F
:1006B000012843D12348006840F010002149086018
:1006C0000846006820F0070008600846006840F00F
:1006D000020008601A4840681949486008464068A6
:1006E00048600846406840F48060486008464068BA
:1006F00020F47C1048600846406840F4E8104860E8
:100700000846006840F08070086000BF0C48006830
:1007100000F000700028F9D00948406820F003007C
:10072000074948600846406840F00200486000BF42
:100730000348406800F00C000828F9D10CBD000007
:10074000001002400020024008B501210420FFF7FC
:10075000A5FE01210846FFF791FEFD20ADF800003F
:1007600003208DF8020010208DF8030069460C4824
:10077000FFF774FD0220ADF800008DF8020018208C
:100780008DF8030069460648FFF768FDF12104482B
:10079000FFF738FE0C210248FFF736FE08BD0000C7
:1007A0000008014010B51348006840F001001149ED
:1007B000086008464068104908400E4948600846ED
:1007C00000680E4908400B4908600846006820F49C
:1007D000802008600846406820F4FE0048604FF41E
:1007E0001F008860FFF73CFF4FF00060044908607D
:1007F00010BD0000001002400000FFF8FFFFF6FEF1
:1008000008ED00E021B1028842F00102028004E01C
:1008100002884FF6FE731A40028070471AB183892E
:100820000B43838102E083898B43838170470000FF
:1008300070B5002400220023058C4FF6EF7635407A
:100840000584028C8388048B48F6FF752C404FF694
:10085000FF452C400D884FF6FF7606EA05252C4310
:100860004FF6DF752A400D8906EA05152A434D88A3
:1008700006EA05152A43154DA84202D0144DA84298
:100880001DD14FF67F752A404D894FF6FF7606EA57
:1008900005152A434FF6BF752A408D8806EA0515CF
:1008A0002A434FF6FF352B404FF2FF752B408D89C1
:1008B00006EA85052B43CD8906EA85052B4383800F
:1008C0000483CD880587028470BD0000002C0140A0
:1008D000003401400A460021018B4FF2FF7319409A
:1008E0004FF6FF7303EA02231943018370470000A8
:1008F000002202881D4B98420ED01D4B98420BD00F
:10090000B0F1804F08D01B4B984205D01A4B98424B
:1009100002D01A4B984204D14FF68F731A404B887D
:100920001A43174B984207D0164B984204D04FF603
:10093000FF431A40CB881A4302808B8883850B883B
:1009400003850A4B98420BD0094B984208D00E4BB6
:10095000984205D00D4B984202D00D4B984201D1E0
:100960000B7A03860123838270470000002C01402C
:10097000003401400004004000080040000C00402A
:1009800000100040001400400040014000440140BD
:100990000048014000B589B001210846FFF76EFD0F
:1009A0004720ADF818000020ADF81A0040F2E730FB
:1009B000ADF81C000020ADF81E008DF8200006A93F
:1009C0004FF08040FFF794FF6020ADF80800012051
:1009D000ADF80A0040F2F310ADF80E000020ADF8BB
:1009E000100002A94FF08040FFF722FF0821C8063F
:1009F000FFF770FF012211469007FFF70FFF01215B
:100A00008807FFF7FFFE1C208DF8040001208DF8F9
:100A100005008DF806008DF8070001A8FFF7F6FC29
:100A200009B000BDFFF74AFDFFF78EFEFFF7B2FFEA
:100A300003E00821C806FFF74DFFFAE74C0A00085B
:0C0A4000000000206006000028010008F3
:04000005080000ED02
:00000001FF
