:020000040800F2
:10000000C80A002089010008910100089301000836
:100010009501000897010008990100080000000000
:100020000000000000000000000000009B0100082C
:100030009D010008000000009F010008A1010008C8
:10004000A3010008A3010008A3010008A301000800
:10005000A3010008A3010008A3010008A3010008F0
:10006000A3010008A3010008A3010008A3010008E0
:10007000A3010008A3010008A3010008A3010008D0
:10008000A3010008A3010008A3010008A3010008C0
:10009000A3010008A3010008A3010008A3010008B0
:1000A000A3010008A3010008A3010008A3010008A0
:1000B000A3010008A3010008A3010008A301000890
:1000C000A3010008A3010008A3010008A301000880
:1000D000A3010008A3010008A3010008A301000870
:1000E000A3010008A3010008A301000800F002F822
:1000F00000F03AF80AA090E8000C82448344AAF188
:100100000107DA4501D100F02FF8AFF2090EBAE885
:100110000F0013F0010F18BFFB1A43F0010318473B
:10012000642A0000842A0000103A24BF78C878C1ED
:10013000FAD8520724BF30C830C144BF04680C60ED
:10014000704700000023002400250026103A28BF35
:1001500078C1FBD8520728BF30C148BF0B60704739
:100160001FB51FBD10B510BD00F04EF91146FFF7C9
:10017000F7FF02F00FF900F06CF903B4FFF7F2FF9C
:1001800003BC00F073F900000948804709480047A4
:10019000FEE7FEE7FEE7FEE7FEE7FEE7FEE7FEE737
:1001A000FEE7FEE704480549054A064B7047000094
:1001B00035090008ED000008C8040020C80A002026
:1001C000C8060020C8060020401ECAB210F8011F51
:1001D0008A4202D00029F9D10020704740EA010389
:1001E00010B59B070FD1042A0DD310C808C9121FE0
:1001F0009C42F8D020BA19BA884201D9012010BD1A
:100200004FF0FF3010BD1AB1D30703D0521C07E0E6
:10021000002010BD10F8013B11F8014B1B1B07D14A
:1002200010F8013B11F8014B1B1B01D1921EF1D1BB
:10023000184610BD10B5431C02E010F8011B71B147
:100240008107FAD14FF0013202C88C1A8C4314EAAC
:10025000C211F9D0C01A0A0603D0C01E10BDC01AC0
:1002600010BD0A0401D0801E10BD0902FCD0401E42
:1002700010BD032A40F2308010F0030C00F015800E
:1002800011F8013BBCF1020F624498BF11F801CB99
:1002900000F8013B38BF11F8013BA2F1040298BFFE
:1002A00000F801CB38BF00F8013B11F0030300F068
:1002B0002580083AC0F0088051F8043B083A51F80C
:1002C00004CBA0E80810F5E7121D5CBF51F8043B11
:1002D00040F8043BAFF30080D20724BF11F8013B84
:1002E00011F801CB48BF11F8012B24BF00F8013BE6
:1002F00000F801CB48BF00F8012B704710B5203A39
:10030000C0F00B80B1E81850203AA0E81850B1E8CE
:100310001850A0E81850BFF4F5AF5FEA027C24BF84
:10032000B1E81850A0E8185044BF18C918C0BDE87B
:1003300010405FEA827C24BF51F8043B40F8043B44
:1003400008BF7047D20728BF31F8023B48BF11F8F9
:10035000012B28BF20F8023B48BF00F8012B704753
:1003600002F0FF0343EA032242EA024200F002B82D
:100370004FF000020429C0F0128010F0030C00F0CE
:100380001B80CCF1040CBCF1020F18BF00F8012B4C
:10039000A8BF20F8022BA1EB0C0100F00DB85FEA1A
:1003A000C17C24BF00F8012B00F8012B48BF00F8E6
:1003B000012B70474FF0000200B513469446964655
:1003C000203922BFA0E80C50A0E80C50B1F1200168
:1003D000BFF4F7AF090728BFA0E80C5048BF0CC016
:1003E0005DF804EB890028BF40F8042B08BF704774
:1003F00048BF20F8022B11F0804F18BF00F8012BE6
:100400007047704770477047754600F02BF8AE464E
:1004100005006946534620F00700854618B020B510
:10042000FFF7C0FEBDE820404FF000064FF0000788
:100430004FF000084FF0000B21F00701AC46ACE88C
:10044000C009ACE8C009ACE8C009ACE8C0098D46F9
:10045000704710B50446AFF300802046BDE8104059
:10046000FFF78BBE00487047640400200149182044
:10047000ABBEFEE7260002007047000008B5012170
:10048000082000F0C9F80121880300F0B5F84FF406
:100490006040ADF8000018208DF8030003208DF8AF
:1004A000020069460B4800F017F84FF48050ADF891
:1004B000000010208DF8030003208DF8020069462B
:1004C000044800F009F84FF48051024800F091F818
:1004D00008BD0000000C01402DE9F0410246002556
:1004E0000026002000230024002791F803C00CF010
:1004F0000F0591F803C00CF0100CBCF1000F03D0F5
:1005000091F802C04CEA050591F800C0BCF1000F5B
:1005100031D0146800202BE04FF0010C0CFA00F3EE
:10052000B1F800C00CEA03069E4220D183004FF0D0
:100530000F0C0CFA03F7BC4305FA03FC4CEA040465
:1005400091F803C0BCF1280F06D14FF0010C0CFA52
:1005500000FCC2F814C00AE091F803C0BCF1480FD7
:1005600005D14FF0010C0CFA00FCC2F810C0401C81
:100570000828D1D31460B1F800C0BCF1FF0F34DDFE
:10058000546800202EE000F1080C4FF0010808FA32
:100590000CF3B1F800C00CEA03069E4221D183009F
:1005A0004FF00F0C0CFA03F7BC4305FA03FC4CEABE
:1005B000040491F803C0BCF1280F05D100F1080C28
:1005C00008FA0CF8C2F8148091F803C0BCF1480F87
:1005D00007D100F1080C4FF0010808FA0CF8C2F836
:1005E0001080401C0828CED35460BDE8F0814161E2
:1005F000704701617047000029B1064AD269024381
:10060000044BDA6104E0034AD2698243014BDA61A8
:10061000704700000010024029B1064A9269024367
:10062000044B9A6104E0034A92698243014B9A6148
:1006300070470000001002402D48006840F48030F0
:100640002B49086000BF2A48006800F400300028E9
:10065000F9D02848006840F010002649086000BF23
:100660002448006800F020000028F9D021480068E4
:1006700020F007001F4908600846006840F00200AB
:1006800008601B48406820F4741019494860084607
:10069000406840F4E81048600846406843F6F0714E
:1006A0008843134948600846406840F480604860C9
:1006B0000846006840F08070086000BF0C48006881
:1006C00000F000700028F9D00948406820F00300CD
:1006D000074948600846406840F00200486000BF93
:1006E0000348406800F00C000828F9D1704700006A
:1006F000001002400020024010B54FF48051024823
:10070000FFF777FF10BD0000000C014010B54FF45B
:1007100080510248FFF76BFF10BD0000000C014044
:1007200000B585B00020ADF800004FF48270ADF840
:1007300002000020ADF80400ADF80600ADF8080096
:100740004FF40070ADF80A003820ADF80C0000201E
:10075000ADF80E000720ADF810006946044800F01F
:1007600057F80121024800F039F805B000BD00003B
:100770000038004010B5044600BF02210A4800F0CE
:1007800039F80028F9D02146074800F03FF800BFAB
:100790000121054800F02EF80028F9D0024800F0A9
:1007A00032F8C0B210BD00000038004010B5002182
:1007B000094800F013F8084800884FF6C771084050
:1007C000054908800846008840F00800088001219B
:1007D000014800F003F810BD0038004021B1028844
:1007E00042F04002028004E002884FF6BF731A40D4
:1007F000028070470246002013890B400BB1012094
:1008000000E0002070470146888970478181704769
:1008100010B50022028802F441520B884C88234311
:100820008C882343CC8823430C8923434C8923435E
:100830008C892343CC8923431A430280838B4FF254
:10084000FF74234083830B8A038210BD10B500F030
:1008500001F810BD0CB500200190009033480068ED
:1008600040F480303149086000BF3048006800F42F
:10087000003000900198401C0190009818B9019830
:10088000B0F5A06FF1D12948006800F4003010B134
:100890000120009001E0002000900098012843D141
:1008A0002348006840F010002149086008460068AD
:1008B00020F0070008600846006840F00200086069
:1008C0001A48406819494860084640684860084628
:1008D000406840F4806048600846406820F47C101E
:1008E00048600846406840F4E810486008460068E0
:1008F00040F08070086000BF0C48006800F0007095
:100900000028F9D00948406820F0030007494860F2
:100910000846406840F00200486000BF0348406855
:1009200000F00C000828F9D10CBD000000100240B6
:100930000020024010B51348006840F00100114942
:10094000086008464068104908400E49486008465B
:1009500000680E4908400B4908600846006820F40A
:10096000802008600846406820F4FE0048604FF48C
:100970001F008860FFF76AFF4FF0006004490860BD
:1009800010BD0000001002400000FFF8FFFFF6FE5F
:1009900008ED00E02DE9F041044688460020207172
:1009A000401EE0624146204601F0DAFE10B104200C
:1009B000BDE8F08104F22E2001F0E6FC074694F831
:1009C0003050EB2D03D0E92D01D0E82D43D14AF66C
:1009D0005520874208D1082223A104F18200FFF7A5
:1009E000FDFB08B90020E3E704F13B0001F0CCFC7B
:1009F00006463D20055D701E304060BBB6F5007FA9
:100A000029DBB6F5007F26DC2DB3681E284010BB1D
:100A100004F13E0001F0B8FCE8B14020005D401E4A
:100A2000012818D804F1410001F0AEFC98B104F19E
:100A3000430001F0A9FC802806DA04F1500001F01F
:100A400097FCB0F5803F06D304F1460001F09CFC12
:100A500008B10020ACE74AF65520874201D10220B8
:100A6000A6E70320A4E700004641543332202020AB
:100A7000000000000246891E5069801E884201D88D
:100A8000002070475389906A03FB0100F9E72DE9C4
:100A9000F04782468846DAF80040B8F1000F06D1E8
:100AA000E76817B16069B84215D8012713E04146DD
:100AB000504601F0B1FB0546022D02D20120BDE8EF
:100AC000F087681C08B92846F9E76069A84201D98F
:100AD0002846F4E74746206908B90020EFE70026DA
:100AE000474518D17E1C6069B04200D802263146C5
:100AF000504601F091FB0546012D01D0681C08B954
:100B00002846DCE73DB1E568022D03D36069A842C1
:100B100000D92F460026E6B93E4600BF761C606924
:100B2000B04204D80226BE4201D90020C7E73146B0
:100B3000504601F071FB054605B909E0012D01D0D1
:100B4000681C08B92846BAE7BE42E7D10020B6E7DC
:100B500000BF4FF0FF323146204601F01BFE8146B8
:100B6000B9F1000F08D1B8F1000F05D03246414667
:100B7000204601F00FFE8146B9F1000F0FD1E6606B
:100B80002069A0B1D4E90410801E81420FD82069E9
:100B9000401E2061607940F00100607107E0B9F10A
:100BA000010F02D14FF0FF3000E001200646304631
:100BB00085E700002DE9F35F8946D9F800800098A9
:100BC00000F1200520220B212846FFF7C9FB002059
:100BD000074606464FF0080B00BF3046761C18F853
:100BE0000040202C00DC50E02F2C01D05C2C0AD1DE
:100BF00000E0761C18F806002F28FAD018F8060036
:100C00005C28F6D041E02E2C01D05F450BD3BBF120
:100C10000B0F01D02E2C02D00620BDE8FC9F082728
:100C20004FF00B0BD9E7802C03DB04F07F00234946
:100C30000C5C204600F0F9F8A8B13046761C18F894
:100C400000A0504600F0F7F818B1ABF10100B8422F
:100C500001D80620E1E738467F1C2C5438467F1C1B
:100C600005F800A010E0214615A0FFF7ADFA08B185
:100C70000620D2E7612C04DB7A2C02DCA4F12000F0
:100C8000C4B238467F1C2C54A7E700BF08EB06000F
:100C9000C9F800000FB90620BFE72878E52801D180
:100CA00005202870202C03DD18F80600202801DC20
:100CB000042000E00020E8720020AEE7D82A0008F7
:100CC0002A2B2C3A3B3C3D3E5B5D7C223F7F000063
:100CD0002DE9FF4F85B09A4603AA0121059800F03F
:100CE0005BFA18B1012009B0BDE8F08FDDF80C9077
:100CF0004FF03F08082701E07806070E37B1B9FB2F
:100D0000F7F0B0FBF8F0B0F5806FF5D807B9FF2722
:100D10004FF400715046FFF72BFB0AF5DF764FF0DA
:100D2000000B444669E0069850F82B50642D07D814
:100D300001D1484603E06420B9FBF0F06843054662
:100D40006019484501D8601901D3A9EB040505B91C
:100D500059E0214606F1080001F017FE294606F188
:100D60000C0001F012FE07983071B4FBF8F0B0FBF4
:100D7000F7F00490B4FBF8F0B0FBF7F107FB1100BB
:100D8000C0B20290B4FBF8F008FB1040401CC0B2A7
:100D9000019002987070C021049801EA90000199B6
:100DA0000843B0700498F0706019401EB0FBF8F072
:100DB000B0FBF7F004906019401EB0FBF8F0B0FBF8
:100DC000F7F107FB1100C0B202906019401EB0FBA2
:100DD000F8F108FB1100401CC0B20190029870713C
:100DE000C021049801EA900001990843B071049869
:100DF000F07110360BF1010B2C44BBF1040F02D241
:100E00000CB14C458FD300BF4AF655210AF5FF704F
:100E100001F0C7FD012300225146059800F060FA59
:100E200008B101205FE700205DE7014609B100201D
:100E300070470020FCE7014609B100207047002000
:100E4000FCE72DE9F04104460E46D4F8008000216D
:100E5000204600F011F90546EDB9002700BF4046D5
:100E6000A16901F07DFC054605B113E0E069007859
:100E7000E52802D0E069007820B9781C0746B04226
:100E800001D107E000270121204600F06FF8054658
:100E9000002DE4D000BF042D00D107252846BDE871
:100EA000F0812DE9F04704468946204601F0C8FD4F
:100EB00010B10120BDE8F08749462046FFF7DAFD72
:100EC0000646E6624FF4007104F13000FFF772FA53
:100ED00004F130080127002500E03D446089A84264
:100EE00007D9721960783B46414600F0F9F90028AD
:100EF000F3D06089A84201D00120DBE70020D9E7C8
:100F00002DE9F041044627680021204600F0B4F89E
:100F1000054615B12846BDE8F08100BF3846A169F5
:100F200001F01EFC054605B11DE0E06906780EB92A
:100F3000042518E0E069C07A00F03F00A071E06984
:100F4000C07A00F0080038B90B2204F12001E069F2
:100F5000FFF744F900B906E00021204600F006F84A
:100F60000546002DDAD000BF2846D4E72DE9F04130
:100F7000044688462768206900F12006B6F5001F60
:100F800001D30020A061A06910B90420BDE8F08160
:100F9000C6F30800002845D1A069401CA061606923
:100FA00038B93889B0EB561F3CD80020A061042026
:100FB000ECE77889401E00EA562098BB204661691C
:100FC00001F02AF90546012D01D80220DEE7681C50
:100FD00008B90120DAE77869A8421DD8B8F1000FF6
:100FE00003D10020A0610420D0E720466169FFF70B
:100FF0004EFD05460DB90720C8E7012D01D102209D
:10100000C4E7681C08B90120C0E729463846FFF745
:1010100048FF08B10120B9E7656129463846FFF766
:1010200029FDA0612661C6F3080107F130000844DC
:10103000E0610020AAE770B5044626680121204639
:10104000FFF7FFFE0546ADB93046A16901F088FB08
:1010500005467DB92021E069FFF78AF9E069216A38
:101060000160616A4160218D018194F82A108172CA
:1010700001203071284670BD2DE9F04104460D462F
:101080002668B5F5001F02D205F01F0010B102203E
:10109000BDE8F0812561A7681FB93078032800DB1F
:1010A000776A47B93089B0EB551F01D80220EFE7C6
:1010B000706AA0611CE070894FEA402811E039464F
:1010C000204601F0A9F80746781C08B90120DFE79F
:1010D000022F02D37069B84201D80220D8E7A5EBED
:1010E00008054545EBD239463046FFF7C3FCA06101
:1010F0006761A06908B90220CAE7A06900EB552022
:10110000A061C5F3080106F130000844E061002049
:10111000BEE7000070B506460EB1012070BDFFF7B6
:10112000EBFA002403E0FF20FFF724FB641C0A2CE9
:10113000F9DBFFF7EBFA4020FFF71CFB0020FFF77D
:1011400019FB0020FFF716FB0020FFF713FB002020
:10115000FFF710FB9520FFF70DFB002407E0FF20B1
:10116000FFF708FB0546FF2D00D003E0641CB4F533
:101170007A7FF4DB00BFFFF7BFFA012D07D10548E6
:10118000007820F00100034908700020C6E7012024
:10119000C4E700000100002070B505460E46144665
:1011A0000DB1042070BD1548007800F0010008B1B1
:1011B0000320F7E736B1012E19D0022E0ED0032EF0
:1011C0001AD110E0FFF7A2FA00BFFF20FFF7D2FA12
:1011D0000028FAD0FFF790FA0020E3E74FF4007000
:1011E00020800020DEE7012020600020DAE74FF4B5
:1011F000001020600020D5E70420D3E70100002084
:101200002DE9F04781460F4614469846B9F1000F84
:1012100002D1B8F1000F02D10420BDE8F0872A48BE
:10122000007800F0010008B10320F6E744E0FFF782
:101230006DFA5120FFF79EFA200EFFF79BFAC4F3D8
:101240000740FFF797FAC4F30720FFF793FAE0B2DD
:10125000FFF790FAFF20FFF78DFA002507E0FF2047
:10126000FFF788FA0646FF2E00D003E06D1CB5F5A7
:101270007A7FF4DB00BFB6B900BFFF20FFF77AFA30
:10128000FE28FAD1002504E0FF20FFF773FA785515
:101290006D1CB5F5007FF7DBFF20FFF76BFAFF2031
:1012A000FFF768FA03E0FFF727FA0120B5E7FFF739
:1012B00023FA07F50077641CB8F10000A8F10108D3
:1012C000B5D100BFA9E7000001000020014609B127
:1012D0000120704701480078FBE700000100002072
:1012E0002DE9F04781460E4614461F46B9F1000F1E
:1012F00000D117B90420BDE8F0873348007800F02A
:10130000010008B10320F6E758E0FFF7FFF9582085
:10131000FFF730FA200EFFF72DFAC4F30740FFF76E
:1013200029FAC4F30720FFF725FAE0B2FFF722FA03
:10133000FF20FFF71FFA002508E0FF20FFF71AFA49
:101340008046B8F1FF0F00D003E06D1CB5F57A7F41
:10135000F3DB00BFB8F1000F27D1FF20FFF70AFA37
:10136000FE20FFF707FA002503E0705DFFF702FAA1
:101370006D1CB5F5007FF8DBFF20FFF7FBF9FF20C0
:10138000FFF7F8F9FF20FFF7F5F9804608F01F0096
:10139000052806D100BFFF20FFF7ECF90028FAD09E
:1013A00007E0FFF7A9F90120A5E7FFF7A5F901205C
:1013B000A1E7FFF7A1F906F50076641C381EA7F136
:1013C0000107A2D100BF96E70100002038B505460D
:1013D000284600F057FD04463CB96946284601F00E
:1013E00054FB04460CB900202860204638BD00009C
:1013F0002DE9FF4F99B00E4619A800F07DFF03902C
:101400000398002803DA0B201DB0BDE8F08FFE49D9
:10141000039851F8200028B10021FB4A039852F8A4
:10142000200001700398C0B2169000201590169805
:10143000FFF770FE0290029800F0010008B103204F
:10144000E2E7029800F0040008B10A20DCE706B9E0
:10145000EE4E70681390139820B913AA03211698C2
:10146000FFF79AFE139840B11398B0F5004F04D8D7
:101470001398401E1399084008B1012013904FF4AF
:101480000078307800F00F0018907078012804DBA5
:101490007078022801DC707800E001200690B168C5
:1014A00089B1B168B1F5004F0DD840464FEAE871F7
:1014B00008EBD1614911B268B2FBF1F301FB1321D2
:1014C00009B9B16801E04FF400710591F068B0F11D
:1014D000807F05D8F068411E084008B9F06800E038
:1014E000002007900798B0FBF8F007901C98B0FB1D
:1014F000F8F01490149808B9112085E71B9C0CB9DA
:10150000112081E74FF0000BCDF840B000BF10AACA
:1015100001211698FFF740FE08B1012074E71898E2
:1015200000F0080040B910983F2805D94FF03F0B54
:101530001098A0EB0B0010901098802801D20E207C
:1015400062E700BF00BF0798802801D9802007907C
:10155000189800F0020028B1189800F0010008B9AE
:10156000032707E0189800F0010008B913204BE7A3
:10157000022700BF00BFA64910980844119000BF81
:10158000079D032F2DD1A5B910984FEA504A00208E
:101590000490012503E00498401C04906D009D49CF
:1015A000049831F8100020B1049831F8100050452B
:1015B000F1D91098B0FBF5F9082000EB8900404400
:1015C000401EB0FBF8F0099020200A9000200890FF
:1015D0004FF6F570814502D98F48814536D90E20E6
:1015E00012E7A5B910984FEA103A0020049001259F
:1015F00003E00498401C04906D008849049831F879
:10160000100020B1049831F810005045F1D910981D
:10161000B0FBF5F940F6F570814503D9042000EBE5
:10162000490A06E0012709EB4900401C032101EBB0
:10163000500A0AEB0800401EB0FBF8F009900120A8
:101640000A9005984001B0FBF8F008900A985844B9
:101650000F90069A09990F9801FB02010898084417
:101660000E9013990E980844401E491E20EA01016D
:101670000E98A1EB000A032F06D10A9850440A9055
:101680000F9850440F9013E00698BAFBF0F100FB5E
:1016900011A038B1AAF1010A0A98401C0A900F98CB
:1016A000401C0F900698BAFBF0F109980844099085
:1016B0000E9800EB0510A0EB0B001099884201D9A1
:1016C0000E20A1E610990A980A1A0699099800FBBB
:1016D00011210898081AB0FBF5F9032F0BD14FF62A
:1016E000F570814507D8079818B96808079000B1C8
:1016F00035E00E2088E6022F28D14FF6F57081459F
:1017000017D9079830B94020B0EB450F02D36800D5
:10171000079024E0189800F0020008B103271EE0AB
:10172000079820B968000790802800D817E00E209D
:101730006AE640F6F570814508D8079820B9680038
:101740000790802800D80AE00E205DE6012F05D121
:1017500040F6F570814501D90E2055E600E00FE70F
:1017600000BF41462046FEF703FE2DA00168216020
:101770004168616001892181807AA072414604F14B
:101780000B0001F00EF965730A9881B204F10E00A6
:1017900001F007F906982074032F01D1002000E022
:1017A000059881B204F1110001F0FBF81098B0F532
:1017B000803F06D2109881B204F1130001F0F1F8D5
:1017C00004E004F12000109901F0DFF8F8206075C2
:1017D0003F2104F1180001F0E4F8FF2104F11A00A0
:1017E00001F0DFF8594604F11C0001F0CEF8032F98
:1017F00038D104F14300119901F0C7F804F1240035
:10180000099901F0C2F811E004000020742B0008CF
:101810000000785A662B0008F5FFFF0F582B0008D0
:10182000EBFE904D53444F53352E3000022104F10E
:101830002C0001F0AAF8012104F1300001F0B1F808
:10184000062104F1320001F0ACF8802084F8400059
:10185000292084F84200132282A104F14700FEF7F8
:1018600008FD16E004F12700119901F08EF809989F
:1018700081B204F1160001F094F8802084F824006D
:10188000292084F8260013227BA104F12B00FEF707
:10189000F0FC4AF6552104F5FF7001F082F80123AF
:1018A0005A4621461698FFF71BFD08B10120ABE50B
:1018B000032F32D101230BF1060221461698FFF7C0
:1018C0000FFD41462046FEF753FD7049204601F0CA
:1018D0005CF86F4904F5F27001F057F8A9F10101C5
:1018E00004F5F47001F051F8022104F5F67001F0EE
:1018F0004CF84AF6552104F5FF7001F052F8012327
:101900000BF1070221461698FFF7EAFC01230BF1C1
:10191000010221461698FFF7E3FC149800FB08F13A
:101920002046FEF725FD0F980D900020049040E022
:10193000032F0FD16FF00701204601F026F8391F61
:10194000201D01F022F86FF0704104F1080001F051
:101950001CF809E0012F01D14E4801E06FF00700AB
:101960000146204601F011F80998129000BF149921
:101970001298884201D9149800E012988246534682
:1019800021460D9A1698FFF7ABFC08B101203BE504
:1019900041462046FEF7ECFC0D9850440D901298FD
:1019A000A0EB0A00129012980028E0D10498401C85
:1019B0000490069904988842BAD3032F01D128468F
:1019C00000E00898129000BF14991298884201D93B
:1019D000149800E012988246534621460D9A1698B4
:1019E000FFF77EFC08B101200EE50D9850440D90E4
:1019F0001298A0EB0A00129012980028E4D100BFC0
:101A0000032F02D10C2017900DE01098B0F5803F05
:101A100002D30620179006E0022F02D1042017906F
:101A200001E00120179000BF189800F0080070B97D
:101A300010980B9000200C9023460BA9DDE91602AC
:101A4000FFF746F90190019808B10198DCE4002203
:101A500011461698FFF7A0FB08B10120D4E400203E
:101A6000D2E400004E4F204E414D4520202020461C
:101A700041543332202020004E4F204E414D45200E
:101A80002020204641542020202020005252614135
:101A900072724161F8FFFF00F7B582B016460398F5
:101AA000019001A800F028FC0446002C02DA0B206B
:101AB00005B0F0BD0F4850F8245025B100200D4965
:101AC00041F824002870029840B102994C7000201F
:101AD000029908700749029841F824000EB90020C5
:101AE000E6E7002202A903A800F0E8FC0746384612
:101AF000DEE70000040000202DE9F74F8EB0044619
:101B000016461CB9092011B0BDE8F08F06F03F065B
:101B1000324602A90FA800F0D1FC0546002D6FD176
:101B20000298039003A80F9900F027FB05462DB9F2
:101B30009DF8370000F0800000B1062506F01C007B
:101B4000002855D045B1042D03D103A8FFF773FA3F
:101B5000054646F008060AE09DF8120000F0110064
:101B600008B1072503E006F0040000B10825002DA8
:101B700050D106F0080000284CD05A4801900A992C
:101B800001F10E00019900F000FF0A9901F1160021
:101B9000019900F0FAFE0A99029800F0D6FB8146FE
:101BA00020200A99C87200220A99029800F0DBFEF0
:101BB0000A9901F11C00002100F0E7FE01200299C2
:101BC0000871B9F1000F25D00298D0F82CA000229E
:101BD000494603A800F07AFE0546DDB95146029851
:101BE00000F0BEFD0546A9F101000299C86011E0B0
:101BF00085B99DF8120000F0100010B1042509E02D
:101C00005DE006F0020028B19DF8120000F001002E
:101C100000B107254DB906F0080008B146F04006AE
:101C20000298C06A20620A986062002D55D10A9914
:101C3000029800F08AFBA0600A9901F11C0000F0F4
:101C400097FBE060029820600298C088A08026740C
:101C500000206074E06160614FF4007104F12800BD
:101C6000FEF7A8FB06F0200048B3E06838B3E06850
:101C70006061029840894FEA402BA768D4F80C8035
:101C80000CE03946204600F0C7FA0746012F00D87D
:101C90000225781C00B90125A8EB0B080DB9D84521
:101CA000EFD8A7615DB9C8F3080040B13946029882
:101CB000FEF7E0FE8246BAF1000F01D102250CE0EA
:101CC0000AEB5820E061E26902994878012304F1A7
:101CD0002801FFF795FA00B101250DB10020206021
:101CE000284610E70000785A2DE9FF4F85B00446DA
:101CF00015469A46DDF818B00020CAF8000003A97E
:101D0000204600F0C2FE0490049810B9607C049054
:101D100018B1049809B0BDE8F08F207C00F00100F4
:101D200008B90720F6E76169E068401A0190019858
:101D3000854200D9019DA0E0A08AC0F308000028D8
:101D40007ED103984089401E616900EA5129B9F1AA
:101D5000000F17D1606910B9A068029004E0204616
:101D6000A16900F059FA02900298022802D20220DA
:101D70006074CFE70298401C10B901206074C9E775
:101D80000298A061A1690398FEF774FE064616B991
:101D900002206074BEE74E444FEA5528B8F1000FA8
:101DA00029D009EB080003994989884203D903988F
:101DB0004089A0EB090803994878434632465946C2
:101DC000FFF71EFA10B101206074A3E7207C00F039
:101DD000800068B1E069801B404509D2E169891B38
:101DE0000BEB41204FF4007204F12801FEF741FA99
:101DF0004FEA482737E0E069B04220D0207C00F06D
:101E0000800078B1E26903994878012304F1280140
:101E1000FFF766FA10B1012060747BE7207C00F0C8
:101E20007F002074039948780123324604F1280189
:101E3000FFF7E6F918B1012060746BE700E0E66196
:101E4000A08AC0F30800C0F50077AF4200D92F4642
:101E5000A08AC0F3080204F1280011183A46584637
:101E6000FEF707FA00BFED1BDAF800003844CAF8A5
:101E70000000BB44606938446061002D7FF45CAFB2
:101E8000002047E7F8B504466946204600F0FDFD0E
:101E90000646002E42D1207C00F0400000283DD0B4
:101EA000207C00F0800070B1E2690099487801233D
:101EB00004F12801FFF714FA08B10120F8BD207CD5
:101EC00000F07F002074164F216A009800F048FC53
:101ED00006461EBB656AE87A40F02000E872294693
:101EE000A268206800F03FFD05F11C00E16800F0E9
:101EF0004CFD394605F1160000F047FD002105F1C3
:101F0000120000F04EFD012000990871009800F0C9
:101F10004FFD0646207C00F0BF0020743046CDE720
:101F20000000785A2DE9FF4F83B0044615469B46C2
:101F3000049800900020CBF8000001A9204600F092
:101F4000A4FD0290029810B9607C029018B102982A
:101F500007B0BDE8F08F207C00F0020008B9072030
:101F6000F6E700BF606928446169884202D260696F
:101F7000C0F1FF35BBE0A08AC0F30800002875D18E
:101F800001984089401E616900EA512ABAF1000FA8
:101F90001ED1606938B9A76857B900212046FEF7FD
:101FA00076FD074604E02046A169FEF770FD07466E
:101FB00007B99FE0012F02D102206074C8E7781CA6
:101FC00010B901206074C3E7A761A06800B9A760D9
:101FD000207C00F0800078B1E26901994878012303
:101FE00004F12801FFF77CF910B101206074AFE71C
:101FF000207C00F07F002074A1690198FEF73AFD73
:10200000064616B902206074A2E756444FEA5529E5
:10201000B9F1000F2BD00AEB0900019949898842D8
:1020200003D901984089A0EB0A09019948784B46E9
:1020300032460099FFF754F910B10120607487E728
:10204000E069801B48450ED2E069801B009A02EBD4
:1020500040214FF4007204F12800FEF70AF9207CB9
:1020600000F07F0020744FEA49282BE013E0E0697C
:10207000B0420FD0E168606988420BD2019948787C
:102080000123324604F12801FFF7BAF810B101200C
:1020900060745DE7E661A08AC0F30800C0F50078CF
:1020A000A84500D9A846A18AC1F3080204F1280175
:1020B000501842460099FEF7DCF8207C40F0800082
:1020C000207400BFA5EB0805DBF800004044CBF806
:1020D0000000009840440090606940446061E168FD
:1020E0006069884201D9606900E0E068E060002D25
:1020F0007FF441AF00BF207C40F0400020740020FE
:1021000026E72DE9FF4107460D4600213846FEF738
:1021100041FC0646022E06D0032E00D21DB93046E1
:1021200004B0BDE8F08100BF00240AE007F5F771B4
:1021300001EB041101F1080000F01AF94DF8240038
:10214000641C042CF2D30DB1681E00E0002004468C
:1021500000BF5DF8240028B15DF824103846FEF772
:1021600019FC00E0032006462DB9022E03D3601CA3
:1021700004460428EDD33046D2E72DE9F341044666
:10218000276802E00198401C0190019800782F28F0
:10219000F8D0019800785C28F4D00020A060019865
:1021A0000078202808D280212B20015500212046CC
:1021B000FEF762FF05462CE000BF01A92046FEF7AE
:1021C000F9FC054605B123E02046FEF799FE0546D9
:1021D0002B20065D3DB1042D04D100BF06F00400A4
:1021E00000B9052514E006F0040000B110E0A07964
:1021F00000F0100008B905250AE0208AC0F30802A3
:1022000007F130001118384600F09FF8A060D4E7BD
:1022100000BF2846BDE8FC812DE9F04781460C4609
:10222000D9F80050022C02D36869A04202D84FF0BE
:1022300001085EE04FF0FF382878012804D002281A
:102240002CD0032851D13CE0264606EB5606286ADE
:1022500000EB5621284600F083FA00B148E03046F2
:10226000761CC0F3080105F13000475C286A00EBDA
:102270005621284600F074FA00B139E0C6F308018F
:1022800005F13000405C47EA002704F0010008B186
:10229000380901E0C7F30B00804629E0286A00EB0B
:1022A0001421284600F05CFA00B121E040F2FF1151
:1022B00001EA440205F13001501800F065F880464B
:1022C00016E0286A00EBD411284600F049FA00B164
:1022D0000EE040F2FF1101EA840205F130015018CE
:1022E00000F046F820F0704802E04FF0010800BF0F
:1022F00000BF4046BDE8F08730B50446206801467F
:10230000024611B94FF0FF3030BD00BF12F8013B5B
:10231000212B01D33A2BF9D13A2B14D1012508787E
:10232000302808DB0878392805DC881C904202D167
:102330000878A0F13005012D02DB4FF0FF30E3E714
:1023400022602846E0E70020DEE770B505460C462F
:1023500004F11A0000F018F806462878032805D181
:1023600004F1140000F010F846EA0046304670BD53
:102370000146C8788A7842EA00204A7842EA00207A
:102380000A7842EA00207047014648780A7842EA13
:1023900000207047ADF5047DFEF74EF9FEF76EF8AC
:1023A000FEF7BEF9012235A13548FFF775FB354927
:1023B0000870084600780D2817D1334B0FCB8DE8F5
:1023C0000F004FF4007304AA69462CA0FFF710F821
:1023D0002C4908700846007830B9012227A1284806
:1023E000FFF75AFB2749087000BF2648007808B15C
:1023F00000BFFEE7FEF7DAF90A2224A12648FFF71C
:102400007BFB2049087008460078B0B923A4204619
:10241000FDF710FF054683AB2A4621461E48FFF70D
:1024200081FD184908700846007818B91A48FEF767
:10243000CDFF01E000BFFEE701E000BFFEE70122A3
:1024400012A11548FFF758FB0E490870084600789E
:1024500090B976AB312277A90F48FFF745FC0949BF
:1024600008700846007818B9002077A9769A885431
:102470000948FEF7ABFF00BF00BFFEE70000000009
:102480000C00002000000020C82A000868656C6C61
:102490006F2E7478740000003C02002058696E2092
:1024A0006368616F2074752053544D333220766F0A
:1024B00069204661744673210D0A00002DE9F74F2B
:1024C00084B00021059801600498FFF715FF039080
:1024D0000398002803DA0B2007B0BDE8F08F9A4973
:1024E000039851F820400CB90C20F5E705980460DA
:1024F000069800F0FE000690207878B16078FEF72C
:10250000E5FE074607F0010040B9069820B107F044
:10251000040008B10A20DFE70020DDE7002020707A
:102520006078FEF7F7FD074607F0010008B10320C9
:10253000D2E7069820B107F0040008B10A20CBE7E3
:1025400000212046FFF7DDFD0546042D01D10120C5
:10255000C2E7022D01D30D20BEE7D4F82C9004F180
:102560003B00FFF711FFB0F5007F01D00D20B3E76E
:1025700004F14600FFF708FF064626B904F15400AF
:10258000FFF7F6FE0646A6614020005DE070E078A9
:10259000012804D0E078022801D00D209CE7E078E3
:1025A00046433D20005D6081608918B16089411E0D
:1025B000084008B10D208FE704F14100FFF7E4FE69
:1025C0002081207A00F00F0008B10D2084E704F18B
:1025D0004300FFF7D9FE8246BAF1000F04D104F19F
:1025E0005000FFF7C5FE824604F13E00FFF7CCFE27
:1025F0008346BBF1000F01D10D206DE70BEB060008
:10260000218900EB111002900298824501D20D2021
:1026100062E70298AAEB00006189B0FBF1F8B8F11B
:10262000000F01D10D2057E700254848804500D80C
:1026300003254FF6F570804500D8022540F6F57069
:10264000804500D801250DB90D2045E708F10200AD
:102650006061C4F81C9009EB0B00206202984844AA
:10266000A062032D13D104F15A00FFF78DFE08B1CB
:102670000D2031E7208908B10D202DE704F15C0021
:10268000FFF776FE606260698000019014E02089A7
:1026900008B90D2020E7206A30446062022D02D183
:1026A0006069400007E0207D00F00100616901EBF6
:1026B000410100EB51000190A169019800F2FF1067
:1026C000B1EB502F01D20D2006E74FF0FF30206113
:1026D000E06080206071032D2CD104F16000FFF7D1
:1026E00053FE012826D109F10101204600F038F8F7
:1026F00000BB0020607104F13000FFF739FE14497F
:10270000884217D104F50570FFF732FE114988425F
:1027100010D104F22220FFF72BFE0F49884209D185
:1027200004F50670FFF724FE206104F50770FFF73B
:102730001FFEE060257009480088401C80B20749F0
:102740000880E0800020C7E604000020F5FFFF0FAE
:102750005252614172724161000055AA0800002086
:1027600070B504460D460026E06AA84210D0204607
:1027700000F066F906465EB9607801232A4604F146
:102780003001FEF73DFD10B14FF0FF350126E56247
:10279000304670BD2DE9F04704460D4616464FF011
:1027A0000209022D74D36069A84271D920780128EA
:1027B00004D0022849D003280DD15EE02F4607EB54
:1027C0005707206A00EB57212046FFF7C9FF8146D3
:1027D000B9F1000F00D075E038467F1CC0F3080146
:1027E00004F1300001EB000805F0010028B1F1B25E
:1027F00098F8000061F31F1000E0304688F80000F0
:1028000001202071206A00EB57212046FFF7A8FF26
:102810008146B9F1000F00D054E0C7F3080104F17C
:10282000300001EB000805F0010010B1C6F30710FD
:1028300006E098F8000000F0F000C6F3032108431A
:1028400088F80000012020713CE0206A00EB15218F
:102850002046FFF785FF8146B9F1000F00D031E037
:10286000B1B240F2FF1202EA450304F130029818B7
:1028700000F097F80120207124E0206A00EBD511C8
:102880002046FFF76DFF8146B9F1000F01D019E036
:1028900019E040F2FF1101EA850204F130015018FD
:1028A000FFF766FD66F31B00064640F2FF1101EAE2
:1028B000850204F130015018314600F066F801201D
:1028C000207100BF00BF4846BDE8F0872DE9F04702
:1028D00081460E4617464FF00008D9F80040022EF8
:1028E00002D36069B04202D80220BDE8F08767B128
:1028F00000BF4FF0FF3239462046FFF74BFF8046BE
:10290000B8F1000F01D04046EFE700BF314648461E
:10291000FFF782FC054605B922E0012D01D1022016
:10292000E3E7681C08B90120DFE7002231462046B2
:10293000FFF730FF8046B8F1000F01D04046D4E7E2
:10294000D4E90410801E814206D22069401C206117
:10295000607940F0010060712E466069B042D5D8C0
:1029600000BF0020C1E770B506460C461546A9B267
:1029700004F11A0000F015F83078032804D1290C6E
:1029800004F1140000F00DF870BD00F8011B090AF5
:1029900000F8011B090A00F8011B090A00F8011BD5
:1029A000704700F8011B091200F8011B7047000076
:1029B00070B50446204600F043F80546002D37D197
:1029C000607901282DD1002060712078032828D15A
:1029D0004FF4007104F13000FDF7ECFC154904F1EF
:1029E0003000FFF7D2FF144904F50570FFF7CDFF63
:1029F00004F506702169FFF7C8FF04F50770E16868
:102A0000FFF7C3FF0D4904F22220FFF7BEFFE16983
:102A1000491C0A46E1626078012304F13001FEF7A7
:102A20005FFC607800221146FEF7B6FB00B101257D
:102A3000284670BD5252614172724161000055AA30
:102A400070B5044600252079E8B16078012304F1CF
:102A50003001E26AFEF744FCA0B900202071216A2F
:102A6000E06A401AA16988420DD2E07802280AD1B2
:102A7000A369E16ACA186078012304F13001FEF706
:102A80002FFC00E00125284670BD70B504460D46B8
:102A900009268CB1206878B12068007860B1A088E0
:102AA0002168C988884207D121684878FEF70EFC62
:102AB00000F0010000B900260EB9206800E00020F7
:102AC0002860304670BD00000202000000000000D7
:102AD00000000000000000004355454141414143D2
:102AE00045454549494941414592924F4F4F5555BA
:102AF000594F554F9C4F9E9F41494F55A5A5A6A79D
:102B0000A8A9AAABACADAEAFB0B1B2B3B44141412C
:102B1000B8B9BABBBCBDBEBFC0C1C2C3C4C54141C8
:102B2000C8C9CACBCCCDCECFD1D1454545494949FD
:102B300049D9DADBDCDD49DF4FE14F4F4F4FE6E8A3
:102B4000E85555555959EEEFF0F1F2F3F4F5F6F773
:102B5000F8F9FAFBFCFDFEFF010004001000400044
:102B60000001000200000100020004000800100043
:102B7000200000000700000000000000000000002E
:102B800000000000A42B0008000000200C00000042
:102B900028010008B02B00080C000020BC0A00002F
:102BA00044010008000100000000000000000000D7
:04000005080000ED02
:00000001FF
