:020000040800F2
:10000000F02C00207D02000885020008870200080D
:10001000890200088B0200088D0200080000000021
:100020000000000000000000000000008F02000837
:10003000910200080000000053020008F139000896
:10004000970200089702000897020008970200082C
:10005000970200089702000897020008970200081C
:10006000970200089702000897020008970200080C
:1000700097020008970200089702000897020008FC
:1000800097020008970200089702000897020008EC
:1000900097020008970200089702000897020008DC
:1000A00097020008970200089702000897020008CC
:1000B000653A0008970200089702000897020008B6
:1000C00097020008970200089702000897020008AC
:1000D00097020008B53D000897020008193E000885
:1000E00097020008970200089702000800F002F843
:1000F00000F090F80AA090E8000C82448344AAF132
:100100000107DA4501D100F085F8AFF2090EBAE82F
:100110000F0013F0010F18BFFB1A43F0010318473B
:100120007449000094490000103A24BF78C878C18F
:10013000FAD8520724BF30C830C144BF04680C60ED
:10014000704700000023002400250026103A28BF35
:1001500078C1FBD8520728BF30C148BF0B60704739
:100160006E2900F01E83702900F06984662904F06E
:10017000FD82652904F0FA82672904F0F78261297B
:1001800004F0F68203681B0A28BF41F08001692948
:1001900000F0D280642900F0CF80752900F0CC8077
:1001A0006F2900F0F683782900F03584E92900F002
:1001B0009183E42900F08E83F52900F08B83EF29E9
:1001C00000F0F383F82900F034840368DB0928BFCA
:1001D00041F08001632901F01980732901F01E802C
:1001E000E32901F02980F32901F02E8000207047D7
:1001F0001FB501F07BF804000020002104F0A0FAF4
:10020000401C60600020002104F084FAE0601FBD03
:1002100010B510BD01F03CF81146FFF7E9FF04F0FE
:1002200079F801F019F903B4FFF7F2FF03BC01F00C
:1002300061F9000010480268D2F800D0BDE8F00F64
:100240000FBC5DF804CB01B05DF804EB01B062B601
:10025000704772B62DE9F00F07480168C1F800D069
:1002600001B504F005FABDE801400168D1F800D0FD
:10027000BDE8F00F62B670470400002009488047CF
:1002800009480047FEE7FEE7FEE7FEE7FEE7FEE778
:10029000FEE7FEE7FEE7FEE704480549054A064B90
:1002A00070470000053A0008ED000008F026002025
:1002B000F02C0020F0280020F028002010B54C1071
:1002C00084EA530404D54042C1F1000138BF491EFD
:1002D0001B4204D55242C3F1000338BF5B1E00F03D
:1002E0002EF914F0804F04D04042C1F1000138BF14
:1002F000491E14F0004F04D05242C3F1000338BF2E
:100300005B1E10BD7CB51D4616460C00009001D04A
:100310002044401E074B7B442A46694601903046E4
:1003200000F059FA05461CB10020694600F066FA53
:1003300028467CBDED0400002DE9F041064600246E
:1003400010687529314616A510D000F096F90028DE
:1003500002DA404213A507E031688A0701D512A5E9
:1003600002E0490704D511A5012401E000F08EF94F
:1003700000210A2206F1240709E0B0FBF2FCB0FBE1
:10038000F2F302FB1C00303078541846491C002858
:10039000F3D123462A463046BDE8F04100F0A8B923
:1003A000000000002D0000002B00000020000000D5
:1003B0002DE9F05F894604464FF0000ADFF874B17A
:1003C000FB44C0F820A02046E1688847002874D08C
:1003D000252806D0D4E901219047206A401C2062DC
:1003E000F1E700265F462046E16888472028054659
:1003F00007DB312D05D2781910F8200C08B106431F
:10040000F1E7B00701D526F00406C4F81CA00027C8
:10041000C4F818A02A2D09D0284603F04AFF38B3A3
:1004200004EB8708303DC8F8185019E059F8041B50
:10043000204604EB87029161E1688847012F054659
:1004400018D1E069002820DA26F020061DE0D8F84F
:10045000180000EB800005EB40003038C8F81800A9
:100460002046E1688847054603F023FF0028EED1C7
:10047000012F0AD02E2D08D12046E16888477F1C25
:100480000546022F46F02006C4DBA069002803DAE7
:10049000404246F00106A061F00701D026F01006A8
:1004A0006C2D0BD0682D09D04C2D39D06A2D35D04C
:1004B000742D35D07A2D33D016E038E0E1682F4620
:1004C00020468847B842054609D16C2F26D04FF404
:1004D0008060E168064320468847054604E06C2FAB
:1004E0001AD04FF4807006430DB3A5F141001928CE
:1004F00002D8203546F400664A4629462046266042
:100500004E46FFF72DFE80B101280BD0F61D26F0D8
:10051000070000F1080956E74020E4E78020D8E70B
:100520000020D6E706F104094DE7284652E7206A85
:10053000BDE8F09FD045000070477047704753EA10
:10054000020C00F069802DE9F04B4FF00006002B03
:100550001FBFB3FA83F503FA05F424FA05F65E40EB
:1005600012BF1643B2FA82F502FA05F4C5F120056E
:100570001EBF22FA05FC44EA0C04203556EA044C5E
:100580004FEA144418BF641C4FF000084FF00009F4
:10059000904271EB030C39D3002919BFB1FA81F7EE
:1005A00001FA07F6B0FA80F700FA07F6C7F120075C
:1005B0001EBF20FA07FC46EA0C062037B6FBF4FC07
:1005C000A7EB0507103F07F01F0BCBF120060CFA35
:1005D0000BFB2CFA06F644BFB3460026202FA4BF1F
:1005E0005E464FF0000B5BEA060C08BF4FF0010BB4
:1005F00019EB0B09ABFB027C48EB0608C01B06FBA2
:1006000002CC0BFB03CC71EB0C01C1E70B4602469D
:1006100041464846BDE8F08B13B54FF000004FF05F
:100620000001AFF30080BDE81C40704770B5044680
:1006300085690068C10601D5302600E02026C00784
:1006400007D070BDD4E9012130469047206A401C94
:1006500020626D1EF6D570BD70B5044685690078C0
:10066000C00707D170BDD4E9012120209047206A3E
:10067000401C20626D1EF6D570BD09684A0501D583
:1006800040B27047C905FCD500B2704709684A05F9
:1006900001D5C0B27047C905FCD580B2704770B5AE
:1006A0000C460546012A05D02878800600D5EA695F
:1006B000002302E0012305E05B1C934202D2E05CD0
:1006C0000028F9D1A869E618C01AA861286A184458
:1006D00028622846FFF7AAFF04E0D5E9012114F8B3
:1006E000010B9047B442F8D32846FFF7B5FF70BD21
:1006F0002DE9F0470D4699469246044600F124083C
:100700000168880604D5E06921F01001216000E04D
:100710000120A84201DD471B00E00027A1697A19EA
:1007200002EB0900081AA0612078C00602D4204616
:10073000FFF77CFF002608E0D4E901211AF8060043
:100740009047206A401C761C20624E45F4DB2078DE
:10075000C0060AD52046FFF769FF06E0D4E901216B
:1007600030209047206A401C2062381EA7F1010704
:10077000F4DC07E0D4E9012118F805009047206A6D
:10078000401C2062281EA5F10105F3DC2046FFF77E
:1007900063FF2078000602D50220BDE8F087012023
:1007A000FBE711680268006A530501D508700AE08A
:1007B000D30501D5088006E0130603D5C217C1E9A9
:1007C000000200E0086001207047000001694A1C37
:1007D00002610878704700B58FB0CDE90131002182
:1007E000059105497944CDE9031011466846FFF7A4
:1007F000DFFD0FB000BD0000E5FFFFFF0A6802F853
:10080000010B0A607047D1E900239A4202D2531CBF
:100810000B601070704700002DE9FF5F15468A4697
:100820000446DFF8AC80F8440027D8E900103E46C3
:10083000CDE9001010E03AF816106A4602A800F060
:1008400007FD411C07D02178890603D5E2693918D4
:1008500091420DD80744761C2078800602D5E069C5
:10086000B84205DDAE42E6DB3AF816000028E2D1D8
:10087000A069C01BA0612046FFF7D8FED8E9001090
:10088000CDE90010002017E03AF818106A4602A8D7
:1008900000F0DEFCB0F1FF3F81460BD000250DF1EA
:1008A000080B05E0D4E901211BF8050090476D1CF9
:1008B0004D45F7D308F10100B0428046E4DB206AE1
:1008C000384420622046FFF7C7FEBDE8FF9F0000C6
:1008D0007E4100002DE9F0418046D21D22F0070242
:1008E0000025D2E90002F52915A614D0011E72F1E7
:1008F000000106DA0023D0EB030063EB020211A62D
:1009000008E0D8F800108B0701D50FA602E04907D0
:1009100001D50EA601251146002408F1240704E0A4
:1009200000F098F830323A55641C50EA0102F7D1D1
:100930002B46324621464046BDE8F041FFF7D8BE7F
:10094000000000002D0000002B000000200000002F
:1009500030B4002100F1240408E002F00705D208B9
:10096000303542EA4372DB086554491C52EA0305FC
:10097000F3D10468002310A2250707D5A40600D4EC
:1009800021B1C46901230DA2641EC46130BCFFF70C
:10099000AFBE10B5044621461068FFF777FE024649
:1009A0002046BDE810400023D2E7D21D22F0070107
:1009B000D1E90023CCE70000000000003000000077
:1009C000F0B40D460188090502D5214C7C4402E0B3
:1009D0001F4C7C440E34002100F1240608E002F094
:1009E0000F071209E75D42EA03721B097754491C9D
:1009F00052EA0307F3D102780023120704D5702DC1
:100A000006D009B1022311342246F0BCFFF770BEB4
:100A100001231034F8E770B504460D4621461068EE
:100A2000FFF734FE024629462046BDE87040002309
:100A3000C6E7D21D22F00703D3E90023C0E703680D
:100A4000126843F0200303600823C3610023B7E763
:100A5000E03F000030B5B0F10A024FEA900E71F1AC
:100A600000034EEA817EB0EB0E0061EB91014FEA8C
:100A7000101E4EEA017E10EB0E0041EB11114FEA01
:100A8000102E4EEA016E10EB0E0041EB11214FEAE1
:100A9000104E4EEA014E10EB0E0041EB1141401892
:100AA00041F100014FEAD00040EA41704FEAD10124
:100AB00010EB80054FEA810444EA907444EB010492
:100AC0006D1944EB0404521BA3414FF0000348BFCF
:100AD0000A3200D530BD401C41F1000130BD7047E5
:100AE0002DE9FF4F0C461E464FF0FF378BB0D2E981
:100AF0000001DDF860800A908A46C1F30A5505B905
:100B00003D46002108464FF00000BAF1000F00F406
:100B1000400005DA00EB80004FF4400101EA50008C
:100B20004FEA9059B9F1010F00DDB9460A9850EA31
:100B30004A000ED044F61050A5F2FF3545432F145D
:100B4000B8F1000F1ED07542291E1EDDC9F100024A
:100B50001CE0B8F1010F4FF0000001D0302103E09C
:100B6000F24305E02154401CB042FBDB304600223A
:100B7000002121540B99C1F80880C1E900200FB071
:100B8000BDE8F08FBD1B6D1CDEE74A4600DA694206
:100B900006A800F0EFFB06AB93E8070003AB83E881
:100BA000070050460A9900F0ACFC8DE80700A0F55C
:100BB00000501F3800900398002D0ADD42F21F01FB
:100BC0004A460844002303A90390684600F015FF35
:100BD00009E0A0F500504A461F38002303A90390FE
:100BE000684600F01FFF8DE807000004000C03D0EA
:100BF0004FF0FF30410800E01046B8F1000F03D07D
:100C00000022009215461EE0751E05D4FFF722FF54
:100C1000303262556D1EF9D5B3460122084302D029
:100C200000227F1C04E02078302801D100227F1EA2
:100C3000002A099784D01DE0112D07DAFFF70AFF7B
:100C4000303262556D1C50EA0102F5D1084302D0E2
:100C50000098C8B10EE00021681E05E0235C625CCC
:100C600063542254401E491C8142F7DBAB46A81B4B
:100C7000401E0990002004F80B000B98099AC0F858
:100C80000880C0E9002B7AE711264FF0000857E7EB
:100C90002DE9F04F88460446D21D22F0070191B09D
:100CA000D1E90001CDE90A0103F0EFFA02460B9801
:100CB000C00F01D02D2007E02068810701D52B202F
:100CC00002E0202101EAC000032A099001D0072A8E
:100CD00005DB03464146204600F00CFB0BE1207883
:100CE000800601D5E06900E00620B8F1650F814675
:100CF00006D0B8F1660F18D0B8F1670F70D131E0A7
:100D00000020B9F1110F009001DB112301E009F17E
:100D100001030AAA01A90CA8FFF7E2FEDDE90C70A5
:100D2000002609F10105834647E001204B4600906B
:100D30004FF000470AAA01A90CA8FFF7D1FEDDE990
:100D40000DB00C995D46002610B909F101000D188F
:100D5000B9EB050003D4C0F1FF3609F10105A5EB9D
:100D600009002BE0B9F1010F01DA4FF00109002071
:100D7000B9F1110F0090484601DD112300E0034650
:100D80000AAA01A90CA8FFF7ABFEDDE90C704D46DD
:100D900000268346207800070AD4AB4500DA5D467A
:100DA00001A8012D04DD411911F8011C302907D0DB
:100DB0004F4502DA17F1040F04DA012082460FE0F2
:100DC0006D1EEEE7002F02DCED1B3E4403E0781CB5
:100DD000A84200DD7D1CB81B00F1010A4FF000475E
:100DE0002078000703D4AA4501DB4FF0FF3A002129
:100DF000B7F1004F0DF143088DF8431024D00220C5
:100E00002B23002F01DA7F422D230A21021EA0F19D
:100E1000010000DC5FB197FBF1FC97FBF1F201FBF5
:100E20001C7C17460CF1300C08F801CDEEE7A8F158
:100E3000010003702188090501D5452100E06521E5
:100E4000A0F1010800F8011C09980FA9A1EB0807FF
:100E5000FF1D00B10120411901EBEA70A16938447E
:100E6000081A401EA0612078C00602D42046FFF771
:100E7000DDFB099828B1D4E901219047206A401C84
:100E800020622078C00622D52046FFF7CFFB1EE067
:100E9000002E04DBB34502DD01A8805D00E03020B8
:100EA000D4E901219047206A401C2062761CAAF1F7
:100EB00001005FEA000A0AD100F018FAC068016870
:100EC000405CD4E901219047206A401C2062281E22
:100ED000A5F10105DCDC07E0D4E9012118F8010BDC
:100EE0009047206A401C2062381EA7F10107F3DCFE
:100EF0002046FFF7B1FB032011B041E62DE9F04F8A
:100F000004460D46D21D22F0070089B0D0E90097B3
:100F10004846394603F0B9F90246F80F01D02D23AF
:100F200007E02068810701D52B2302E0202101EA98
:100F3000C0038DF820300BB1012000E00020032A0F
:100F4000824601D0072A04DB2946204600F0D2F968
:100F50003FE12078800601D40D2500E0E569C7F364
:100F60000A560D2D49DA00214FEA175B08464FF06B
:100F70000000002F00F4400007DA00EB80004FF47F
:100F8000400100EBD07001EA60008115012901DD0C
:100F90004FF0FF3100224FEA850CBCF1180F06D349
:100FA0001346ACF118004FF08052C24003E04FF4FA
:100FB000801323FA0CF30CF10C0CBCF1200F04D3BA
:100FC000ACF1200C09FA0CF001E007FA0CF0002952
:100FD0004FF0004801DD18B90FE00ED140450CD3A9
:100FE00019EB02095F4121B9404502D19F4329EA2B
:100FF0000209BBEB175F00D0761C2088000502D5E4
:101000007B48784402E07A487844193808AA3023AB
:1010100002F80A30037C0AF10101002E0AF1020AEB
:1010200053546A4602DC4FF0300101E04FF03101C9
:101030004FF001088DF8001002D0A6F2FF3603E051
:1010400059EA470100D06B4E002D02DC21780907D8
:1010500004D54FF002082E218DF80110C44600215E
:101060000BE0C7F303433F01C35C491C6D1E02F84C
:101070000830052908F1010801DA002DF1DC002112
:101080000CE000EB1973491C1B786D1E082902F84F
:1010900008304FEA091908F1010801DA002DF0DCE7
:1010A00021688B0602D516E0A8F10108E04505DDB0
:1010B00002EB080313F8013C302BF5D0B8F1000F18
:1010C00009DD02EB080313F8013C2E2B03D10907BD
:1010D00001D4A8F10108002D05DD3E2102F8081019
:1010E0006D1E08F10108407C002E02F8080008F18E
:1010F000010804DA2D20764202F8080002E02B20D5
:1011000002F808000A214FF47A70864208F10108BB
:101110000BDB96FBF0F3303302F8083096FBF0F36C
:1011200008F1010800FB136601E0642E0CDB64206B
:1011300096FBF0F3303302F8083096FBF0F308F139
:10114000010800FB136601E00A2E06DB96FBF1F0B6
:10115000303002F8080008F1010896FBF1F001FBBD
:101160001060303002F80800A16908F1010808EBAE
:10117000050202EB0A00081AA0612078C00602D41A
:101180002046FFF753FA216A08AE01EB0A002062FD
:1011900004E0D4E9012116F8010B9047BAF1010AE5
:1011A000F7D22078C00602D52046FFF73FFA6E46F8
:1011B00009E016F8010B3E280FD0D4E90121904731
:1011C000206A401C2062B8F10108F2D22046FFF7E5
:1011D00043FA09B00320BDE8F08F206A284420625A
:1011E00003E0D4E90121302090476D1EEBD3F8E7EE
:1011F000E539000002FCFFFF10B5436913B1AFF3FE
:10120000008001E0FFF74BFA012010BD127800F1D9
:1012100024010A7000224A700122EDE711684FF0A4
:10122000FF32E9E710B5436913B1AFF3008001E085
:10123000FFF7F2FA012010BD128800F12401828428
:101240000022C2840122EDE711684FF0FF32E9E786
:1012500070B516460C46054600F040F8036893F852
:101260000101012806D0FF2C0FD8185D68B10120BC
:101270002C7070BDD3F807013246214603F20713E4
:1012800003442846BDE8704018474FF0FF3070BD5A
:10129000754600F0EBF8AE4605006946534620F06F
:1012A0000700854618B020B5FEF7F6FFBDE82040E0
:1012B0004FF000064FF000074FF000084FF0000B12
:1012C00021F00701AC46ACE8C009ACE8C009ACE8C5
:1012D000C009ACE8C0098D467047000010B500F0A9
:1012E00005F8001D10BD00BF5934000000487047CC
:1012F000AC2600202DE9F0411F4604460326016874
:10130000072A01F4006004DB08B116A505E016A564
:1013100003E008B115A500E015A521F0100020603C
:10132000A069C01EA0610FB1401EA0612046FFF75A
:101330007DF94FB1D4E9012138469047206A401C1D
:101340002062C01C206206E0206AFAE7D4E901218D
:1013500015F8010B9047761EF8D22046FFF77CF96E
:10136000BDE8F0814E414E006E616E00494E460070
:10137000696E66002DE9F047814616468AB0354809
:1013800078440DC88DE80D0032487844801C03ACC9
:101390000DC884E80D0041F69B300844372190FBCE
:1013A000F1F290FBF1F5A5F1800501FB12041B3C65
:1013B00002D56442012000E00020DFF898A08046BA
:1013C0000027FA44AAF1BE0A0EE0E0070AD032462E
:1013D000684607EB470101230AEB810100F022FB7D
:1013E0008DE8070064107F1C002CEED1194F7F445C
:1013F000AE3F19E0E80715D007EB04100DF1180A0D
:1014000090E80E008AE80E00C068F04201D19819F9
:1014100008903246012306A903A800F003FB03ABA2
:1014200083E807006D10641C002DE3D14FF0010329
:1014300032466946B8F1000F03A802D000F0DDFA89
:1014400001E000F0EFFAC9E90001C9F808200AB08C
:10145000BDE8F087F836000010B50446AFF3008011
:101460002046BDE81040FEF7DEBE00000048704791
:101470008C2600204FF0013C50F8042B51F8043B1F
:101480009A4221D1A2EB0C03934313EACC1317D158
:1014900050F8042B51F8043B9A4215D1A2EB0C03EF
:1014A000934313EACC130BD150F8042B51F8043BAF
:1014B0009A4209D1A2EB0C03934313EACC13DBD07D
:1014C0004FF00000704700BFD01A01BAB1FA81F1A5
:1014D00001F0180122FA01F0CB40C1F12001DBB28A
:1014E000C0B2C01A2CFA01F3D11A914311EAC31108
:1014F000E6D1704701491820ABBEFEE72600020086
:1015000070475FEA400C08BF91F0000F4FEA8C2350
:101510004FEAC12243EA51514FEA1C5018BF00F56F
:10152000F0404FEA300018BF41F000415FEA6C5CC8
:1015300000F02980BCF1FF3F08BF40F080407047B9
:10154000130C06BF12044FF0100C4FF0000C130EDA
:1015500004BF12020CF1080C130F04BF12010CF1AE
:10156000040C930F04BF92000CF1020CD30F04BFC4
:1015700052000CF1010C11464FF00002A0F11F00C7
:10158000A0EB0C00704711F0004F08BF704731F01E
:1015900000413FF4D5AF0B0C06BF09044FF0100C0F
:1015A0004FF0000C0B0E04BF09020CF1080C0B0FDE
:1015B00004BF09010CF1040C8B0F04BF89000CF16E
:1015C000020CCB0F04BF49000CF1010CCCF120033D
:1015D000A0EB0C0022FA03F302FA0CF241EA030139
:1015E00000F10100704720F07F4C80EA030023F0F7
:1015F0007F47ACEB070303F57C5300F0004003F199
:10160000FF032DE980494FEA154B09B44FEA144313
:1016100025EA0B4E24EA03480FF2042606EB1327B3
:1016200049083E785FEA320203FB0667C7F5000708
:1016300007FB06F64FEA54374FEAD64606F1020694
:1016400007FB066CCCF1005C4FEA1C472CEA074C08
:1016500007FB06F40CFB06F504EB15464FEA96165D
:1016600034BF00204FF000404FEAD13706FB07FCA3
:101670004FEA1C4C0CFB0BF7D21B03FB0CF761EB86
:1016800007010CFB0EF7B0EB074072EB17420CFBA7
:1016900008F734BFA2EB0742B2EB074261EB1741F8
:1016A0004FEA0C444FEA910706FB07FC4FEA1C4C3B
:1016B0000CFB0BF7B0EBC74072EB573203FB0CF798
:1016C00034BFA2EBC742B2EBC74261EB57310CFB10
:1016D0000EF7B0EBC70072EB57720CFB08F734BF84
:1016E000A2EBC702B2EBC70261EB5771039F4FEA4F
:1016F000816141EA921104EBCC044FEAD1374FEA01
:10170000826206FB07FC42EA90124FEA80604FEAD1
:101710001C4C0CFB0BF7D21B03FB0CF761EB070116
:101720000CFB0EF7B0EB074072EB17420CFB08F70F
:1017300034BFA2EB0742B2EB074261EB17414FEA1D
:101740008C554FEA910704EB9C2406FB07FC4FEAFB
:101750001C4C0CFB0BF7B0EBC74072EB573203FB92
:101760000CF734BFA2EBC742B2EBC74261EB573173
:101770000CFB0EF7B0EBC70072EB57720CFB08F7CF
:1017800034BFA2EBC702B2EBC70261EB577115EB96
:101790004C254FEA816141EA92114FEA82624FEA99
:1017A000D13742EA901206FB07FC44F100044FEAED
:1017B00080604FEA1C4C0CFB0BF7D21B03FB0CF7B1
:1017C00061EB07010CFB0EF7B0EB074072EB174221
:1017D0000CFB08F734BFA2EB0742B2EB074261EB08
:1017E000174115EB1C154FEA813141EA92414FEA4E
:1017F000823242EA90424FEA80304FEA0C7644F15E
:10180000000448EA03434EEA0B484FF0000EB2EBE7
:10181000080C71EB030724BF624639464EEB0E0EEF
:101820004FF0000B0018524149414BEB0B0BB2EB50
:10183000080C71EB03077BF1000B24BF62463946AD
:101840004EEB0E0E4FF0000B0018524149414BEB8E
:101850000B0BB2EB080C71EB03077BF1000B24BF01
:10186000624639464EEB0E0E51EA020718BF46F0AB
:10187000010616EB0E7655F1000254F1000103D576
:10188000BDE88901BDE80088BDE88901BDE80048E0
:10189000B619524141EB0101A3F101037047808069
:1018A0007F7E7D7C7B7A79787776767574737271BA
:1018B00071706F6E6E6D6C6C6B6A6A696868676672
:1018C00066656464636362616160605F5F5E5E5D04
:1018D0005D5C5C5B5B5A5A59595858575756565578
:1018E00055555454535352525251515050504F4FDA
:1018F0004F4E4E4D4D4D4C4C4C4B4B4B4A4A4A492A
:10190000494948484847474747464646454545446C
:101910004444444343434342424242414141002BF9
:101920009C4630D477002BD01CB54FEA370703B460
:101930004FF010004FF01001BAF1000F06D0BCF1CB
:10194000000FDCBF40F0080040F008014FF000003D
:101950000FBCBDE810400BF1010BBBF1010F08BF3C
:101960005FEA170722BF12F1010211F101014FF0E6
:10197000004143F1000300F0004043EA00007047DB
:10198000F9D35708D0E746EA064613F1400F4FEA6D
:1019900016461FDD13F1200FDFBF16430A46002154
:1019A00020335B42BED0C3F1200746EA064602FA66
:1019B00007F74FEA164646EA0706C3F1200722FA60
:1019C00003F201FA07F721FA03F14FF0000342EAAC
:1019D0000702A7E746EA020646EA06464FEA164627
:1019E00046EA0106BCBF46EA0646360C4FF0000345
:1019F0004FF000024FF0000194E72DE9804C9A4629
:101A0000934670B491E8380007C831EA400C48BFEB
:101A100034EA430C03D5FFF7E6FDFFF780FFF0BC87
:101A2000BDE8008C2DE9804C9A46934670B491E84D
:101A3000380007C810F0804F08BF13F0804F03D163
:101A400000F005F8FFF76BFFF0BCBDE8008C20F05C
:101A50007F4780EA030023F07F4C07EB0C03A3F5DC
:101A60007C5300F00040A3F1FE0392F0000F00F061
:101A7000B38095F0000F00F077802DE901494FEA1F
:101A800011404FEA144621EA004800FB06FC24EA14
:101A9000064708FB06F607FB08F800FB07F718EBFC
:101AA00006484CEB164C4FEA124B18EB07484FEA2E
:101AB00015464CEB174022EA0B4E0BFB06FC25EAC1
:101AC00006470EFB06F607FB0EFE0BFB07F71EEBA9
:101AD000064E4CEB164C4FF000061EEB074E4CEB3F
:101AE000174B18EB0B0840F1000018EB0E0B58EBEE
:101AF000000840F100008F1A4FF000013CBFC943BD
:101B0000661B14BFB5EB040C00213CBFC943F61B98
:101B10004FEA17444EEA8E0E27EA04454FEA1C4767
:101B200004FB07622CEA074C05FB07F70CFB05F6E4
:101B300004FB0CFC16EB074642EB174216EB0C4677
:101B400042EB1C421BEB060658EB0202414146EAFF
:101B50009E0601D5BDE80189B619524141EB01014C
:101B6000A3F10103BDE801894FEA14454FEA11478B
:101B700024EA054621EA074C05FB07F406FB07F7B4
:101B80000CFB06F105FB0CFC11EB074144EB174481
:101B90004FEA124711EB0C4144EB1C4422EA074C7C
:101BA00005FB07F206FB07F70CFB06F605FB0CFC32
:101BB00016EB074642EB174216EB0C4642EB1C4570
:101BC0006A1854F1000148BF7047B619524141EB01
:101BD0000101A3F10103704795F0000F37D04FEAE0
:101BE00011424FEA144721EA024624EA074C02FB5D
:101BF00007F106FB07F70CFB06F402FB0CFC14EBE9
:101C0000074441EB17414FEA154714EB0C4441EBF5
:101C10001C4125EA074C02FB07F506FB07F70CFB06
:101C200006F602FB0CFC16EB074645EB174516EBD8
:101C30000C4645EB1C42121951F1000148BF704798
:101C4000B619524141EB0101A3F1010370474FEA7C
:101C500014454FEA114724EA054621EA074C05FBE3
:101C600007F106FB07F70CFB06F24FF0000605FB39
:101C70000CFC12EB074241EB174112EB0C4251EB0B
:101C80001C4148BF7047921841EB0101A3F10103C9
:101C90007047000008B50121082001F085FB4820AD
:101CA0008DF8030002208DF802004FF4FC70ADF8AF
:101CB00000006946014801F00BF808BD000C014026
:101CC0009FE10821CF4801F0D7F840B90020CE4964
:101CD00008700120CD490870CD4802F0DDFC1021CC
:101CE000C84801F0C9F818BB00241BE0C6480078BA
:101CF000B8B9C84810F81400C7490988884210D1FB
:101D0000C44800EB44004078BF490870084600789A
:101D1000012802D1C14802F0BFFC0120BB49087074
:101D200002E0641C032CE1DB00BFB94802F0B4FC04
:101D30002021B44801F0A0F840BB00241DE0B248C7
:101D40000078B74911F83410884215D1B44800EB37
:101D5000C4004078B0490988884206DBB04800EBEF
:101D6000C4004078AC49088009E0AD4800EBC400ED
:101D70004168A948884702E0641C032CDFDB00BFF0
:101D80000320A2490870A24802F086FC40219D4829
:101D900001F072F840BB00241DE09B480078A14987
:101DA00011F83410884215D19E4800EBC4004078E9
:101DB00099490988884206DC9A4800EBC4004078BB
:101DC0009549088009E0974800EBC40041689248B3
:101DD000884702E0641C032CDFDB00BF03208B4933
:101DE00008708B4802F058FC8021864801F044F8C6
:101DF00000287DD184480078022811D186480088C7
:101E00007D280DD18048C088401C00B27E49C88022
:101E10000846B0F90600322862DD3220C8805FE053
:101E200079480078022814D17B480088A02810D176
:101E300075488088401C00B2734988800846B0F914
:101E4000040042F20F7188424ADD08466E498880DC
:101E500046E06D480078022807D16F48008837288F
:101E600003D10120684948703AE0674800780228A9
:101E700007D1694800885A2803D101206249C870F7
:101E80002EE061480078032807D1634800887D2848
:101E900003D101205C49487222E05B4800780328A6
:101EA00007D15D480088A02803D101205649087257
:101EB00016E055480078032807D1574800885A286B
:101EC00003D10220504908730AE04F4800780328E4
:101ED00006D151480088372802D101204A490873A9
:101EE00002204A4908704A4802F0D6FB4B4800E0FD
:101EF00001E002F0D1FB4FF48071424800F0BCFFDA
:101F000000287BD140480078022811D1424800883F
:101F10007D280DD13C48C088401E00B23A49C88097
:101F20000846B0F9060001285FDA0120C8805CE0AD
:101F300035480078022811D137480088A0280DD1F3
:101F400031488088401E00B22F4988800846B0F989
:101F50000400012849DA0020888046E02A480078F9
:101F6000022807D12C480088372803D100202649B1
:101F700048703AE024480078022807D126480088B3
:101F80005A2803D100202049C8702EE01E4800784E
:101F9000032807D1204800887D2803D100201A4952
:101FA000487222E018480078032807D11A480088B0
:101FB000A02803D100201449087216E012480078C6
:101FC000032807D114480088372803D100200E4980
:101FD00008730AE00C480078032806D10E480088F0
:101FE0005A2802D1002008490873022007490870C6
:101FF0000A4802F051FB064802F04EFB142002F0A2
:1020000067FB5EE6000C0140F8250020110000206F
:102010000C0000203C49000818000020100000209F
:10202000444900085C49000801684FF6FE721140FF
:1020300001600021016041608160C1604B498842BC
:1020400008D14A490839496841F00F01474A083A1E
:1020500051608AE045491431884208D14349083922
:10206000496841F0F001414A083A51607DE03F493A
:102070002831884208D13D490839496841F47061E6
:102080003A4A083A516070E038493C31884208D1F8
:1020900036490839496841F47041344A083A516078
:1020A00063E032495031884208D1304908394968E3
:1020B00041F470212D4A083A516056E02B496431B1
:1020C000884208D129490839496841F47001274AF2
:1020D000083A516049E025497831884208D12349BE
:1020E0000839496841F07061204A083A51603CE083
:1020F0001F49884206D1011F096841F00F01021FE4
:10210000116032E01A491431884208D11849091F78
:10211000096841F0F001164A121F116025E01449C8
:102120002831884208D11249091F096841F47061B9
:102130000F4A121F116018E00D493C31884208D146
:102140000B49091F096841F47041094A121F1160C7
:102150000BE007495031884207D10549091F09683A
:1021600041F47021024A121F1160704708000240BA
:102170000804024010B50022026847F6F0739A4343
:102180000C6A8B6823430C6923434C6923438C6995
:102190002343CC6923434C6A23438C6A23431A4369
:1021A0000260CB6843600B6883604B68C36010BDFE
:1021B00088B075E3FE4802F019F9FE48007800285F
:1021C00049D1FD48007801280AD100F061FC1E20A9
:1021D000FA490880C320FA4908800320F6490870AC
:1021E000F5480078032835D1F54800887C2821DDA2
:1021F000F3480088C4281DDA03200021CDE900102F
:10220000EF480088233881B24FF6E073EDA2EB4827
:10221000008800F00FFF03200021CDE90010E848FE
:102220000088233081B24FF6E073E6A2E3480088CD
:1022300000F000FF032000214FF6E073E2A2CDE999
:102240000010DF480188DD48008800F0F3FE002020
:10225000D949087023E3D748007802287ED1D648B0
:10226000007801280AD100F07BFB1420D3490880B4
:102270003720D34908800220CF490870CE48007823
:1022800002285ED1CB48407858B9032000214FF492
:102290007843CEA2CDE900103721DC2000F0CAFE41
:1022A0000AE0032000214FF47843CAA2CDE90010D0
:1022B0003721DC2000F0BEFEBE48C07858B90320AC
:1022C00000214FF47843C5A2CDE900105A21DC204B
:1022D00000F0B0FE0EE0B748C07801280AD1032014
:1022E00000214FF47843BFA2CDE900105A21DC2031
:1022F00000F0A0FEAF49B1F90600042205A901F0E3
:1023000057FC032000214FF4784305AACDE90010C3
:102310007D21EE2000F08EFEA649B1F904000422D2
:1023200005A901F045FC032000214FF4784305AADC
:10233000CDE90010A021EE2000F07CFE03209E4994
:1023400008709D480078032884D19D48008837286C
:1023500014DD9B480088A12810DA00E02EE003205D
:102360000021CDE9001096480088233881B24FF64D
:10237000E07394A29148008800F05CFE03200021E5
:102380004FF6E07390A2CDE900108D4801888B488C
:10239000008800F04FFE03200021CDE9001088489E
:1023A0000088233081B24FF6E07386A2834800880C
:1023B00000F040FE00208049087070E27D480078FF
:1023C00003286ED17C48007801280AD100F082FAF7
:1023D00014207A49088037207949088002207649FC
:1023E00008707548007802286AD17248007B01287D
:1023F00016D1032000214FF4FC637CA2CDE900102C
:102400003721282000F016FE032000214FF47843E6
:1024100079A2CDE900105A21282000F00BFE30E00F
:102420006448007B022816D1032000214FF4784332
:102430006EA2CDE900103721282000F0FBFD03201B
:1024400000214FF4FC636CA2CDE900105A21282032
:1024500000F0F0FD15E0032000214FF4784363A263
:10246000CDE900103721282000F0E4FD03200021F1
:102470004FF4784360A2CDE900105A21282000F0E3
:10248000D9FD4C48407A01280CD1032000214FF49B
:10249000FC635BA2CDE900107D21282000F0CAFD7D
:1024A0000BE048E0032000214FF4784358A2CDE927
:1024B00000107D21282000F0BDFD03203E4908705A
:1024C0003D480078032835D13D480088372812DD83
:1024D0003B480088A1280EDA03200021CDE9001036
:1024E00037480088233881B24FF6E07335A233486D
:1024F000008800F09FFD032000214FF6E07332A218
:10250000CDE900102E4801882C48008800F092FD8B
:1025100003200021CDE9001029480088233081B232
:102520004FF6E07327A22548008800F083FD0020C5
:1025300021490870B3E11F480078012837D11E48AF
:102540000078012804D100F063FA02201A490870CB
:10255000194800780228EDD116490422C86905A956
:1025600001F026FB032000214FF6FF7305AACDE9F9
:1025700000103721AA2000F05DFD0E4905220869F0
:1025800005A901F015FB032000214FF6FF7305AAF2
:10259000CDE900105A21AA2000F04CFD03200021B3
:1025A0004FF6FF731EA2CDE900105A213AE069E10F
:1025B0000C000020F825002011000020160000204B
:1025C00018000020200000003E0000002050554C64
:1025D0004C2020002050265220202000204F46462C
:1025E00020202000204F4E202000000050554C4C51
:1025F00020444F574E00000050554C4C2055500081
:10260000434F4D2020504F52543A204F4E2000004F
:10261000434F4D2020504F52543A204F4646000021
:102620006D4E00004FF48C7000F004FD9D48406931
:102630009D49884265D99B489C4A022344692046AB
:102640000021FDF73BFE05460A220023FDF736FE7A
:1026500030201018C0B28DF80C009248406994499F
:10266000B0FBF1F04FF00A01B0FBF1F201FB1200F8
:1026700000F130008DF80D008A4840698D49B0FBAB
:10268000F1F04FF00A01B0FBF1F201FB120000F192
:1026900030008DF80E004FF02E008DF80F008148AD
:1026A00040698549B0FBF1F04FF00A01B0FBF1F24F
:1026B00001FB120000F130008DF8100079484069EC
:1026C0007E49B0FBF1F04FF00A01B0FBF1F201FBE3
:1026D000120000F130008DF811004FF000008DF86D
:1026E00012004FF003004FF000014FF6FF7374A289
:1026F000CDE900104FF07D014FF48C7000F09AFC92
:10270000B4E0684840696F4988425BD965484069D0
:102710006549884256D8634840696749B0FBF1F083
:102720000A21B0FBF1F201FB120030308DF80C00F1
:102730005C4840696149B0FBF1F00A21B0FBF1F25D
:1027400001FB120030308DF80D00564840695D499C
:10275000491CB0FBF1F00A21B0FBF1F201FB1200C1
:1027600030308DF80E002E208DF80F004D48406956
:1027700042F21071B0FBF1F00A21B0FBF1F201FB63
:10278000120030308DF81000464840694FF47A71DD
:10279000B0FBF1F00A21B0FBF1F201FB1200303086
:1027A0008DF8110000208DF81200032000214FF653
:1027B000FF7345A2CDE900107D214FF48C7000F02D
:1027C00039FC53E0374840693E4988424ED8354885
:1027D000406942F21071B0FBF1F00A21B0FBF1F256
:1027E00001FB120030308DF80C002E4840694FF488
:1027F0007A71B0FBF1F00A21B0FBF1F201FB12009B
:1028000030308DF80D00274840696421B0FBF1F0AD
:102810000A21B0FBF1F201FB120030308DF80E00FE
:102820002E208DF80F001F484069B0FBF1F0B0FB7F
:10283000F1F201FB120030308DF8100019484069A8
:10284000B0FBF1F201FB120030308DF811000020D6
:102850008DF81200032000214FF6FF731BA2CDE973
:1028600000107D214FF48C7000F0E4FB0320002168
:102870004FF6FF7303AACDE900107D21AA2000F0D6
:10288000D9FB0CE007480078042808D110480078EC
:10289000012804D100F054F902200D49087000BF4E
:1028A00088E40000F8250020FFE0F50500E40B5463
:1028B00000CA9A3B00E1F5058096980040420F005F
:1028C0004D5200009F8601004B5200002052000034
:1028D000110000201CB5002000F0C8FB04200021DE
:1028E0001F2314A2CDE900100A21084600F0A2FB24
:1028F000032000214FF4784310A2CDE900103721C6
:10290000282000F097FB032000214FF478430EA20B
:10291000CDE900105A21282000F08CFB0320002173
:102920004FF478430AA2CDE900107D21282000F061
:1029300081FB1CBD4F5054494F4E530050554C4CD9
:1029400020444F574E20000050554C4C205550000D
:10295000434F4D2020504F52543A204F46460000DE
:102960001CB5002000F082FB042000211F231AA2C6
:10297000CDE900100A21084600F05CFB032000218D
:102980004FF4784316A2CDE900103721282000F03B
:1029900051FB032000214FF4784314A2CDE900102D
:1029A0005A21282000F046FB032000214FF47843F1
:1029B00011A2CDE900107D21282000F03BFB03206F
:1029C00000214FF478430FA2CDE90010A021282068
:1029D00000F030FB1CBD000053455454494E4700E5
:1029E00050554C4C204D4F44453A20005245532001
:1029F000204D4F44453A2000464F52434520202069
:102A0000203A200054494D4553202020203A2000F0
:102A10001CB5002000F02AFB042000211F2314A273
:102A2000CDE900100A21084600F004FB0320002134
:102A30004FF4784310A2CDE900103721282000F090
:102A4000F9FA032000214FF478430DA2CDE90010DC
:102A50005A21282000F0EEFA032000214FF4784399
:102A600009A2CDE900107D21282000F0E3FA1CBD69
:102A7000535441525400000054494D4553203A00EC
:102A8000464F524345203A005245532020203A00F9
:102A90001CB5002000F0EAFA042000214FF4FC638A
:102AA00019A2CDE900100A213E2000F0C3FA04204B
:102AB00000214FF4FC6317A2CDE9001037210A2052
:102AC00000F0B8FA032000214FF4784315A2CDE9B5
:102AD00000107D21322000F0ADFA032000214FF4D8
:102AE000784312A2CDE90010A021322000F0A2FA12
:102AF000032000214FF478430FA2CDE90010C32139
:102B0000322000F097FA1CBD464C455849424C45CE
:102B10000000000053454E534F5220544553544536
:102B20005200000053544152540000005345545485
:102B3000494E4753000000004F5054494F4E530038
:102B40001CB5002000F092FA4FF6FF70052340F20A
:102B50003F1200210090084600F018FA4FF6FF706F
:102B6000EF2305220021009040F23B1000F00EFA06
:102B70004FF6FF70EF23052200210090084600F079
:102B800005FA4FF6FF70052340F23F12EB2100904B
:102B9000002000F0FBF94FF6FF70052340F23F12D2
:102BA00032210090002000F0F1F9042000214FF4C0
:102BB000784325A2CDE900100A21084600F03AFA30
:102BC000022000214FF4784321A2CDE900104621D4
:102BD000322000F02FFA022000214FF4784322A285
:102BE000CDE900105A21462000F024FA02200021ED
:102BF0004FF4784321A2CDE900106E215A2000F055
:102C000019FA022000214FF4784311A2CDE90010F7
:102C10004621322000F00EFA022000214FF47843C2
:102C200011A2CDE900105A21462000F003FA02203B
:102C300000214FF4784315A2CDE900106E215A20EF
:102C400000F0F8F91CBD00005741524E494E4700B4
:102C50005468652073797374656D206861732072A0
:102C60006561636865640000746865206D617869FA
:102C70006D756D206C696D69740000006F6E207455
:102C80006865206C6566742E000000006F6E20740D
:102C900068652072696768742E000000054909683C
:102CA00021F01001034A11601146096801431160C7
:102CB000704700000020024001460020034A1068CF
:102CC00000F0380008431060704700000020024008
:102CD0002DE9F041024600250026002000230024B3
:102CE000002791F803C00CF00F0591F803C00CF019
:102CF000100CBCF1000F03D091F802C04CEA05059E
:102D000091F800C0BCF1000F31D0146800202BE016
:102D10004FF0010C0CFA00F3B1F800C00CEA030606
:102D20009E4220D183004FF00F0C0CFA03F7BC43F6
:102D300005FA03FC4CEA040491F803C0BCF1280F27
:102D400006D14FF0010C0CFA00FCC2F814C00AE0E6
:102D500091F803C0BCF1480F05D14FF0010C0CFAFB
:102D600000FCC2F810C0401C0828D1D31460B1F890
:102D700000C0BCF1FF0F34DD546800202EE000F1EC
:102D8000080C4FF0010808FA0CF3B1F800C00CEA87
:102D900003069E4221D183004FF00F0C0CFA03F77B
:102DA000BC4305FA03FC4CEA040491F803C0BCF1EF
:102DB000280F05D100F1080C08FA0CF8C2F81480AD
:102DC00091F803C0BCF1480F07D100F1080C4FF097
:102DD000010808FA0CF8C2F81080401C0828CED36D
:102DE0005460BDE8F0810000F0B50A4600230024DD
:102DF0000021002500F00046B6F1004F02D11D4E23
:102E0000F16901E01B4E7168C0F3034583B200F421
:102E10004016B6F5401F08D121F07061154E766856
:102E200026F07066134F7E6012E000F48016B6F54F
:102E3000801F06D1032606FA05F4A14341F0706114
:102E400006E0460D360103FA06F6B14341F0706123
:102E500022B1460D360103FA06F6314300F0004672
:102E6000B6F1004F02D1034EF16101E0014E7160F5
:102E7000F0BD0000000001400246002093680B40B6
:102E80000BB1012000E000207047416170470161F3
:102E9000704700002DE9FF4F85B082468B461446EF
:102EA000202C01DB7E2C02DD09B0BDE8F08FA4F1FF
:102EB0002000C4B2139D00263BE004EB84001F49B0
:102EC0000844805D029006FB05A080B204900027B4
:102ED0002BE007FB05B080B203900120B8400299B7
:102EE000084008B1089800E0129801904FF00008DF
:102EF00017E00498404480B200904FF000090AE0C7
:102F00000398484481B2DDE9000200F019F809F1A4
:102F1000010000F0FF09A945F2DB08F1010000F013
:102F2000FF08A845E5DB781CC7B2082FD1DB701C71
:102F3000C6B2052EC1DB00BFB6E70000744700082B
:102F400070B504460D461646B4F5A07F01DAF02DA3
:102F500000DB70BD2B4622462946204600F0A2F930
:102F600002210948FFF791FF01210748FFF78FFF72
:102F7000301200F021FDF0B200F01EFD02210248E7
:102F8000FFF785FF00BFE4E7000801402DE9F047A7
:102F900004460D4616461F46DDF820802A2000F024
:102FA00059F9200A00F06AF9E0B200F067F9A119B6
:102FB000491EC1F3072000F061F9A119491EC8B2EA
:102FC00000F05CF92B2000F045F9280A00F056F9D2
:102FD000E8B200F053F9E919491EC1F3072000F0E7
:102FE0004DF9E919491EC8B200F048F92C2000F04B
:102FF00031F906FB07FA02210D48FFF746FF0121D0
:103000000B48FFF744FF4FF0000909E04FEA282082
:1030100000F0D2FC08F0FF0000F0CEFC09F101093D
:10302000D145F3D302210248FFF731FFBDE8F08715
:10303000000801402DE9FC4705460F461446984616
:10304000DDE90A960CE0CDE9009622784346394640
:103050002846FFF71FFF062000FB065085B2641CC0
:1030600020780028EFD1BDE8FC87000070B5044649
:103070004FF49636EF2340F23F120021084600F04D
:1030800011F902210B48FFF700FF01210948FFF762
:10309000FEFE002506E0201200F08EFCE0B200F0FB
:1030A0008BFC6D1CB542F6D302210248FFF7EFFE00
:1030B00070BD00000008014010B500F0B3F8112009
:1030C00000F0C8F8782000F0BFFDC02000F0C2F882
:1030D000232000F0D3F8C12000F0BCF8102000F04D
:1030E000CDF8C52000F0B6F83E2000F0C7F8282043
:1030F00000F0C4F8C72000F0ADF8862000F0BEF85C
:10310000362000F0A7F8E82000F0B8F83A2000F0E8
:10311000A1F8552000F0B2F8B12000F09BF8002093
:1031200000F0ACF8182000F0A9F8B62000F092F8F2
:10313000082000F0A3F8822000F0A0F8272000F07B
:103140009DF8F22000F086F8002000F097F8262085
:1031500000F080F8012000F091F8E02000F07AF80B
:103160000F2000F08BF8312000F088F82B2000F0C1
:1031700085F80C2000F082F80E2000F07FF808207F
:1031800000F07CF84E2000F079F8F12000F076F89D
:10319000372000F073F8072000F070F8102000F0DE
:1031A0006DF8032000F06AF80E2000F067F809209F
:1031B00000F064F8002000F061F8E12000F04AF827
:1031C000002000F05BF80E2000F058F8142000F00A
:1031D00055F8032000F052F8112000F04FF80720B6
:1031E00000F04CF8312000F049F8C12000F046F81A
:1031F000482000F043F8082000F040F80F2000F0CD
:103200003DF80C2000F03AF8312000F037F8362075
:1032100000F034F80F2000F031F8292000F01AF8FF
:1032200010BD000010B501210948FFF72EFE0A204D
:1032300000F00AFD01210648FFF729FE782000F082
:1032400003FD012000F006F8052000F0FDFC10BD94
:10325000000C014010B5044602210748FFF715FE97
:1032600001210548FFF711FE204600F0A5FB0221D1
:103270000148FFF70CFE10BD0008014010B50446E0
:1032800002210748FFF701FE01210548FFF7FFFD76
:10329000204600F091FB02210148FFF7F8FD10BD28
:1032A000000801402DE9F04104460D4616461F4630
:1032B0002A20FFF7CFFF2012FFF7E0FFE0B2FFF771
:1032C000DDFF3012FFF7DAFFF0B2FFF7D7FF2B2058
:1032D000FFF7C0FF2812FFF7D1FFE8B2FFF7CEFFDC
:1032E0003812FFF7CBFFF8B2FFF7C8FF2C20FFF72B
:1032F000B1FFBDE8F081000070B5002100230F226E
:10330000C47804B3154C246804F4E064C4F5E064A4
:10331000210AC1F10403CA40447804FA03F1847815
:103320001440214309010E4C0678A155047804F09D
:103330001F050124AC4005786D11AD0005F1E025B5
:10334000C5F8004109E0047804F01F050124AC40F1
:10335000044D0678761145F8264070BD0CED00E06E
:1033600000E400E080E100E029B1064A526902432E
:10337000044B5A6104E0034A52698243014B5A618B
:10338000704700000010024029B1064AD26902438A
:10339000044BDA6104E0034AD2698243014BDA61EB
:1033A000704700000010024029B1064A92690243AA
:1033B000044B9A6104E0034A92698243014B9A618B
:1033C000704700000010024010B51E48806940F0B0
:1033D00001001C49886101211B48FFF705FD4FF4DE
:1033E000803000F0CFF800BF312000F099F80028BD
:1033F000FAD00220FFF760FC1020FFF74FFC4FF4DB
:10340000E0114FF4803000F001F9012000F0F8F8ED
:1034100000BF392000F084F80028FAD0002000F026
:10342000A5F84FF4806000F0D3F8002000F0DCF83D
:10343000022000F0F9F800BF00F090F80828FBD156
:1034400010BD0000001002400002300030B5002125
:103450000022002400232D4D6D6805F00C0121B1E0
:10346000042905D0082923D105E0294D056022E073
:10347000274D05601FE0254D6D6805F47012234D42
:103480006D6805F48034022505EB92421CB9214D8C
:10349000554305600BE01D4D6D6805F400351DB109
:1034A0001C4D5543056002E0194D5543056002E08F
:1034B000174D056000BF00BF144D6D6805F0F001A9
:1034C0000909154D6B5C0568DD4045600F4D6D6861
:1034D00005F4E061090A104D6B5C4568DD408560CC
:1034E0000A4D6D6805F46051C90A0B4D6B5C456867
:1034F000DD40C560054D6D6805F44041890B074D01
:103500006B5CC568B5FBF3F5056130BD001002408A
:1035100000127A0000093D001A0000202A00002055
:1035200010B501460022002300204A11012A02D1D1
:10353000094C236806E0022A02D1074C236A01E005
:10354000054C636A01F01F02012494401C400CB139
:10355000012000E0002010BD001002400248406839
:1035600000F00C00704700000010024001460020EF
:10357000034A506820F0F000084350607047000094
:10358000001002401149096821F480310F4A11608E
:103590001146096821F480211160B0F5803F03D005
:1035A000B0F5802F0ED106E00849096841F480315A
:1035B000064A116007E00549096841F4A021034A61
:1035C000116000E000BF00BF704700000010024023
:1035D00001460020034A506820F4E0600843506030
:1035E000704700000010024001460020034A506866
:1035F00020F4605040EAC100506070470010024063
:10360000014908667047000000004242024600205F
:10361000044B586820F47C1042EA01031843014B24
:10362000586070470010024001460020034A50686D
:1036300020F0030008435060704700000010024073
:103640000EB54EE027480078012841D12648007881
:1036500044283DD105212448401C00F041FE234967
:1036600008610A212048801D00F03AFE1F49486188
:1036700005211D48103000F033FE1C4988610521EA
:103680001948153000F02CFE1849C8611648807E94
:1036900081F820000020134908701448407A01285E
:1036A00010D11248806911494969104A1269CDE95F
:1036B000002102900D48B0F90630C26941780CA093
:1036C00000F0D0FD022010490870104800F0E4FF1F
:1036D0000F480078012802D100200D49087000F041
:1036E000E9FFAFE71400002040260020F825002065
:1036F00025642C25642C302C25642C25642C256411
:103700002C302C25640A0000110000200C00002041
:103710001500002021B1028842F04002028004E03E
:1037200002884FF6BF731A40028070471AB183882F
:103730000B43838002E083888B438380704702467B
:10374000002013890B400BB1012000E000207047DE
:103750000146888970478181704710B50022028830
:1037600002F441520B884C8823438C882343CC8835
:1037700023430C8923434C8923438C892343CC89DD
:1037800023431A430280838B4FF2FF7423408383C9
:103790000B8A038210BD10B500F002F810BD0000C6
:1037A0000CB50020019000903348006840F4803050
:1037B0003149086000BF3048006800F400300090D4
:1037C0000198401C0190009818B90198B0F5A06FBD
:1037D000F1D12948006800F4003010B101200090B8
:1037E00001E0002000900098012843D123480068A0
:1037F00040F01000214908600846006820F00700EA
:1038000008600846006840F0020008601A484068F6
:10381000194948600846406848600846406840F4D6
:10382000806048600846406820F47C104860084684
:10383000406840F4E81048600846006840F0807036
:10384000086000BF0C48006800F000700028F9D044
:103850000948406820F0030007494860084640686E
:1038600040F00200486000BF0348406800F00C00D0
:103870000828F9D10CBD00000010024000200240D1
:1038800000210170417201720121C18081800021FB
:103890004170022181700021C1708172C172017377
:1038A000012141737047000000B591B0012141F240
:1038B0000C00FFF779FD01210846FFF755FDE020D8
:1038C000ADF8400018208DF8430003208DF8420029
:1038D00010A93548FFF7FCF90320ADF8400010208F
:1038E0008DF8430003208DF8420010A92E48FFF701
:1038F000EFF90120ADF8400010208DF843000320BF
:103900008DF8420010A92948FFF7E2F90020ADF830
:103910002C004FF48270ADF82E000020ADF830007E
:10392000ADF83200ADF834004FF40070ADF8360059
:103930000820ADF838000020ADF83A000720ADF8B7
:103940003C000BA91A48FFF708FF01211848FFF7B0
:10395000E1FE03211448FFF79AFA01211348FFF70B
:1039600096FA1448FEF760FB11480C3000900020D6
:103970000190102002900020039004908020059078
:1039800000200690079008904FF400500990002006
:103990000A9069460748FEF7EDFB01220221044820
:1039A000FFF7C4FE11B000BD00080140000C01404B
:1039B000003001403000024010B5044600BF022133
:1039C0000A48FFF7BCFE0028F9D021460748FFF758
:1039D000C2FE00BF01210548FFF7B1FE0028F9D063
:1039E0000248FFF7B5FEC0B210BD00000030014034
:1039F0000348006840F080500149086070470000AB
:103A000004ED00E010B51348006840F001001149D2
:103A1000086008464068104908400E49486008465A
:103A200000680E4908400B4908600846006820F409
:103A3000802008600846406820F4FE0048604FF48B
:103A40001F008860FFF7A7FE4FF000600449086080
:103A500010BD0000001002400000FFF8FFFFF6FE5E
:103A600008ED00E010B50121880700F034F8E8B156
:103A70000121880700F020F8002013E000EB40014E
:103A80000B4A02EB8101896859B100EB400102EB5E
:103A900081018968491E00EB4002054B03EB82025D
:103AA0009160401C034909688842E7D310BD0000BB
:103AB0003000002008000020CA430282704721B174
:103AC000028842F00102028004E002884FF6FE7391
:103AD0001A400280704730B50246002000230024BF
:103AE000158A05EA0103958905EA010413B10CB1B1
:103AF000012000E0002030BD1AB183890B4383818F
:103B000002E083898B438381704700000022028892
:103B10001D4B98420ED01D4B98420BD0B0F1804FF8
:103B200008D01B4B984205D01A4B984202D01A4B32
:103B3000984204D14FF68F731A404B881A43174BA3
:103B4000984207D0164B984204D04FF6FF431A40D4
:103B5000CB881A4302808B8883850B8803850A4BA8
:103B600098420BD0094B984208D00E4B984205D092
:103B70000D4B984202D00D4B984201D10B7A03862F
:103B80000123838270470000002C01400034014073
:103B90000004004000080040000C004000100040FD
:103BA0000014004000400140004401400048014032
:103BB00030B5034601B112B94FF0FF3030BD541E8D
:103BC00060B20BE00A2493FBF4F504FB15343034A7
:103BD0000C540A2493FBF4F3441E60B20028F1DA7B
:103BE000002088540120E9E71FB501210846FFF7AE
:103BF000CBFB41F61F40ADF804000020ADF80600F5
:103C00006320ADF808000020ADF80A008DF80C0024
:103C100001A94FF08040FFF779FF0122114690077C
:103C2000FFF76AFF01218807FFF749FF1C208DF885
:103C3000000001208DF801008DF802008DF80300CE
:103C40006846FFF759FB1FBD00B5034603E04FF47C
:103C50007A7000F007F8181EA3F101018BB2F6D1BB
:103C600000BD00000021044A118000BF02490988FC
:103C70008142FBDB70470000240400400EB50121A7
:103C80000220FFF781FB4720ADF800000020ADF8CF
:103C900002004FF6FF70ADF804000020ADF80600FA
:103CA0008DF8080069460448FFF730FF01210248FB
:103CB000FFF705FF0EBD0000000400408AB04CE095
:103CC000264800F093FB2648007B012803D125A05D
:103CD00000F03CFA0DE02248007B022803D126A028
:103CE00000F034FA05E01E48007B10B927A000F070
:103CF0002DFA1B48007801282CD11948C08810B132
:103D00001748808818B902202549087022E0144914
:103D1000B1F90600042208A9FFF74AFF1049B1F9DA
:103D20000400042206A9FFF743FF0D4991F90B0097
:103D3000042204A9FFF73CFF04A90948407B06AA16
:103D4000CDE9002002910648C278417808AB15A061
:103D500000F0FCF900F0AEFC00BFB1E7100000205D
:103D6000F82500205555555555555555555555551A
:103D700055555555000000004444444444444444CF
:103D800044444444444444440000000054545454C3
:103D90005454545454545454545454540000000033
:103DA000110000205325642564257325732564259F
:103DB0007300000010B540F22551134800F086F85A
:103DC00000B3114800F03EF9C4B2104800781B2837
:103DD00008DA0F480D49097844540C480078401C13
:103DE0000A490870094800781B2805DB01200949A9
:103DF000087000200549087040F22551024800F083
:103E00003DF800BF10BD0000003801401200002046
:103E1000402600201400002010B540F22551134820
:103E200000F054F800B3114800F00CF9C4B2104887
:103E300000780F2808DA0F480D49097844540C48D7
:103E40000078401C0A490870094800780F2805DBF3
:103E500001200949087000200549087040F22551E9
:103E6000024800F00BF800BF10BD00000048004001
:103E7000130000205B2600201500002010B5002252
:103E8000002340F66A14A14200D100BF0A120124A7
:103E90009440A3B2DC43048010BD21B1828942F476
:103EA0000052828104E082894DF6FF731A408281BC
:103EB000704702460020B1F5007F00D100BF138893
:103EC0000B400BB1012000E00020704770B50246A6
:103ED000002400230025002040F66A16B14200D1DC
:103EE00000BFC1F3421501F01F03012606FA03F3D8
:103EF000012D02D19689334006E0022D02D1168AA7
:103F0000334001E0968A33400C12012606FA04F48D
:103F10001688344013B10CB1012000E0002070BDC0
:103F2000F0B50346002400260025002040F66A175D
:103F3000B94200D100BF1846C1F3421401F01F0678
:103F4000012707FA06F5012C01D10C3004E0022C00
:103F500001D1103000E014301AB107682F43076018
:103F600002E00768AF430760F0BD00002DE9F047AD
:103F700086B005460E460024A24600BFA146002793
:103F8000B08900B100BF2F462C8A4CF6FF70044068
:103F9000F08804432C82AC894EF6F3100440B088BC
:103FA00031890843718908430443AC81AC8A4FF6D8
:103FB000FF400440B0890443AC8201A8FFF746FAF1
:103FC0001F48874202D1DDF810A001E0DDF80CA007
:103FD000A88900F4004040B10AEBCA0000EB0A10C7
:103FE00031684900B0FBF1F807E00AEBCA0000EBCA
:103FF0000A1031688900B0FBF1F86420B8FBF0F0DA
:1040000004012009642101FB1089A88900F4004003
:1040100040B1322000EBC900B0FBF1F000F0070026
:10402000044308E0322000EB09106421B0FBF1F0FA
:1040300000F00F0004432C8106B0BDE8F0870000BB
:104040000038014001468888C0F308007047C1F37A
:10405000080282807047000008B501210420FFF7A4
:10406000A3F94FF40070ADF8000003208DF80200B2
:1040700018208DF8030069460748FEF729FE4FF423
:104080008060ADF8000004208DF803006946024806
:10409000FEF71EFE08BD00000008014000B585B017
:1040A00001218803FFF780F9FFF7D6FF4FF4E130D5
:1040B00001900020ADF80800ADF80A00ADF80C0042
:1040C0000C20ADF80E000020ADF8100001A90F483B
:1040D000FFF74CFF012240F225510C48FFF720FF6B
:1040E00025208DF8000003208DF8010000208DF8B8
:1040F000020001208DF803006846FFF7FDF801215A
:104100000248FFF7CAFE05B000BD000000380140BC
:1041100010B5044600BF80210448FFF7CAFE0028FE
:10412000F9D021460148FFF792FF10BD0038014049
:1041300010B5044604B910BD03E014F8010BFFF7F5
:10414000E7FF20780028F8D100BFF4E70FB400B5EE
:10415000C1B043A80090FF2101A8009B429AFCF740
:10416000D1F80020009001A8FFF7E2FF41B05DF810
:1041700014FB000000B587B001210820FFF714F9F7
:1041800001218804FFF700F901210846FFF70CF927
:104190004FF48060ADF8180003208DF81A00182045
:1041A0008DF81B0006A91E48FEF792FD4FF4006033
:1041B000ADF8180004208DF81B0006A91848FEF77A
:1041C00087FD4FF4E13002900020ADF80C00ADF80F
:1041D0000E00ADF810000C20ADF812000020ADF874
:1041E000140002A90F48FFF7C1FE012240F2255139
:1041F0000C48FFF795FE27208DF8040003208DF86A
:10420000050000208DF8060001208DF8070001A8A8
:10421000FFF772F801210348FFF73FFE07B000BD2A
:10422000000C01400048004010B5044600BF80214A
:104230000448FFF73EFE0028F9D021460148FFF769
:1042400006FF10BD0048004010B5044604B910BD7B
:1042500003E014F8010BFFF7E7FF20780028F8D1FE
:1042600000BFF4E70FB400B5C1B043A80090FF2130
:1042700001A8009B429AFCF745F80020009001A895
:10428000FFF7E2FF41B05DF814FB490050EAC1209E
:1042900018BF04204A0D18BF40F0010040F2FF7221
:1042A000B2EB515F08BF40F00200012808BF0520B3
:1042B000704730380A2801D201207047002070472B
:1042C00001882331018070470188491C01807047B3
:1042D0000188491E01807047018823390180704799
:1042E00030B502460B46002400210FE0505C302818
:1042F00002DB505C392802DD4FF0FF3030BD505CEE
:10430000303804EB840500EB4504491C9942EDDB91
:104310002046F3E72848FFF7B3FAFFF755F8FFF711
:1043200063FCFFF7ABFCFFF7B9FEFFF723FFFDF7D8
:10433000B1FC00F0D9F9FFF7B7FAFEF773FFFEF70B
:10434000BBFE01201D49087001211D4800F0AFF996
:1043500000211C4800F0ABF900211B4800F0A7F930
:1043600000211A4800F0A3F90021194800F09FF934
:1043700000F0AAF8174800F049F8174800F046F88E
:10438000164800F043F8164800F040F8012000F00D
:10439000A3F810E04FF480711248FEF76DFD28B9C4
:1043A0004FF400511048FEF772FD04E04FF4005145
:1043B0000D48FEF76AFDEDE7F8250020110000200A
:1043C0000C0000200D0000200E0000200F00002037
:1043D00010000020C11C0008B1210008BD3C0008ED
:1043E00041360008000C01400010014000B50246B3
:1043F00072B603E062B600F05DF972B6107800287C
:10440000F8DD1078401E107062B600BD10B504468D
:1044100072B62948006800F09BF82748006800EB56
:10442000C00101EB0010254901EB8010C0F83846AF
:104430002148006878B92048006800EB4000204916
:1044400001EB80001C49096801EB41011C4A02EBA9
:104450008101486017E01848006800EB40001849E7
:1044600001EB800114480068401E00EB4000144A34
:1044700002EB8000416010460F49096801EB4101E1
:1044800002EB810148600E480E4908600A48006846
:10449000401C09490860002007E0002100EB4002B1
:1044A000074B03EB82029160401C03490968884274
:1044B000F3D362B6012010BD080000207800002070
:1044C00030000020040000200148024908607047C5
:1044D000401901000000002070B5044600204FF094
:1044E000E021086188611749096804FB01F0401E5A
:1044F0004FF0E021486148170021002804DB0A073B
:10450000130E114A135406E00A07150E0F4A00F065
:104510000F031B1FD55400BF4FF0E020006940F08F
:1045200004004FF0E02108610846006940F00100F6
:1045300008610846006940F002000861FBF77AFE56
:1045400070BD00000000002000E400E018ED00E075
:1045500000EBC00101EB0011434A02EB811101F5B0
:10456000C06100EB4002414B43F822104FF08071D4
:1045700000EBC00202EB00123B4B03EB8212C2F8CD
:104580003C164FF0AA3100EBC00202EB001203EB25
:104590008212C2F8341600EBC00202EB001203EBE9
:1045A0008212C2F8301600EBC00202EB001203EBDD
:1045B0008212C2F82C1600EBC00202EB001203EBD1
:1045C0008212C2F8281600EBC00202EB001203EBC5
:1045D0008212C2F8241600EBC00202EB001203EBB9
:1045E0008212C2F8201600EBC00202EB001203EBAD
:1045F0008212C2F81C1600EBC00202EB001203EBA1
:104600008212C2F8181600EBC00202EB001203EB94
:104610008212C2F8141600EBC00202EB001203EB88
:104620008212C2F8101600EBC00202EB001203EB7C
:104630008212C2F80C1600EBC00202EB001203EB70
:104640008212C2F8081600EBC00202EB001203EB64
:104650008212C2F8041600EBC00202EB001203EB58
:104660008212C2F800167047780000203000002047
:104670000848006840680749086004E00548006889
:104680004068044908600348006880680028F5D144
:10469000704700000400002072B60178491C0170C8
:1046A0000178012901DD0121017062B670470170B6
:1046B0007047000000204FF0E02188610348006847
:1046C00040F08060014908607047000004ED00E0A0
:1046D00000B5024672B603480068826062B6FFF712
:1046E000E9FF00BD0400002008B501211020FEF7FD
:1046F0005BFE10208DF8030003208DF802004FF4BC
:104700000050ADF8000069460148FEF7E1FA08BD27
:104710000010014010B500290AD00878002807D001
:1047200005487844FCF7A6FE002801D0002010BD03
:104730000248784410BD0000920300008A03000084
:1047400010B500290AD00878002807D00548784419
:10475000FCF790FE002801D0002010BD02487844EC
:1047600010BD0000820300007A030000FCF790BA3D
:10477000FCF7C4BB000000000000005F0000000761
:10478000000700147F147F14242A7F2A12231308A1
:10479000646236495522500005030000001C224186
:1047A000000041221C0014083E081408083E0808B6
:1047B0000050300000080808080800606000002071
:1047C000100804023E5149453E00427F40004261CC
:1047D00051494622494949361814127F1027454548
:1047E00045393C4A4949300171090503364949496F
:1047F00036064949291E00363600000056360000AC
:104800000814224100141414141400412214080244
:10481000015109063E415D551E7E0909097E7F4909
:104820004949363E414141227F4141221C7F49494D
:1048300049417F090909013E4149497A7F08080831
:104840007F00417F41002040413F017F0814224109
:104850007F404040407F020C027F7F0608307F3E51
:104860004141413E7F090909063E4151215E7F09D0
:10487000192946264949493201017F01013F40403B
:10488000403F1F2040201F3F4038403F6314081422
:1048900063070870080761514945430000000000A4
:1048A0000000000000000000000000000000000008
:1048B0000000000000000000000020545478007F39
:1048C0004844380038444428003844487F0038546D
:1048D000540800087E0902000854543C007F080474
:1048E0007800007D0000002040403D007F102844FB
:1048F000003F404000007C041804007C080478005D
:1049000038444438007C141408000814147C007CDB
:10491000080408004854542400043F4420003C404C
:10492000407C001C20403C003C40304000442810AB
:1049300028000C50503C004464544C007D01A002FF
:10494000C3030000007D0000D942000802370000C8
:10495000D942000803370000D942000800C3000014
:10496000C142000802A00000C1420008037D00000F
:10497000C1420008027D0000C942000802C30000D5
:10498000C9420008027D0000D142000802C30000B5
:10499000D1420008040000080000000000000002EE
:1049A00000010000100000000000000000000000F6
:1049B0003031323334353637383941424344454655
:1049C000403058003031323334353637383961624F
:1049D00063646566403078003031323334353637C1
:1049E000383961626364656678700030313233341F
:1049F0003536373839414243444546585000000067
:104A000002400000000000A000000000054000007F
:104A1000000000C8000000000C4000000000409CA6
:104A200000000000194000000020BCBE0000000093
:104A300034400000BFC91B8E00000004B5400000D8
:104A4000504BCFD06607E2CF010000006C41000060
:104A50003E8251AADFEEA73401000000D9420000D7
:104A6000DCB5A0E23A301F97FFFFFFFFB44500001E
:104A7000FD25A0C8E9A3C14FFFFFFFFFFF3F0000D6
:104A80000000008000000000FF3F000000000080E8
:104A900000000000E04B0008000000203000000093
:104AA00028010008104C000830000020C02C000035
:104AB000440100081C00000043000000F8FFFFFF55
:104AC0000C0000000E0000000F0000002E0000008F
:104AD0001001000043000000F8FFFFFF00404040CD
:104AE00040404040404041414141414040404040C1
:104AF000404040404040404040404040400502026D
:104B0000020202020202020202020202022020202B
:104B10002020202020202002020202020202909087
:104B20009090909010101010101010101010101085
:104B300010101010101010100202020202028888D9
:104B400088888888080808080808080808080808E5
:104B500008080808080808080202020240000000CD
:104B60000000000000000000000000000000000045
:104B70000000000000000000000000000000000035
:104B80000000000000000000000000000000000025
:104B90000000000000000000000000000000000015
:104BA0000000000000000000000000000000000005
:104BB00000000000000000000000000000000000F5
:104BC00000000000000000000000000000000000E5
:104BD00000000000000000000000000000000000D5
:104BE00000000000000000000000000000000000C5
:104BF0000000000000001400C300000000000102DB
:104C00000304010203040607080902040608000061
:04000005080000ED02
:00000001FF
