:020000040800F2
:10000000E03200207D020008850200088702000817
:10001000890200088B0200088D0200080000000021
:100020000000000000000000000000008F02000837
:10003000910200080000000053020008FD30000893
:10004000970200089702000897020008970200082C
:10005000970200089702000897020008970200081C
:10006000970200089702000897020008970200080C
:1000700097020008970200089702000897020008FC
:1000800097020008970200089702000897020008EC
:1000900097020008970200089702000897020008DC
:1000A00097020008970200089702000897020008CC
:1000B000E131000897020008970200089702000843
:1000C00097020008970200089702000897020008AC
:1000D00097020008153800089702000897020008E8
:1000E00097020008970200089702000800F002F843
:1000F00000F090F80AA090E8000C82448344AAF132
:100100000107DA4501D100F085F8AFF2090EBAE82F
:100110000F0013F0010F18BFFB1A43F0010318473B
:100120006451000084510000103A24BF78C878C19F
:10013000FAD8520724BF30C830C144BF04680C60ED
:10014000704700000023002400250026103A28BF35
:1001500078C1FBD8520728BF30C148BF0B60704739
:100160006E2900F08382702900F0CD83662905F0A6
:100170000680652905F00380672905F00080612964
:1001800004F0FF8703681B0A28BF41F0800169293A
:1001900000F0AE80642900F0AB80752900F0A880E3
:1001A0006F2900F05A83782900F09983E92900F03B
:1001B000F582E42900F0F282F52900F0EF82EF29C0
:1001C00000F05783F82900F098830368DB0928BF03
:1001D00041F08001632900F07D87732900F0828758
:1001E000E32900F08D87F32900F092870020704703
:1001F0001FB500F0DFFF04000020002103F0A2FF84
:10020000401C60600020002103F086FFE0601FBDFD
:1002100010B510BD00F0A0FF1146FFF7E9FF03F095
:1002200043FD01F07DF803B4FFF7F2FF03BC01F0DA
:10023000C5F8000010480268D2F800D0BDE8F00F01
:100240000FBC5DF804CB01B05DF804EB01B062B601
:10025000704772B62DE9F00F07480168C1F800D069
:1002600001B503F0EBFEBDE801400168D1F800D014
:10027000BDE8F00F62B670470400002009488047CF
:1002800009480047FEE7FEE7FEE7FEE7FEE7FEE778
:10029000FEE7FEE7FEE7FEE704480549054A064B90
:1002A0007047000011310008ED000008E02C00202C
:1002B000E0320020E02E0020E02E00207CB51D461C
:1002C00016460C00009001D02044401E074B7B4492
:1002D0002A4669460190304600F0E1F905461CB116
:1002E0000020694600F0EEF928467CBDFD030000C1
:1002F0002DE9F0410646002410687529314616A5FF
:1003000010D000F01FF9002802DA404213A507E0E0
:1003100031688A0701D512A502E0490704D511A565
:10032000012401E000F017F900210A2206F1240758
:1003300009E0B0FBF2FCB0FBF2F302FB1C00303032
:1003400078541846491C0028F3D123462A463046E3
:10035000BDE8F04100F031B9000000002D000000C0
:100360002B000000200000002DE9F05F89460446C4
:100370004FF0000ADFF874B1FB44C0F820A020461B
:10038000E1688847002874D0252806D0D4E90121E7
:100390009047206A401C2062F1E700265F46204615
:1003A000E16888472028054607DB312D05D27819FA
:1003B00010F8200C08B10643F1E7B00701D526F08C
:1003C0000406C4F81CA00027C4F818A02A2D09D0E0
:1003D000284603F0E2FB38B304EB8708303DC8F849
:1003E000185019E059F8041B204604EB870291616C
:1003F000E1688847012F054618D1E069002820DA16
:1004000026F020061DE0D8F8180000EB800005EB70
:1004100040003038C8F818002046E1688847054693
:1004200003F0BBFB0028EED1012F0AD02E2D08D1FE
:100430002046E16888477F1C0546022F46F02006CB
:10044000C4DBA069002803DA404246F00106A0613F
:10045000F00701D026F010066C2D0BD0682D09D0C6
:100460004C2D39D06A2D35D0742D35D07A2D33D01E
:1004700016E038E0E1682F4620468847B842054636
:1004800009D16C2F26D04FF48060E16806432046E6
:100490008847054604E06C2F1AD04FF4807006435D
:1004A0000DB3A5F14100192802D8203546F40066A5
:1004B0004A462946204626604E46FFF751FE80B147
:1004C00001280BD0F61D26F0070000F1080956E7B9
:1004D0004020E4E78020D8E70020D6E706F10409B1
:1004E0004DE7284652E7206ABDE8F09F0A4E00001B
:1004F00070477047704770B5044685690068C1064B
:1005000001D5302600E02026C00707D070BDD4E911
:10051000012130469047206A401C20626D1EF6D5AE
:1005200070BD70B5044685690078C00707D170BDFD
:10053000D4E9012120209047206A401C20626D1ED2
:10054000F6D570BD09684A0501D540B27047C905A6
:10055000FCD500B2704709684A0501D5C0B27047A2
:10056000C905FCD580B2704770B50C460546012A16
:1005700005D02878800600D5EA69002302E001232F
:1005800005E05B1C934202D2E05C0028F9D1A86927
:10059000E618C01AA861286A184428622846FFF79E
:1005A000AAFF04E0D5E9012114F8010B9047B442F9
:1005B000F8D32846FFF7B5FF70BD2DE9F0470D468B
:1005C00099469246044600F124080168880604D53D
:1005D000E06921F01001216000E00120A84201DD66
:1005E000471B00E00027A1697A1902EB0900081AED
:1005F000A0612078C00602D42046FFF77CFF0026C9
:1006000008E0D4E901211AF806009047206A401C4E
:10061000761C20624E45F4DB2078C0060AD52046C1
:10062000FFF769FF06E0D4E9012130209047206AF6
:10063000401C2062381EA7F10107F4DC07E0D4E972
:10064000012118F805009047206A401C2062281EEE
:10065000A5F10105F3DC2046FFF763FF20780006D3
:1006600002D50220BDE8F0870120FBE7116802688F
:10067000006A530501D508700AE0D30501D508804A
:1006800006E0130603D5C217C1E9000200E00860C6
:100690000120704701694A1C02610878704700B563
:1006A0008FB0CDE901310021059105497944CDE9AB
:1006B000031011466846FFF757FE0FB000BD00005B
:1006C000E5FFFFFF0A6802F8010B0A607047D1E9F5
:1006D00000239A4202D2531C0B6010707047000036
:1006E0002DE9FF5F15468A460446DFF8AC80F844E2
:1006F0000027D8E900103E46CDE9001010E03AF896
:1007000016106A4602A800F007FD411C07D02178A8
:10071000890603D5E269391891420DD80744761C41
:100720002078800602D5E069B84205DDAE42E6DBFE
:100730003AF816000028E2D1A069C01BA06120464B
:10074000FFF7D9FED8E90010CDE90010002017E02E
:100750003AF818106A4602A800F0DEFCB0F1FF3F3C
:1007600081460BD000250DF1080B05E0D4E90121ED
:100770001BF8050090476D1C4D45F7D308F10100AB
:10078000B0428046E4DB206A384420622046FFF70E
:10079000C8FEBDE8FF9F0000A64A00002DE9F04119
:1007A0008046D21D22F007020025D2E90002F52979
:1007B00015A614D0011E72F1000106DA0023D0EB59
:1007C000030063EB020211A608E0D8F800108B07C3
:1007D00001D50FA602E0490701D50EA60125114655
:1007E000002408F1240704E000F098F830323A556C
:1007F000641C50EA0102F7D12B463246214640469E
:10080000BDE8F041FFF7D9BE000000002D00000058
:100810002B0000002000000030B4002100F124046F
:1008200008E002F00705D208303542EA4372DB08DF
:100830006554491C52EA0305F3D10468002310A251
:10084000250707D5A40600D421B1C46901230DA250
:10085000641EC46130BCFFF7B0BE10B5044621462B
:100860001068FFF778FE02462046BDE810400023DE
:10087000D2E7D21D22F00701D1E90023CCE7000026
:100880000000000030000000F0B40D4601880905AA
:1008900002D5214C7C4402E01F4C7C440E340021E4
:1008A00000F1240608E002F00F071209E75D42EAB2
:1008B00003721B097754491C52EA0307F3D10278EB
:1008C0000023120704D5702D06D009B1022311347C
:1008D0002246F0BCFFF771BE01231034F8E770B573
:1008E00004460D4621461068FFF735FE02462946AC
:1008F0002046BDE870400023C6E7D21D22F0070362
:10090000D3E90023C0E70368126843F020030360C3
:100910000823C3610023B7E70849000030B5B0F1F0
:100920000A024FEA900E71F100034EEA817EB0EBAD
:100930000E0061EB91014FEA101E4EEA017E10EBB2
:100940000E0041EB11114FEA102E4EEA016E10EB32
:100950000E0041EB11214FEA104E4EEA014E10EB12
:100960000E0041EB1141401841F100014FEAD00067
:1009700040EA41704FEAD10110EB80054FEA810453
:1009800044EA907444EB01046D1944EB0404521BD7
:10099000A3414FF0000348BF0A3200D530BD401CD0
:1009A00041F1000130BD70472DE9FF4F0C461E4656
:1009B0004FF0FF378BB0D2E90001DDF860800A907C
:1009C0008A46C1F30A5505B93D46002108464FF055
:1009D0000000BAF1000F00F4400005DA00EB8000DF
:1009E0004FF4400101EA50004FEA9059B9F1010F6C
:1009F00000DDB9460A9850EA4A000ED044F610507D
:100A0000A5F2FF3545432F14B8F1000F1ED07542F3
:100A1000291E1EDDC9F100021CE0B8F1010F4FF0E4
:100A2000000001D0302103E0F24305E02154401CD6
:100A3000B042FBDB30460022002121540B99C1F863
:100A40000880C1E900200FB0BDE8F08FBD1B6D1C10
:100A5000DEE74A4600DA694206A800F0EFFB06AB83
:100A600093E8070003AB83E8070050460A9900F0BB
:100A7000ACFC8DE80700A0F500501F3800900398EB
:100A8000002D0ADD42F21F014A460844002303A953
:100A90000390684600F015FF09E0A0F500504A46B3
:100AA0001F38002303A90390684600F01FFF8DE85C
:100AB00007000004000C03D04FF0FF30410800E0B5
:100AC0001046B8F1000F03D00022009215461EE038
:100AD000751E05D4FFF722FF303262556D1EF9D521
:100AE000B3460122084302D000227F1C04E0207894
:100AF000302801D100227F1E002A099784D01DE0F2
:100B0000112D07DAFFF70AFF303262556D1C50EAEB
:100B10000102F5D1084302D00098C8B10EE00021CF
:100B2000681E05E0235C625C63542254401E491C2D
:100B30008142F7DBAB46A81B401E0990002004F859
:100B40000B000B98099AC0F80880C0E9002B7AE7DF
:100B500011264FF0000857E72DE9F04F884604466C
:100B6000D21D22F0070191B0D1E90001CDE90A01BF
:100B700002F0FFFF02460B98C00F01D02D2007E0C6
:100B80002068810701D52B2002E0202101EAC00066
:100B9000032A099001D0072A05DB03464146204677
:100BA00000F00CFB0BE12078800601D5E06900E045
:100BB0000620B8F1650F814606D0B8F1660F18D04F
:100BC000B8F1670F70D131E00020B9F1110F00903A
:100BD00001DB112301E009F101030AAA01A90CA814
:100BE000FFF7E2FEDDE90C70002609F101058346FE
:100BF00047E001204B4600904FF000470AAA01A9A8
:100C00000CA8FFF7D1FEDDE90DB00C995D4600267A
:100C100010B909F101000D18B9EB050003D4C0F1BA
:100C2000FF3609F10105A5EB09002BE0B9F1010F31
:100C300001DA4FF001090020B9F1110F0090484688
:100C400001DD112300E003460AAA01A90CA8FFF761
:100C5000ABFEDDE90C704D46002683462078000788
:100C60000AD4AB4500DA5D4601A8012D04DD411927
:100C700011F8011C302907D04F4502DA17F1040F93
:100C800004DA012082460FE06D1EEEE7002F02DC41
:100C9000ED1B3E4403E0781CA84200DD7D1CB81B20
:100CA00000F1010A4FF000472078000703D4AA455D
:100CB00001DB4FF0FF3A0021B7F1004F0DF143087F
:100CC0008DF8431024D002202B23002F01DA7F421D
:100CD0002D230A21021EA0F1010000DC5FB197FB69
:100CE000F1FC97FBF1F201FB1C7C17460CF1300C78
:100CF00008F801CDEEE7A8F101000370218809058D
:100D000001D5452100E06521A0F1010800F8011C92
:100D100009980FA9A1EB0807FF1D00B10120411997
:100D200001EBEA70A1693844081A401EA0612078DE
:100D3000C00602D42046FFF7DEFB099828B1D4E9AB
:100D400001219047206A401C20622078C00622D5ED
:100D50002046FFF7D0FB1EE0002E04DBB34502DD8A
:100D600001A8805D00E03020D4E901219047206A8D
:100D7000401C2062761CAAF101005FEA000A0AD139
:100D800000F018FAC0680168405CD4E9012190477E
:100D9000206A401C2062281EA5F10105DCDC07E06A
:100DA000D4E9012118F8010B9047206A401C206209
:100DB000381EA7F10107F3DC2046FFF7B2FB032042
:100DC00011B041E62DE9F04F04460D46D21D22F048
:100DD000070089B0D0E900974846394602F0C9FEBD
:100DE0000246F80F01D02D2307E02068810701D5C6
:100DF0002B2302E0202101EAC0038DF820300BB143
:100E0000012000E00020032A824601D0072A04DBEB
:100E10002946204600F0D2F93FE12078800601D42F
:100E20000D2500E0E569C7F30A560D2D49DA0021CA
:100E30004FEA175B08464FF00000002F00F4400017
:100E400007DA00EB80004FF4400100EBD07001EABC
:100E500060008115012901DD4FF0FF3100224FEACA
:100E6000850CBCF1180F06D31346ACF118004FF0F7
:100E70008052C24003E04FF4801323FA0CF30CF1CC
:100E80000C0CBCF1200F04D3ACF1200C09FA0CF0CF
:100E900001E007FA0CF000294FF0004801DD18B915
:100EA0000FE00ED140450CD319EB02095F4121B987
:100EB000404502D19F4329EA0209BBEB175F00D0EE
:100EC000761C2088000502D57B48784402E07A48E9
:100ED0007844193808AA302302F80A30037C0AF152
:100EE0000101002E0AF1020A53546A4602DC4FF057
:100EF000300101E04FF031014FF001088DF8001092
:100F000002D0A6F2FF3603E059EA470100D06B4E4B
:100F1000002D02DC2178090704D54FF002082E21AC
:100F20008DF80110C44600210BE0C7F303433F01D5
:100F3000C35C491C6D1E02F80830052908F1010840
:100F400001DA002DF1DC00210CE000EB1973491CE3
:100F50001B786D1E082902F808304FEA091908F1BC
:100F6000010801DA002DF0DC21688B0602D516E0BD
:100F7000A8F10108E04505DD02EB080313F8013C88
:100F8000302BF5D0B8F1000F09DD02EB080313F8A0
:100F9000013C2E2B03D1090701D4A8F10108002D33
:100FA00005DD3E2102F808106D1E08F10108407CA5
:100FB000002E02F8080008F1010804DA2D2076421C
:100FC00002F8080002E02B2002F808000A214FF482
:100FD0007A70864208F101080BDB96FBF0F33033A0
:100FE00002F8083096FBF0F308F1010800FB1366E5
:100FF00001E0642E0CDB642096FBF0F3303302F842
:10100000083096FBF0F308F1010800FB136601E0DD
:101010000A2E06DB96FBF1F0303002F8080008F1EA
:10102000010896FBF1F001FB1060303002F8080077
:10103000A16908F1010808EB050202EB0A00081A91
:10104000A0612078C00602D42046FFF754FA216A36
:1010500008AE01EB0A00206204E0D4E9012116F891
:10106000010B9047BAF1010AF7D22078C00602D5E9
:101070002046FFF740FA6E4609E016F8010B3E28BD
:101080000FD0D4E901219047206A401C2062B8F1BA
:101090000108F2D22046FFF744FA09B00320BDE868
:1010A000F08F206A2844206203E0D4E90121302037
:1010B00090476D1EEBD3F8E70D43000002FCFFFFE5
:1010C00010B5436913B1AFF3008001E0FFF74CFAAC
:1010D000012010BD127800F124010A7000224A702C
:1010E0000122EDE711684FF0FF32E9E710B54369DF
:1010F00013B1AFF3008001E0FFF7F2FA012010BD59
:10110000128800F1240182840022C2840122EDE7CA
:1011100011684FF0FF32E9E770B516460C460546F8
:1011200000F040F8036893F80101012806D0FF2C75
:101130000FD8185D68B101202C7070BDD3F807017D
:101140003246214603F2071303442846BDE87040A7
:1011500018474FF0FF3070BD754600F0EBF8AE4613
:1011600005006946534620F00700854618B020B5B3
:10117000FFF792F8BDE820404FF000064FF000075F
:101180004FF000084FF0000B21F00701AC46ACE82F
:10119000C009ACE8C009ACE8C009ACE8C0098D469C
:1011A0007047000010B500F005F8001D10BD00BF2D
:1011B000952F0000004870479C2C00202DE9F0413D
:1011C0001F46044603260168072A01F4006004DB79
:1011D00008B116A505E016A503E008B115A500E0C5
:1011E00015A521F010002060A069C01EA0610FB1FC
:1011F000401EA0612046FFF77EF94FB1D4E90121DE
:1012000038469047206A401C2062C01C206206E0DD
:10121000206AFAE7D4E9012115F8010B9047761E00
:10122000F8D22046FFF77DF9BDE8F0814E414E002F
:101230006E616E00494E4600696E66002DE9F0470A
:10124000814616468AB0354878440DC88DE80D00B1
:1012500032487844801C03AC0DC884E80D0041F688
:101260009B300844372190FBF1F290FBF1F5A5F19A
:10127000800501FB12041B3C02D56442012000E002
:101280000020DFF898A080460027FA44AAF1BE0AA1
:101290000EE0E0070AD03246684607EB470101231B
:1012A0000AEB810100F022FB8DE8070064107F1C2F
:1012B000002CEED1194F7F44AE3F19E0E80715D05E
:1012C00007EB04100DF1180A90E80E008AE80E00F2
:1012D000C068F04201D1981908903246012306A94E
:1012E00003A800F003FB03AB83E807006D10641C48
:1012F000002DE3D14FF0010332466946B8F1000FEB
:1013000003A802D000F0DDFA01E000F0EFFAC9E92D
:101310000001C9F808200AB0BDE8F08720400000AD
:1013200010B50446AFF300802046BDE81040FEF73C
:101330007ABF0000004870477C2C00204FF0013C31
:1013400050F8042B51F8043B9A4221D1A2EB0C0334
:10135000934313EACC1317D150F8042B51F8043BF4
:101360009A4215D1A2EB0C03934313EACC130BD191
:1013700050F8042B51F8043B9A4209D1A2EB0C031C
:10138000934313EACC13DBD04FF00000704700BF4B
:10139000D01A01BAB1FA81F101F0180122FA01F074
:1013A000CB40C1F12001DBB2C0B2C01A2CFA01F36C
:1013B000D11A914311EAC311E6D1704701491820AF
:1013C000ABBEFEE72600020070475FEA400C08BF94
:1013D00091F0000F4FEA8C234FEAC12243EA5151AA
:1013E0004FEA1C5018BF00F5F0404FEA300018BF1C
:1013F00041F000415FEA6C5C00F02980BCF1FF3FE6
:1014000008BF40F080407047130C06BF12044FF035
:10141000100C4FF0000C130E04BF12020CF1080C5C
:10142000130F04BF12010CF1040C930F04BF9200C0
:101430000CF1020CD30F04BF52000CF1010C114649
:101440004FF00002A0F11F00A0EB0C00704711F05C
:10145000004F08BF704731F000413FF4D5AF0B0C8F
:1014600006BF09044FF0100C4FF0000C0B0E04BF28
:1014700009020CF1080C0B0F04BF09010CF1040C5C
:101480008B0F04BF89000CF1020CCB0F04BF490085
:101490000CF1010CCCF12003A0EB0C0022FA03F3B9
:1014A00002FA0CF241EA030100F10100704720F05A
:1014B0007F4C80EA030023F07F47ACEB070303F582
:1014C0007C5300F0004003F1FF032DE980494FEA0F
:1014D000154B09B44FEA144325EA0B4E24EA03489E
:1014E0000FF2042606EB132749083E785FEA320222
:1014F00003FB0667C7F5000707FB06F64FEA5437FC
:101500004FEAD64606F1020607FB066CCCF1005CFA
:101510004FEA1C472CEA074C07FB06F40CFB06F5C8
:1015200004EB15464FEA961634BF00204FF00040FA
:101530004FEAD13706FB07FC4FEA1C4C0CFB0BF7BC
:10154000D21B03FB0CF761EB07010CFB0EF7B0EBB2
:10155000074072EB17420CFB08F734BFA2EB0742BF
:10156000B2EB074261EB17414FEA0C444FEA910797
:1015700006FB07FC4FEA1C4C0CFB0BF7B0EBC7401B
:1015800072EB573203FB0CF734BFA2EBC742B2EB4E
:10159000C74261EB57310CFB0EF7B0EBC70072EBA3
:1015A00057720CFB08F734BFA2EBC702B2EBC702BD
:1015B00061EB5771039F4FEA816141EA921104EB9D
:1015C000CC044FEAD1374FEA826206FB07FC42EABD
:1015D00090124FEA80604FEA1C4C0CFB0BF7D21BB9
:1015E00003FB0CF761EB07010CFB0EF7B0EB0740B8
:1015F00072EB17420CFB08F734BFA2EB0742B2EBC9
:10160000074261EB17414FEA8C554FEA910704EB13
:101610009C2406FB07FC4FEA1C4C0CFB0BF7B0EBC1
:10162000C74072EB573203FB0CF734BFA2EBC74243
:10163000B2EBC74261EB57310CFB0EF7B0EBC700C2
:1016400072EB57720CFB08F734BFA2EBC702B2EB88
:10165000C70261EB577115EB4C254FEA816141EAF6
:1016600092114FEA82624FEAD13742EA901206FBAA
:1016700007FC44F100044FEA80604FEA1C4C0CFB6D
:101680000BF7D21B03FB0CF761EB07010CFB0EF70A
:10169000B0EB074072EB17420CFB08F734BFA2EB2C
:1016A0000742B2EB074261EB174115EB1C154FEAFD
:1016B000813141EA92414FEA823242EA90424FEA56
:1016C00080304FEA0C7644F1000448EA03434EEAC6
:1016D0000B484FF0000EB2EB080C71EB030724BF70
:1016E000624639464EEB0E0E4FF0000B0018524189
:1016F00049414BEB0B0BB2EB080C71EB03077BF191
:10170000000B24BF624639464EEB0E0E4FF0000B25
:101710000018524149414BEB0B0BB2EB080C71EB3B
:1017200003077BF1000B24BF624639464EEB0E0ED9
:1017300051EA020718BF46F0010616EB0E7655F186
:10174000000254F1000103D5BDE88901BDE800881D
:10175000BDE88901BDE80048B619524141EB0101DD
:10176000A3F10103704780807F7E7D7C7B7A79784E
:10177000777676757473727171706F6E6E6D6C6C56
:101780006B6A6A69686867666665646463636261F8
:101790006160605F5F5E5E5D5D5C5C5B5B5A5A5979
:1017A00059585857575656555555545453535252E5
:1017B0005251515050504F4F4F4E4E4D4D4D4C4C3D
:1017C0004C4B4B4B4A4A4A49494948484847474786
:1017D00047464646454545444444444343434342C3
:1017E000424242414141002B9C4630D477002BD0ED
:1017F0001CB54FEA370703B44FF010004FF010014B
:10180000BAF1000F06D0BCF1000FDCBF40F00800B9
:1018100040F008014FF000000FBCBDE810400BF194
:10182000010BBBF1010F08BF5FEA170722BF12F1DE
:10183000010211F101014FF0004143F1000300F0FA
:10184000004043EA00007047F9D35708D0E746EA62
:10185000064613F1400F4FEA16461FDD13F1200F25
:10186000DFBF16430A46002120335B42BED0C3F1DE
:10187000200746EA064602FA07F74FEA164646EA06
:101880000706C3F1200722FA03F201FA07F721FA4B
:1018900003F14FF0000342EA0702A7E746EA020617
:1018A00046EA06464FEA164646EA0106BCBF46EA45
:1018B0000646360C4FF000034FF000024FF00001D7
:1018C00094E72DE9804C9A46934670B491E838002D
:1018D00007C831EA400C48BF34EA430C03D5FFF790
:1018E000E6FDFFF780FFF0BCBDE8008C2DE9804CE1
:1018F0009A46934670B491E8380007C810F0804FBC
:1019000008BF13F0804F03D100F005F8FFF76BFF1D
:10191000F0BCBDE8008C20F07F4780EA030023F094
:101920007F4C07EB0C03A3F57C5300F00040A3F1C0
:10193000FE0392F0000F00F0B38095F0000F00F06E
:1019400077802DE901494FEA11404FEA144621EA18
:10195000004800FB06FC24EA064708FB06F607FBE6
:1019600008F800FB07F718EB06484CEB164C4FEA5B
:10197000124B18EB07484FEA15464CEB174022EA8A
:101980000B4E0BFB06FC25EA06470EFB06F607FB93
:101990000EFE0BFB07F71EEB064E4CEB164C4FF002
:1019A00000061EEB074E4CEB174B18EB0B0840F1F3
:1019B000000018EB0E0B58EB000840F100008F1AE6
:1019C0004FF000013CBFC943661B14BFB5EB040CCC
:1019D00000213CBFC943F61B4FEA17444EEA8E0E66
:1019E00027EA04454FEA1C4704FB07622CEA074C30
:1019F00005FB07F70CFB05F604FB0CFC16EB074692
:101A000042EB174216EB0C4642EB1C421BEB060660
:101A100058EB0202414146EA9E0601D5BDE8018924
:101A2000B619524141EB0101A3F10103BDE801895F
:101A30004FEA14454FEA114724EA054621EA074CCC
:101A400005FB07F406FB07F70CFB06F105FB0CFC96
:101A500011EB074144EB17444FEA124711EB0C41DD
:101A600044EB1C4422EA074C05FB07F206FB07F790
:101A70000CFB06F605FB0CFC16EB074642EB174287
:101A800016EB0C4642EB1C456A1854F1000148BFA6
:101A90007047B619524141EB0101A3F101037047B0
:101AA00095F0000F37D04FEA11424FEA144721EA70
:101AB000024624EA074C02FB07F106FB07F70CFB82
:101AC00006F402FB0CFC14EB074441EB17414FEA10
:101AD000154714EB0C4441EB1C4125EA074C02FB73
:101AE00007F506FB07F70CFB06F602FB0CFC16EBF2
:101AF000074645EB174516EB0C4645EB1C42121901
:101B000051F1000148BF7047B619524141EB010144
:101B1000A3F1010370474FEA14454FEA114724EA45
:101B2000054621EA074C05FB07F106FB07F70CFB0E
:101B300006F24FF0000605FB0CFC12EB074241EBEE
:101B4000174112EB0C4251EB1C4148BF70479218F1
:101B500041EB0101A3F1010370477CB504460D463A
:101B600000200190BDF8040040F400400190BDF851
:101B700004000190BDF8040040EA452080B20190C5
:101B8000BDF8040040F480700190BDF8040040EA04
:101B9000441080B20190BDF804000190BDF804002B
:101BA0000190BDF804000190BDF8040040F003006E
:101BB0000190BDF804200121482000F059FE00BF2B
:101BC0000121482000F0DEFD0090BDF8000000F487
:101BD00000400028F4D07CBD70B504460E460221BA
:101BE0002046FFF7BAFF0021482000F0CBFD05B2E8
:101BF000A8B270BD08B501210C2000F0E5FE102050
:101C00008DF8030002208DF802004FF41360ADF848
:101C1000000069460C4800F07FFB4FF47040ADF8BF
:101C200000006946094800F077FB4FF41061064850
:101C300000F04FFC4FF47041044800F04AFC3021A2
:101C4000014800F048FC08BD00080140000C0140BC
:101C500010B54FF41061064800F03BFC4FF47041A2
:101C6000044800F036FC3021014800F034FC10BD7F
:101C700000080140000C01402DE9FE4F82468B46D2
:101C80004FF400601749086059465046FFF7A4FF1B
:101C900000B20290029802F0A9FC8046124A134B4F
:101CA00002F0F8FC06460022114B02F047FB044606
:101CB00002F05EFA01900F49019803F0EDF88046BA
:101CC00002F006FF06460C4A0C4B02F017FE0446D3
:101CD00002F04EFA00904FF0006002490860009850
:101CE000BDE8FE8F10080140FCA9F1D24D62004012
:101CF0000000E040000020419A9999999999D93FB4
:101D00002DE9FE4F82468B464FF4807017490860DC
:101D100059465046FFF760FF00B20290029802F069
:101D200065FC8046124A134B02F0B4FC06460022C2
:101D3000114B02F003FB044602F01AFA01900F491E
:101D4000019803F0A9F8804602F0C2FE06460C4A4C
:101D50000C4B02F0D3FD044602F00AFA00904FF05B
:101D60008070024908600098BDE8FE8F10080140AD
:101D7000FCA9F1D24D6200400000E0400000C842E2
:101D80009A9999999999D93F2DE9FE4F82468B46A8
:101D90004FF400401749086059465046FFF71CFFB2
:101DA00000B20290029802F021FC8046124A134BC6
:101DB00002F070FC06460022114B02F0BFFA044606
:101DC00002F0D6F901900F49019803F065F88046BA
:101DD00002F07EFE06460C4A0C4B02F08FFD0446D4
:101DE00002F0C6F900904FF00040024908600098E8
:101DF000BDE8FE8F100C0140FCA9F1D24D620040FD
:101E00000000E04000007A449A9999999999D93F45
:101E10002DE9FE4F82468B464FF480401249086000
:101E200059465046FFF7D8FE00B20290029802F0E1
:101E3000DDFB80460D4A0E4B02F02CFC06460022CC
:101E40000C4B02F07BFA044602F092F901900A4929
:101E5000019803F021F800904FF08040024908609B
:101E60000098BDE8FE8F0000100C0140FCA9F1D2E3
:101E70004D6200400000E04000401C462DE9FE4F4E
:101E800082468B464FF4005012490860594650462E
:101E9000FFF7A2FE00B20290029802F0A7FB804674
:101EA0000D4A0E4B02F0F6FB064600220C4B02F0E8
:101EB00045FA044602F05CF901900A49019802F0E3
:101EC000EBFF00904FF00050024908600098BDE819
:101ED000FE8F0000100C0140FCA9F1D24D620040C1
:101EE0000000E0400050C3472DE9FF5F0446FFF7C4
:101EF000AFFE4FF4801030490860002221460420D4
:101F000000F0E2F80021482000F03CFC00B2029012
:101F1000029802F06BFB0746284A294B02F0BAFBF5
:101F20000022284BCDE9000102F008FA054602F034
:101F30001FF903904FF0000B2FE001220621084605
:101F400000F0C2F80021482000F01CFC00B2029012
:101F5000029802F04BFB1C4A1C4BCDE9000102F039
:101F600099FB05460022174B02F0E8F9074602F0FC
:101F7000FFF881464946039803F08CF80746144958
:101F800002F08AFF0646494602F03CFE05465146ED
:101F900002F0CAFD82460BF1010BBBF11E0FCCDB38
:101FA0000C49504602F02EFE82461020024908607D
:101FB000504604B0BDE8F09F10080140FA7E6ABCAC
:101FC000749318400000E040FCA9F1D24D6210402B
:101FD00000B808490000F0412DE9FF5F0446FFF713
:101FE00037FE4FF4001030490860002221460420DB
:101FF00000F06AF80021482000F0C4FB00B2029013
:10200000029802F0F3FA0746284A294B02F042FBF5
:102010000022284BCDE9000102F090F9054602F0BC
:10202000A7F803904FF0000B2FE00122062108468D
:1020300000F04AF80021482000F0A4FB00B2029012
:10204000029802F0D3FA1C4A1C4BCDE9000102F0C1
:1020500021FB05460022174B02F070F9074602F0FB
:1020600087F881464946039803F014F80746144957
:1020700002F012FF0646494602F0C4FD05465146ED
:1020800002F052FD82460BF1010BBBF11E0FCCDBBF
:102090000C49504602F0B6FD8246202002490860F5
:1020A000504604B0BDE8F09F10080140FA7E6ABCBB
:1020B000749318400000E040FCA9F1D24D6210403A
:1020C00000E6AA4A0000F0417CB504460D461646DB
:1020D00000200190BDF8040040F400400190BDF8DC
:1020E000040040EA043080B20190BDF8040040EAE8
:1020F000462080B20190BDF8040040F48070019049
:10210000BDF8040040EA451080B20190BDF804001B
:102110000190BDF804000190BDF804000190BDF8E5
:10212000040040F003000190BDF804200121482084
:1021300000F09EFB00BF0121482000F023FB00902F
:10214000BDF8000000F400400028F4D07CBD000081
:102150009EE0504890F82100002867D14D48407813
:10216000012863D14B49087008460078012820D126
:102170000FE00421484800F0ACF90821464800F07F
:10218000A8F94448407820B90821434800F0A3F951
:1021900005E0404880683F49898B8842E9DB00BF01
:1021A0003C4880683B49898B884202DB02203949E0
:1021B000087038480078022838D10FE004213648EA
:1021C00000F089F90821344800F083F9314840785B
:1021D00020B90821304800F07EF903E02D488068DE
:1021E0000A28EBDC00BF2B4880680A281EDC32205E
:1021F00001F01CF9274880680A2817DC01202549CE
:10220000087008468069401C886108468069B1F9F9
:10221000141088420AD34FF47A7001F0F9F80020C4
:102220001C49487008211C4800F055F9194890F8DD
:10223000210058BB17484078022827D101201549B2
:10224000087008460078012820D10FE004211248C8
:1022500000F03FF90821104800F03BF90D484078A4
:1022600020B908210C4800F036F905E009488068DB
:102270000849898B8842E9DB00BF06488068054928
:10228000898B884202DB00200249487001F0F8FE89
:102290005FE70000482C002000080140054909685C
:1022A00021F01001034A11601146096801431160D1
:1022B000704700000020024001460020034A1068D9
:1022C00000F0380008431060704700000020024012
:1022D00008B50121082000F077FB0820ADF80000C8
:1022E00048208DF8030069460A4800F015F81020D0
:1022F000ADF8000001208DF8020010208DF80300D9
:102300006946044800F008F81021024800F0E1F89E
:1023100008BD0000000C01402DE9F04102460025F7
:102320000026002000230024002791F803C00CF0B1
:102330000F0591F803C00CF0100CBCF1000F03D096
:1023400091F802C04CEA050591F800C0BCF1000FFD
:1023500031D0146800202BE04FF0010C0CFA00F390
:10236000B1F800C00CEA03069E4220D183004FF072
:102370000F0C0CFA03F7BC4305FA03FC4CEA040407
:1023800091F803C0BCF1280F06D14FF0010C0CFAF4
:1023900000FCC2F814C00AE091F803C0BCF1480F79
:1023A00005D14FF0010C0CFA00FCC2F810C0401C23
:1023B0000828D1D31460B1F800C0BCF1FF0F34DDA0
:1023C000546800202EE000F1080C4FF0010808FAD4
:1023D0000CF3B1F800C00CEA03069E4221D1830041
:1023E0004FF00F0C0CFA03F7BC4305FA03FC4CEA60
:1023F000040491F803C0BCF1280F05D100F1080CCA
:1024000008FA0CF8C2F8148091F803C0BCF1480F28
:1024100007D100F1080C4FF0010808FA0CF8C2F8D7
:102420001080401C0828CED35460BDE8F081000025
:10243000F0B50A46002300240021002500F00046E4
:10244000B6F1004F02D11D4EF16901E01B4E7168DB
:10245000C0F3034583B200F44016B6F5401F08D11F
:1024600021F07061154E766826F07066134F7E601D
:1024700012E000F48016B6F5801F06D1032606FA96
:1024800005F4A14341F0706106E0460D360103FA00
:1024900006F6B14341F0706122B1460D360103FAF0
:1024A00006F6314300F00046B6F1004F02D1034E6C
:1024B000F16101E0014E7160F0BD000000000140DB
:1024C0000246002093680B400BB1012000E0002081
:1024D0007047416170470161704721B1028842F441
:1024E0008062028004E002884FF6FF331A400280C7
:1024F000704770B502460024002500230020958A0D
:10250000138B1B0445EA030626F07F4404EA010608
:102510008E4201D1012000E0002070BD21B102886F
:1025200042F00102028004E002884FF6FE731A4076
:102530000280704710B504460B48844209D101213E
:10254000480500F031FA00214FF4001000F02CFA99
:1025500008E00121880500F027FA00214FF48000EF
:1025600000F022FA10BD00000054004021B10288A2
:1025700042F48072028004E002884FF6FF631A4042
:102580000280704721B1028842F40072028004E0A8
:1025900002884FF6FF531A40028070470CB502467E
:1025A000002000230193009300920B0F019321F070
:1025B0007F41019B1BB1009B1433009303E0090C86
:1025C000009B18330093009B1B680B400BB101204C
:1025D00000E000200CBD00002DE9F04385B004466A
:1025E0000D460026B1460427DFF8CC80A6884FF6BA
:1025F000C0700640684600F039FADDF808802F48C0
:10260000B8FBF0F01FFA80F946EA0906A680208898
:102610004FF6FE710840208000262949286888422C
:102620000CD828684000B8FBF0F087B2042F00DA1D
:1026300004273E4309F10100208427E0E8884BF697
:10264000FF71884206D1286800EB4000B8FBF0F02B
:1026500087B209E0286800EBC00101EB0010B8FB6D
:10266000F0F087B247F48047C7F30B0008B947F092
:10267000010747F4004006434FF4967009FB00F051
:102680004FF47A7190FBF1F0401C2084A6832088DF
:1026900040F00100208026884FF6F5300640A888DB
:1026A0006989084306432680A8892989084320812F
:1026B00005B0BDE8F083000000127A0040420F0030
:1026C000A08601000146088AC0B2704712B141F0ED
:1026D000010102E04FF6FE7319400182704701824A
:1026E0007047000000B585B00121082000F06CF9AA
:1026F0000121084600F068F90121880500F054F92D
:1027000000214FF4800000F04FF94FF440611A4867
:10271000FFF7E1FE4FF44060ADF8000003208DF8B4
:1027200002001C208DF8030069461348FFF7F4FDF2
:102730000121880500F028F91048FFF7FBFE002072
:10274000ADF808004BF6FF70ADF80A000020ADF8B8
:102750000C004FF48060ADF80E000001ADF81000E1
:102760000748019001A90548FFF736FF01210348FA
:10277000FFF7D4FE05B000BD000C0140005800403A
:10278000A086010070B504460E46002500BF4FF438
:1027900000313448FFF702FF0028F8D10121314809
:1027A000FFF7E4FE00BF30492E48FFF7A2FE0128E4
:1027B000F9D16006010E00222A48FFF787FF00BF0B
:1027C0002A492848FFF795FE0128F9D131462548C6
:1027D000FFF785FF00BF2549891C2248FFF789FEC6
:1027E0000128F8D101211F48FFF7C0FE00BF1E4994
:1027F0001C48FFF77EFE0128F9D16006010E012278
:102800001848FFF763FF00BF1749491C1548FFF739
:1028100070FE0128F8D101211248FFF75EFE00BFCB
:1028200011493F310F48FFF764FE0128F8D10D48E8
:10283000FFF748FF050200210A48FFF74EFE00BFE0
:1028400009493F310748FFF754FE0128F8D10548F0
:10285000FFF738FF054301210248FFF793FE2846A2
:1028600070BD000000580040010003008200070016
:1028700070B505460E46144600BF4FF4003123489C
:10288000FFF78CFE0028F8D101212048FFF76EFEEB
:1028900000BF1F491D48FFF72CFE0128F9D168062B
:1028A000010E00221948FFF711FF00BF1949174810
:1028B000FFF71FFE0128F9D131461448FFF70FFF3B
:1028C00000BF1449891C1148FFF713FE0128F8D1F5
:1028D00021120E48FFF703FF00BF0E49891C0B4869
:1028E000FFF707FE0128F8D1E1B20848FFF7F7FE2D
:1028F00000BF0849891C0548FFF7FBFD0128F8D1F6
:1029000001210248FFF73EFE70BD00000058004064
:10291000010003008200070070B5002100230F2290
:10292000C47804B3154C246804F4E064C4F5E0648E
:10293000210AC1F10403CA40447804FA03F18478FF
:102940001440214309010E4C0678A155047804F087
:102950001F050124AC4005786D11AD0005F1E0259F
:10296000C5F8004109E0047804F01F050124AC40DB
:10297000044D0678761145F8264070BD0CED00E058
:1029800000E400E080E100E029B1064AD269024398
:10299000044BDA6104E0034AD2698243014BDA61F5
:1029A000704700000010024029B1064A1269024334
:1029B000044B1A6104E0034A12698243014B1A6115
:1029C000704700000010024029B1064A9269024394
:1029D000044B9A6104E0034A92698243014B9A6175
:1029E000704700000010024010B51E48806940F09A
:1029F00001001C49886101211B48FFF719FD4FF4B4
:102A0000803000F0CFF800BF312000F099F80028A6
:102A1000FAD00220FFF750FC1020FFF73FFC4FF4E4
:102A2000E0114FF4803000F001F9012000F0F8F8D7
:102A300000BF392000F084F80028FAD0002000F010
:102A4000A5F84FF4806000F0D3F8002000F0DCF827
:102A5000022000F0F9F800BF00F090F80828FBD140
:102A600010BD0000001002400002300030B500210F
:102A70000022002400232D4D6D6805F00C0121B1CA
:102A8000042905D0082923D105E0294D056022E05D
:102A9000274D05601FE0254D6D6805F47012234D2C
:102AA0006D6805F48034022505EB92421CB9214D76
:102AB000554305600BE01D4D6D6805F400351DB1F3
:102AC0001C4D5543056002E0194D5543056002E079
:102AD000174D056000BF00BF144D6D6805F0F00193
:102AE0000909154D6B5C0568DD4045600F4D6D684B
:102AF00005F4E061090A104D6B5C4568DD408560B6
:102B00000A4D6D6805F46051C90A0B4D6B5C456850
:102B1000DD40C560054D6D6805F44041890B074DEA
:102B20006B5CC568B5FBF3F5056130BD0010024074
:102B300000127A0000093D00200000203000002033
:102B400010B501460022002300204A11012A02D1BB
:102B5000094C236806E0022A02D1074C236A01E0EF
:102B6000054C636A01F01F02012494401C400CB123
:102B7000012000E0002010BD001002400248406823
:102B800000F00C00704700000010024001460020D9
:102B9000034A506820F0F00008435060704700007E
:102BA000001002401149096821F480310F4A116078
:102BB0001146096821F480211160B0F5803F03D0EF
:102BC000B0F5802F0ED106E00849096841F4803144
:102BD000064A116007E00549096841F4A021034A4B
:102BE000116000E000BF00BF70470000001002400D
:102BF00001460020034A506820F4E060084350601A
:102C0000704700000010024001460020034A50684F
:102C100020F4605040EAC10050607047001002404C
:102C20000149086670470000000042420246002049
:102C3000044B586820F47C1042EA01031843014B0E
:102C4000586070470010024001460020034A506857
:102C500020F003000843506070470000001002405D
:102C600024E000241248007B012802D1114801F021
:102C7000F9F90F49486800F0BBFF4442002C05DC1D
:102C80000B49486800F0B4FF444201E00848846002
:102C9000074880680649898B884203DB082106487B
:102CA000FFF719FC054801F0DDF900BFD9E7000086
:102CB000482C00200F000020000801400D000020DB
:102CC000DFE0002400256F4801F076F8072C76D26B
:102CD000DFE804F004203C597794B1000520FFF7A9
:102CE0007BF90546601C44B26749284602F0A0F90A
:102CF0000FD26649284602F0CFF807464FF07E51C2
:102D000001F080FF064602F05BF86149086100248B
:102D1000B3E000BF0520FFF7E7F80546601C44B2AA
:102D20005C49284602F084F90FD25849284602F03F
:102D3000B3F807464FF07E5101F064FF064602F0FB
:102D40003FF853490861002497E000BF02210520A5
:102D5000FFF794F80546601C44B24F49284602F03C
:102D600067F90FD24949284602F096F807464FF016
:102D70007E5101F047FF064602F022F844490861FF
:102D800000247AE000BF02210520FFF741F8054644
:102D9000601C44B24149284602F04AF910D23B492E
:102DA000284602F079F807464FF07E5101F02AFFDD
:102DB000064602F005F83649086100245DE05BE054
:102DC00000BF02210520FEF7DFFF0546601C44B26C
:102DD0003349284602F02CF90FD22C49284602F03C
:102DE0005BF807464FF07E5101F00CFF064601F0FC
:102DF000E7FF2749086100243FE000BF02210520CA
:102E0000FEF77EFF0546601C44B22649284602F0C4
:102E10000FF90FD21D49284602F03EF807464FF041
:102E20007E5101F0EFFE064601F0CAFF1849086125
:102E3000002422E000BF02210520FEF71DFF054609
:102E4000601C44B2284601F043FE0646164A174B62
:102E500001F01EFD0FD20D49284602F01DF807466D
:102E60004FF07E5101F0CEFE064601F0A9FF084961
:102E70000861002401E000BF00BF00BF01F000F9BD
:102E800000BF1EE70F0000200024F4490000C842E4
:102E9000482C00200050434800409C460000FA4463
:102EA000000048430000A0419A9999999999D93F07
:102EB0008AE0464800F080FF4548007854280BD14E
:102EC00008214448FFF707FB04214248FFF701FBB4
:102ED00000204149487077E03D480078552808D1E6
:102EE00008213C48FFF7F5FA04213A48FFF7F1FAC8
:102EF0006AE037480078442808D108213548FFF7B0
:102F0000E8FA04213348FFF7E6FA5DE0304800783C
:102F1000532859D1304801F0C1F800240BE001F0EA
:102F2000D5F82D4948600846406818B901F0CEF838
:102F300029494860641C032CF1DB0A2000F076FA72
:102F400023484078302803D102202349487006E006
:102F50001F484078312802D101201F4948701C4881
:102F60008078312803D101201B49087302E000203A
:102F7000194908731648C07A312807D1012016492B
:102F800081F82100154801F06DF803E00020124996
:102F900081F8210004210E48C01C00F005FE00EB62
:102FA0004001C1EBC0104FF6FF7101EAC0000A49B1
:102FB000888304210648C01D00F0F6FD00B20649D2
:102FC0008882012081F8200073E7000019000020AA
:102FD0006C2C002000080140482C00200C00002030
:102FE00010B500F001F810BD0CB500200190009064
:102FF0003348006840F480303149086000BF3048F1
:10300000006800F4003000900198401C0190009886
:1030100018B90198B0F5A06FF1D12948006800F403
:10302000003010B10120009001E0002000900098D5
:10303000012843D12348006840F01000214908606E
:103040000846006820F0070008600846006840F065
:10305000020008601A4840681949486008464068FC
:1030600048600846406840F4806048600846406810
:1030700020F47C1048600846406840F4E81048603E
:103080000846006840F08070086000BF0C48006887
:1030900000F000700028F9D00948406820F00300D3
:1030A000074948600846406840F00200486000BF99
:1030B0000348406800F00C000828F9D10CBD00005E
:1030C000001002400020024008B501210420FFF753
:1030D0007BFC0E20ADF8000010208DF803000220CC
:1030E0008DF8020069460448FFF716F908210248E6
:1030F000FFF7F1F908BD000000080140034800682F
:1031000040F08050014908607047000004ED00E085
:1031100010B51348006840F00100114908600846E6
:103120004068104908400E494860084600680E494A
:1031300008400B4908600846006820F480200860B9
:103140000846406820F4FE0048604FF41F00886085
:10315000FFF746FF4FF000600449086010BD000013
:10316000001002400000FFF8FFFFF6FE08ED00E04F
:103170002FE0184800F020FE174890F821000128A1
:1031800019D107E004211548FFF7A3F908211348D6
:10319000FFF79FF9104880681E28F3DB07E0042141
:1031A0000E48FFF798F902210C48FFF794F90A48F6
:1031B00080681E28F3DC04210848FFF78AF90821FB
:1031C0000648FFF788F90020034981F8210000F044
:1031D00057FFCEE70C000020482C002000080140DB
:1031E00010B50121880700F074F8002856D001219D
:1031F000880700F05FF82A480068401C28490860EA
:10320000002013E000EB4001264A02EB81018968AF
:1032100059B100EB400102EB81018968491E00EBC6
:103220004002204B03EB82029160401C1E4909685A
:103230008842E7D31D480078542808D108211C484B
:10324000FFF749F904211A48FFF743F918E0174836
:103250000078552808D108211548FFF73AF90421CC
:103260001348FFF736F90BE010480078442807D1DF
:1032700008210F48FFF72DF904210D48FFF72BF91E
:103280000748007800F0010020B902210848FFF744
:1032900022F903E002210648FFF71BF910BD0000E8
:1032A0001C00002034000020080000206C2C0020AE
:1032B00000080140CA430282704721B1028842F0EF
:1032C0000102028004E002884FF6FE731A40028079
:1032D000704730B50246002000230024158A05EA15
:1032E0000103958905EA010413B10CB1012000E046
:1032F000002030BD1AB183890B43838102E08389AA
:103300008B43838170470000002202881D4B984246
:103310000ED01D4B98420BD0B0F1804F08D01B4B04
:10332000984205D01A4B984202D01A4B984204D1C9
:103330004FF68F731A404B881A43174B984207D0A9
:10334000164B984204D04FF6FF431A40CB881A43DD
:1033500002808B8883850B8803850A4B98420BD0AB
:10336000094B984208D00E4B984205D00D4B98421D
:1033700002D00D4B984201D10B7A03860123838240
:1033800070470000002C0140003401400004004060
:1033900000080040000C00400010004000140040F5
:1033A0000040014000440140004801401FB5012198
:1033B0000846FFF7E9FA4720ADF804000020ADF811
:1033C000060040F2E730ADF808000020ADF80A0032
:1033D0008DF80C0001A94FF08040FFF795FF012206
:1033E00011469007FFF786FF01218807FFF765FF69
:1033F0001C208DF8000001208DF8010002208DF8BE
:10340000020001208DF803006846FFF785FA1FBD12
:1034100000B5034603E04FF47A7000F007F8181E79
:10342000A3F101018BB2F6D100BD00000021044AD6
:10343000118000BF024909888142FBDB7047000010
:10344000240400400EB501210220FFF79DFA472019
:10345000ADF800000020ADF802004FF6FF70ADF8A7
:1034600004000020ADF806008DF808006946044805
:10347000FFF74AFF01210248FFF71FFF0EBD0000C2
:10348000000400408CB082E1C14800F095FCC148C6
:10349000007853280BD1C048808B002804DDBE483B
:1034A000B0F91400002803DCBCA000F04FFB6BE176
:1034B000B9488068C049884203DAC0A000F046FBE2
:1034C00062E1B54880684DF2D861884203DDC2A050
:1034D00000F03CFB58E1B048806842F2107190FB6C
:1034E000F1F00A2190FBF1F201FB12003030C0B282
:1034F0008DF82800A84880684FF47A7190FBF1F0AD
:103500000A2190FBF1F201FB12003030C0B28DF8BD
:103510002900A1488068642190FBF1F00A2190FB0A
:10352000F1F201FB12003030C0B28DF82A009A4847
:10353000806890FBF1F090FBF1F201FB120030305B
:10354000C0B28DF82B009448806890FBF1F201FB2B
:1035500012003030C0B28DF82C0000208DF82D0004
:103560008D480069A349B0FBF1F00A21B0FBF1F2EC
:1035700001FB120030308DF81C00874800699E491D
:10358000B0FBF1F00A21B0FBF1F201FB1200303088
:103590008DF81D00804800699849B0FBF1F00A21C0
:1035A000B0FBF1F201FB120030308DF81E007A48BA
:1035B00000699349B0FBF1F00A21B0FBF1F201FB85
:1035C000120030308DF81F00734800698D49B0FB40
:1035D000F1F00A21B0FBF1F201FB120030308DF85E
:1035E00020006D48006942F21071B0FBF1F00A2131
:1035F000B0FBF1F201FB120030308DF8210066487B
:1036000000694FF47A71B0FBF1F00A21B0FBF1F2DE
:1036100001FB120030308DF822005F480069642100
:10362000B0FBF1F00A21B0FBF1F201FB12003030E7
:103630008DF8230058480069B0FBF1F0B0FBF1F2BF
:1036400001FB120030308DF8240053480069B0FBB4
:10365000F1F201FB120030308DF8250000208DF8CA
:1036600026004D48C08B42F2107190FBF1F00A2108
:1036700090FBF1F201FB12003030C0B28DF8140063
:103680004548C08B4FF47A7190FBF1F00A2190FB12
:10369000F1F201FB12003030C0B28DF815003E4847
:1036A000C08B642190FBF1F00A2190FBF1F201FB49
:1036B00012003030C0B28DF816003748C08B90FB36
:1036C000F1F090FBF1F201FB12003030C0B28DF846
:1036D00017003148C08B90FBF1F201FB1200303033
:1036E000C0B28DF8180000208DF819002A488069B2
:1036F00042F21071B0FBF1F00A21B0FBF1F201FBD4
:10370000120030308DF80C00234880694FF47A7134
:10371000B0FBF1F00A21B0FBF1F201FB12003030F6
:103720008DF80D001C4880696421B0FBF1F00A217E
:10373000B0FBF1F201FB120030308DF80E0016489C
:103740008069B0FBF1F0B0FBF1F201FB1200303008
:103750008DF80F0010488069B0FBF1F201FB1200F8
:1037600030308DF8100000208DF811000A480078E4
:103770003030C4B203A805AB07AA0AA9CDE90004FA
:1037800021A000F0E3F900BF00F07AFC00BF7BE667
:103790000D0000206C2C0020482C0020454545459C
:1037A00045454545454545454545454545454545C9
:1037B0004545454545454500B03CFFFF52525252F4
:1037C00052525252525252525252525252525252D9
:1037D00052525252525252004F4F4F4F4F4F4F4F33
:1037E0004F4F4F4F4F4F4F4F4F4F4F4F4F4F4F4FE9
:1037F0004F4F4F0000CA9A3B00E1F50580969800B4
:1038000040420F00A08601004425732573257325CF
:103810007325630010B540F22551134800F054F8A9
:1038200008B3114800F00CF9C4B210480078102811
:1038300008D20F480D49097844540C480078401CC0
:103840000A49087009480078102806D30121094860
:1038500000F013FC00200549087040F22551024891
:1038600000F00AF800BF10BD003801401800002029
:103870006C2C00201900002010B50022002340F617
:103880006A14A14200D100BF0A1201249440A3B2DD
:10389000DC43048010BD21B1828942F40052828150
:1038A00004E082894DF6FF731A4082817047024618
:1038B0000020B1F5007F00D100BF13880B400BB191
:1038C000012000E00020704770B50246002400236C
:1038D0000025002040F66A16B14200D100BFC1F3B6
:1038E000421501F01F03012606FA03F3012D02D150
:1038F0009689334006E0022D02D1168A334001E05A
:10390000968A33400C12012606FA04F416883440D5
:1039100013B10CB1012000E0002070BDF0B50346EA
:10392000002400260025002040F66A17B94200D185
:1039300000BF1846C1F3421401F01F06012707FA21
:1039400006F5012C01D10C3004E0022C01D110301D
:1039500000E014301AB107682F43076002E00768DF
:10396000AF430760F0BD00002DE9F04786B0054683
:103970000E460024A24600BFA1460027B08900B130
:1039800000BF2F462C8A4CF6FF700440F088044399
:103990002C82AC894EF6F3100440B088318908437C
:1039A000718908430443AC81AC8A4FF6FF40044060
:1039B000B0890443AC8201A8FFF758F81F4887423A
:1039C00002D1DDF810A001E0DDF80CA0A88900F418
:1039D000004040B10AEBCA0000EB0A103168490010
:1039E000B0FBF1F807E00AEBCA0000EB0A103168FF
:1039F0008900B0FBF1F86420B8FBF0F00401200965
:103A0000642101FB1089A88900F4004040B13220F4
:103A100000EBC900B0FBF1F000F00700044308E040
:103A2000322000EB09106421B0FBF1F000F00F0030
:103A300004432C8106B0BDE8F08700000038014047
:103A400001468888C0F308007047C1F308028280ED
:103A50007047000008B501210420FEF7B5FF4FF4C0
:103A60000070ADF8000003208DF8020018208DF8DA
:103A7000030069460848FEF74FFC4FF48060ADF83C
:103A8000000003208DF8020004208DF80300694631
:103A90000148FEF741FC08BD0008014000B585B0B3
:103AA00001218803FEF790FFFFF7D4FF4FF4E130C8
:103AB00001900020ADF80800ADF80A00ADF80C0048
:103AC0000C20ADF80E000020ADF8100001A90F4841
:103AD000FFF74AFF012240F225510C48FFF71EFF75
:103AE00025208DF8000003208DF8010000208DF8BE
:103AF000020001208DF803006846FEF70DFF01214A
:103B00000248FFF7C8FE05B000BD000000380140C4
:103B100010B5044600BF80210448FFF7C8FE002806
:103B2000F9D021460148FFF790FF10BD0038014051
:103B300010B5044604B910BD03E014F8010BFFF7FB
:103B4000E7FF20780028F8D100BFF4E70FB400B5F4
:103B5000C1B043A80090FF2101A8009B429AFCF746
:103B6000ADFB0020009001A8FFF7E2FF41B05DF837
:103B700014FB490050EAC12018BF04204A0D18BFA9
:103B800040F0010040F2FF72B2EB515F08BF40F01D
:103B90000200012808BF0520704730380A2801D2EA
:103BA000012070470020704770B502460B46002484
:103BB00001250021002B04DD10782D2801D14D1E98
:103BC00001210EE0505C302809DB505C392806DC0E
:103BD000505C303804EB840600EB460400E002E061
:103BE000491C9942EEDB00BF05FB04F070BD0000EC
:103BF0002DE9F047044600F069FA0646301B4FF401
:103C00007A7190FBF1F7384601F0FAF80546084959
:103C1000284601F041F98146002100F0F3FF0746F4
:103C200001F0B2F88046284601F0AEF8BDE8F08712
:103C30000000C84270B5002400BF08211948FEF7F3
:103C40003FFC0128F9D0002517E010211548FEF7A8
:103C500042FC0120FFF7EAFB640010211148FEF747
:103C600038FC0120FFF7E2FB08210E48FEF728FC94
:103C7000012800D1641C681C45B2182DE5DB84F4D2
:103C8000000410210748FEF726FC0120FFF7CEFBB9
:103C900010210448FEF71DFC0120FFF7C7FB20465A
:103CA00070BD0000000C0140FEF79EFE354800F09C
:103CB000FEF9FEF717FDFDF79DFFFFF705FAFFF789
:103CC00075FBFFF7BFFBFEF703FBFFF7E7FE1021D5
:103CD0002D48FEF700FC0A20FFF7A8FB10212A4818
:103CE000FEF7F7FB0A20FFF7A1FB00240BE000F032
:103CF000EDF9244948600846406818B900F0E6F933
:103D000020494860641C032CF1DB3AE000240BE0FE
:103D100000F0DCF91B4948600846406818B900F01B
:103D2000D5F918494860641C032CF1DB00211748C1
:103D300000F0A3F90021164800F09FF90021154872
:103D400000F09BF90021144800F097F90021134876
:103D500000F093F900F09EF8114800F03DF811488A
:103D600000F03AF8104800F037F8104800F034F846
:103D70000F4800F031F80F4800F02EF8012000F055
:103D800091F8C3E7482C0020000C01400C000020F3
:103D9000100000200D0000200E0000200F00002069
:103DA0007131000851210008612C0008B12E000873
:103DB000C12C00088534000800B5024672B603E045
:103DC00062B600F05DF972B610780028F8DD107860
:103DD000401E107062B600BD10B5044672B6294888
:103DE000006800F09BF82748006800EBC00101EB79
:103DF0000010254901EB8010C0F8384621480068C2
:103E000078B92048006800EB4000204901EB8000B1
:103E10001C49096801EB41011C4A02EB8101486021
:103E200017E01848006800EB4000184901EB8001DA
:103E300014480068401E00EB4000144A02EB80006A
:103E4000416010460F49096801EB410102EB810115
:103E500048600E480E4908600A480068401C09493D
:103E60000860002007E0002100EB4002074B03EB55
:103E700082029160401C034909688842F3D362B60C
:103E8000012010BD08000020880000203400002020
:103E900004000020014802490860704740190100F1
:103EA0000000002070B5044600204FF0E0210861BA
:103EB00088611749096804FB01F0401E4FF0E021BA
:103EC000486148170021002804DB0A07130E114A35
:103ED000135406E00A07150E0F4A00F00F031B1FCC
:103EE000D55400BF4FF0E020006940F004004FF0CF
:103EF000E02108610846006940F0010008610846B9
:103F0000006940F002000861FCF794F970BD000000
:103F10000000002000E400E018ED00E000EBC0012C
:103F200001EB0011434A02EB811101F5C06100EB86
:103F30004002414B43F822104FF0807100EBC00269
:103F400002EB00123B4B03EB8212C2F83C164FF01F
:103F5000AA3100EBC00202EB001203EB8212C2F89E
:103F6000341600EBC00202EB001203EB8212C2F81F
:103F7000301600EBC00202EB001203EB8212C2F813
:103F80002C1600EBC00202EB001203EB8212C2F807
:103F9000281600EBC00202EB001203EB8212C2F8FB
:103FA000241600EBC00202EB001203EB8212C2F8EF
:103FB000201600EBC00202EB001203EB8212C2F8E3
:103FC0001C1600EBC00202EB001203EB8212C2F8D7
:103FD000181600EBC00202EB001203EB8212C2F8CB
:103FE000141600EBC00202EB001203EB8212C2F8BF
:103FF000101600EBC00202EB001203EB8212C2F8B3
:104000000C1600EBC00202EB001203EB8212C2F8A6
:10401000081600EBC00202EB001203EB8212C2F89A
:10402000041600EBC00202EB001203EB8212C2F88E
:1040300000167047880000203400002008480068FF
:1040400040680749086004E0054800684068044982
:1040500008600348006880680028F5D170470000B8
:104060000400002072B60178491C01700178012912
:1040700001DD0121017062B67047017070470000D8
:1040800000204FF0E02188610348006840F0806024
:10409000014908607047000004ED00E00121017053
:1040A000002141708161C1838160016170470121FC
:1040B000017000214170818281618183C1834160EF
:1040C00081600173016180F8211070472DE9F0478C
:1040D00000240225A14606E0FFF7ACFD044409F1E7
:1040E00001001FFA80F9A945F6DB94FBF5F8084FAB
:1040F0000849A8EB010000F083FE8246394600F033
:10410000CBFE814600F040FE06463046BDE8F08713
:104110000000D84168A37A0010B500290AD00878B9
:10412000002807D005487844FDF708F9002801D099
:10413000002010BD0248784410BD00007E11000030
:104140007611000010B500290AD00878002807D0A1
:1041500005487844FDF7F2F8002801D0002010BD92
:104160000248784410BD00006E1100006611000086
:1041700021F00042A2F16052B2F5801F01F000432D
:1041800028BFD2F17F6C0BD95FEA001C43EAC20260
:1041900042EB507018BF704728BF20F001007047F5
:1041A000B2F5801FBCBF184670474FEA410C1CF5A2
:1041B000001F02D2084600F036BF70B500F014FBB5
:1041C00000000089FFF7F6BF4FF00040A0F5800027
:1041D0007047000010B591EA030F48BF83F0004319
:1041E00000F19483841A71EB030C05D2121943EB8E
:1041F0000C03001B61EB0C01DFF824E14FEA1154C2
:10420000A4EB135C1EEA430F18BF9EEA445F73D011
:1042100023EA0E03DCF1200E21EA045143F480135B
:1042200032D322FA0CFE10EB0E0023FA0CFE41EB07
:104230000E01CCF1200E03FA0EFE10EB0E0051F130
:104240000001B1F5801FCCF1200E32D201EB0451F8
:1042500012FA0EF2BDE8104058BF7047401C38BF3C
:104260005FEA420218BF7047002814BF20F0010027
:1042700041F100014FEA410313F5001F38BF7047B9
:10428000A1F1C04100F0FEBA012A43EB0302ACF1F8
:10429000200CDCF11F0E32BF4FF0000E23FA0CF39E
:1042A00010EB030041EB0451B4EB115FD0D0A1EB54
:1042B000045101F5801149085FEA300001EB045117
:1042C0000ED350F1000038BF12FA0EFE08D1BDE83F
:1042D0001040C9E7401C38BF5FEA4202CAD1C3E7B9
:1042E000BDE810404FEA410313F5001F38BF704787
:1042F000A1F1C04100F0C6BA9EEA445F08D011EABD
:104300005E0FBDE8104004BF01F00041002070477F
:10431000BDE8104070B500F067FA00BF64FBBE3E18
:104320000000E0FF491058BFC1F140415B1058BF89
:10433000C3F140438B42EFF3008070472DE9C04149
:1043400030B4DFF8A0C23CEA111418BF3CEA1314E1
:1043500000F0EC8081EA03051CEA111444EAD574EC
:1043600018BF1CEA131500F0C780A4EB05044FF03A
:10437000004545EAC12145EAC32341EA505143EAD9
:10438000525304F17F74994204F500344FEAC0207F
:104390004FEAC22208BF904200F09C804FEA1365AA
:1043A0000FF24016765D4FEA134506FB05F7C7F19D
:1043B000807706FB07F74FEAD737A7FB03687642FB
:1043C000C8F58038A7FB06CE38BFA8F1010807FB67
:1043D00008E64FF0000EA6FB028CE6FB03CEDCF1F4
:1043E000000CCEF1004E38BFAEF1010EA6FB0C580A
:1043F0004FF000074FF00005E6FB0E87A1FB08C653
:10440000A0FB07CE16EB0E0645F10005E1FB0765A4
:1044100015F1E04E7EBFA4F580345FEA46066D419B
:1044200016F1800745F100054FEA17274FEA0666A7
:1044300047EA0567A6F1DE46B6F1805F4FEA15252B
:104440001FD9384624F0010C05EBC471BCF1FE6F96
:1044500001EB0C1102D8F0BCBDE8008124425CBF26
:1044600001F5801E9EEAC47F02D4F0BCBDE8008145
:10447000244238D4F0BCA1F1C041BDE8004100F0B5
:1044800001BA4FEAD22242EA43524FEAD323A7FBB2
:1044900002864FEAD02040EA415007FB03661EEA3D
:1044A0000E0F4FEAD12105FB026658BFA6EB00565E
:1044B000B6EB00564FEA520E4EEAC37E18EB0E0ED4
:1044C00056EB530EBDD518EB02085E417F1C55F12B
:1044D0000005B6E74FF480154FF000074FF00006D7
:1044E0004FF00008ADE7F0BC4FF0000001F1C04113
:1044F00001F00041BDE8008111EA0C1F0CEA131520
:1045000000D00CE013EA0C1F00F025804FF00000F3
:10451000F0BC81EA030101F00041BDE80081F0BC7C
:10452000BDE8004181EA030100F0ACB9F0BCBDE890
:10453000004170B500F058F9097EFC3E00F007B864
:1045400081EA03014FF0000001F00041704781EA69
:10455000030100F097B9F0BCBDE800414FF0000046
:1045600021497047FFFDFBF9F7F5F4F2F0EEEDEBB2
:10457000E9E8E6E4E3E1E0DEDDDBDAD8D7D5D4D361
:10458000D1D0CFCDCCCBCAC8C7C6C5C4C2C1C0BFAD
:10459000BEBDBCBBBAB9B8B7B6B5B4B3B2B1B0AFB3
:1045A000AEADACABAAA9A8A8A7A6A5A4A3A3A2A197
:1045B000A09F9F9E9D9C9C9B9A9999989797969552
:1045C00095949393929191908F8F8E8E8D8C8C8BEE
:1045D0008B8A898988888787868585848483838276
:1045E000828181800000FF070000F87F10F0004208
:1045F00048BF4042B0FA80F310FA03F10AD0C3F189
:104600001D0303F580634FEA415002EB035202EBB6
:10461000D12170474FF000007047000051EA030CB1
:1046200017D41CF5801F58BFBCF5801F00F1068011
:10463000994218BF704708BF9042704707D711F5DD
:10464000801F58BF13F5801F19D4994270478942C3
:1046500070471CF5801F08D5BCF5801FF7D58B422D
:1046600018BF704708BF824270474FF4001C1CEB14
:10467000410F38BF1CEB430F01D28B42704770B51E
:1046800000F0B2F8922449004FF000514FF08053EF
:10469000FFF748BEDFF848C170B51CEA111E1EBF07
:1046A0001CEA13159EEA0C0F95EA0C0F00F06F80C0
:1046B00081EA030423EA4C134EEAD47E21EA4C112A
:1046C00041F4801143F48013AE44A1FB024CA0FBE3
:1046D0000365AEF17F7E361955EB0C05A1FB034C4B
:1046E0004CF10003A0FB021C16EB0C06654153F1D4
:1046F0000003094218BF46F0010613F4007F0BD1F6
:104700004FEA03314FEA0530340341EA155140EADC
:1047100016506FF003020AE04FEAC3214FEAC520AA
:10472000F40241EA555140EA56506FF0020202EBA2
:104730002E4201EB025585EACE710AD05FEA440CA5
:1047400018BF24F0004450F1000041F1000120EABC
:10475000D47040F2FE7C624500D270BDA84214BF06
:104760004FF080444FF04044002E08BF0024BEF1BB
:10477000806FA8BFA1F1C041BDE8704080F2828087
:104780004FF0000001F1C04101F0004170479EEA86
:104790000C0F0CEA131518BF95EA0C0F06D04FF05A
:1047A000000081EA030E0EF0004170BD00F01CF81D
:1047B0008900013E00F007B800F009B84FEA430C49
:1047C0005FEA5C5C08D081EA030100F05BB84FEA65
:1047D000410C5FEA5C5CF6D14FF000000149704784
:1047E0000000FF070000F87F0EF1020E2EF0030E0E
:1047F0005EF8046B364205D4012A43EB030515F538
:10480000001F12D8012841EB010C1CF5001F0CD829
:104810000ED14FEAD17C15F5001F0CEB4C0C0CF1BE
:10482000020C08BF4CEBD37C04E04FF0080C01E015
:104830004FEAD37C0CEB4C0526FA05F606F007068A
:10484000B6F1040C06D20EEB860CBDE870404CF0BD
:10485000010C6047DFE80CF0090B02024FF0004149
:104860004FF00000A1F5002170BD19461046012847
:1048700051EB010418BFD4F5001484BF002001F0EF
:10488000004170BD0808A0F500114FEA31017047E2
:1048900053EA010C17D41CF5801F58BFBCF5801FCC
:1048A00000F106808B4218BF704708BF82427047F4
:1048B00007D713F5801F58BF11F5801F19D48B42FD
:1048C00070479B4270471CF5801F08D5BCF5801FC0
:1048D000F7D5994218BF704708BF904270474FF410
:1048E000001C1CEB430F38BF1CEB410F01D2994257
:1048F00070470FB40CBC03BCFFF7C1BE10B591EA02
:10490000030F48BF83F000433FF56CAC841A71EB92
:10491000030C07D212198CF0004C43EB0C03001B64
:1049200061EB0C01DFF8A4E14FEA1154A4EB135C36
:104930001EEA430F18BF9EEA445F00F0B08023EAEE
:104940006E03524221EA0451C3EB6E0338BF5B1E73
:10495000DCF1200E25D322FA0CFE10EB0E0043FAF8
:104960000CFE41EB0E01CCF1200E03FA0EFE10EB13
:104970000E0051F10001CCF1200E29D412FA0EF2F2
:1049800001EB0451BDE8104058BF7047401C1CBFEC
:10499000B2F1004F704700280CBF491C20F0010005
:1049A000704712EB020E43EB030218BF4FF0010EEB
:1049B0004EEA4202ACF1200CDCF11E0E54D943FA4F
:1049C0000CFE10EB0E0051F1FF31CCF11E0ED5D5CF
:1049D0000EF1010E12FA0EFE404141EB010101EB16
:1049E000445C5FEA5C5C10D910EBDE7001EB0451B3
:1049F00038BFBEF1004FBDE8104018BF7047002817
:104A00000CBF491C20F00100704730D24FEAD42C73
:104A100011F5001124F400641BD0B1FA81F20B3AB5
:104A2000A41AA41ED2F12003914030FA03F31943D3
:104A3000904001EBCC71002C01EB0451BDE810401B
:104A4000A8BF704701F1C0414FF0000001F00041E4
:104A50007047B0FA80F310FA03F100D110BDE41AE8
:104A6000173C4805C90AE4E701EB045110BD4910A1
:104A700001EB0451BDE810404FEA300002E04FF076
:104A8000000170474A0008BF0042F8D0B2F5001F8D
:104A900028BF704701F000414FF0000070479EEAC8
:104AA000445F07D011EA5E0FBDE8104004BF00214B
:104AB00000207047BDE8104070B5FFF795FE00BFBD
:104AC00040DFF63E83F00041104670470000E0FFF3
:104AD00043004FEAD30C4FEA3C0C43401FBF400752
:104AE0000CF1605113F0FE4F70471CF0006F03D1C2
:104AF00000200CF0004170470CF0004343EA507076
:104B000010B540EACC0000F048FA00BF0000009267
:104B10004FEA0001FFF7B6BE4FF000414FF0000032
:104B2000A1F500217047000090EA010F48BF81F015
:104B3000004100F1B682421A3CBF801A89184FEA40
:104B4000D0524FF07F4C1CEA410FA2EBD15318BF5B
:104B50009CEA026F00F03B804FF0004C4CEA0020D2
:104B60004CEA012121FA03FC10EB0C0C1ED202F1DD
:104B7000FF325FEA1C2040EBC25038BF70471CF088
:104B80007F0F4FEA400C18BFBCF17F4F38BF704712
:104B9000C3F12003994008BF20F00100BCF17F4F12
:104BA00038BF7047A0F1C04000F03DBA4FEA3C006A
:104BB000000A40EBC25028BF1CF0FF0F4FEA400C28
:104BC000E6D018BFBCF17F4F38BF7047EAE79CEAD8
:104BD000026F05D010EA5C0F08BF00F0004070477C
:104BE00010B500F0DAF900BF64FBBE3E401058BFBC
:104BF000C0F14040491058BFC1F140418142EFF33C
:104C0000008070474FF47F0C1CEAD0121EBF1CEAD4
:104C1000D11392EA0C0F93EA0C0F00F0858090EA12
:104C2000010F48BF42F4807240F4000C41F40000D0
:104C30002CF07F4120F07F4000B58142A2EB0302BF
:104C40000FF2081CACEB504EC0F100009EF800E0E3
:104C50004FEA4E0E00FB0EFC38BF49004FEA2C1CF9
:104C600002F5FA020CFB0EF34FEACE1E4FEA112CAE
:104C70004FEAC1210EEB635E42EB22420EFB0CFCBD
:104C80004FEA1C5300FB03114FEA112C4FEA01318C
:104C90000EFB0CFC4FEADC4C00FB0C11C14228BFA0
:104CA00009184CEB03335DF804EB10EB410143EBC7
:104CB000C250B2F57C0F38BF704729D512F0F00F03
:104CC0001CBF00F1C04000F00040704700818283AB
:104CD0008485868788898B8C8D8E8F91929395960B
:104CE00097999A9C9D9FA0A2A3A5A7A8AAACAEB095
:104CF000B2B3B5B7B9BCBEC0C2C5C7C9CCCED1D49A
:104D0000D7D9DCDFE2E6E9ECF0F3F7FAFE000000C9
:104D10004FEA400C0CF1807CBCF17E4F28BF7047FD
:104D2000B0F1C04000F07FB990EA010F0CEAD11356
:104D300048BF42F48072624538BF634507D213F41E
:104D40007F0F16D080EA010000F00040704710B5D8
:104D500000F023F9097EFC3E00F005B880EA01006E
:104D600000F00040704780EA010000F0004000F0D1
:104D70005AB912F47F0F04BF0248704780EA01005D
:104D800000F051B90000C07F41000B0ED3F19E022C
:104D900008D950F400034FEA032323FA02F048BF76
:104DA0004042704710B500F0F8F800BF49922480E7
:104DB000002070476FF0004282EA20007047000038
:104DC000C10DD1F19E0206DB4FEA002343F0004300
:104DD00023FA02F07047004207D54FEA4001B1F1D3
:104DE000FE4F02D24FF00000704710B500F0D5F82A
:104DF00049922480002070476FEA2000704700002D
:104E000010F0004148BF4042B0FA80F310FA03F2BC
:104E1000C3F19D030BD051EAC35101EB122053069D
:104E200038BF704700F1010008BF20F00100704753
:104E300050EA010C00F113801CF5000F58BFBCF5BF
:104E4000000F01D48842704707D710F5000F58BFF4
:104E500011F5000F15D488427047894270471CF540
:104E6000000F04D5BCF5000FF7D5814270474FF015
:104E7000807C1CEB400F38BF1CEB410F01D28142FC
:104E8000704710B500F089F8922449004FF00050A7
:104E90004FF08051FFF7AABE4FF47F0C1CEAD012EE
:104EA0001EBF1CEAD11392EA0C0F93EA0C0F00F01C
:104EB000478090EA010F48BF42F480724FF0004CE7
:104EC0004CEA00204CEA012102EB0302A0FB011393
:104ED000A2F50002002918BF43F001035B0028BFC0
:104EE0004FEA330342EB22425FEA132C4CEBC250F1
:104EF0002EBFBCEB436FB2F57C0F70474FEA036CDB
:104F0000BCF1004F08BF20F00100B2F57C0F38BFA4
:104F100070470BD582F0FF0212F5803FC8BF704783
:104F200000F1C040D8BF00F00040704700F5000C11
:104F30005FEA4C0C48BF7047B0F1C04000F073B856
:104F400090EA010F0CEAD11348BF42F48072624527
:104F500038BF634504D280EA010000F0004070478A
:104F600010B500F01AF800BF8900013E00F007B844
:104F700000F009B85FEA410C5FEA1C6C08D080EAD7
:104F8000010000F050B85FEA400C5FEA1C6CF6D1FB
:104F90004FF00040A0F5800070470EF1020E2EF099
:104FA000030E5EF8044B244204D44FEA4102B2F1EE
:104FB0007F4F11D84FEA4003B3F17F4F0CD80ED189
:104FC0004FEAD07CB2F17F4F0CEB4C0C0CF1020C91
:104FD00008BF4CEBD17C04E04FF0080C01E04FEA35
:104FE000D17C0CEB4C0324FA03F404F00704B4F175
:104FF000040C06D20EEB840CBDE810404CF0010C02
:105000006047DFE80CF0070802024FF00040A0F50F
:10501000800010BD0846420018BFD2F1807288BFE0
:1050200000F0004010BDFF2141EAD050C00570479C
:1050300051EA000C00F113801CF5000F58BFBCF5BD
:10504000000F01D48142704707D711F5000F58BFF8
:1050500010F5000F15D481427047894270471CF546
:10506000000F04D5BCF5000FF7D5884270474FF00C
:10507000807C1CEB410F38BF1CEB400F01D28842F3
:10508000704780EA010081EA000180EA0100FFF731
:10509000F8BE000090EA010F48BF81F000413FF5E3
:1050A0004AAD421A04D882F00042A0EB020011443B
:1050B0004FEAD0524FF07F4C1CEA410FA2EBD15384
:1050C00018BF9CEA026F4AD04FF0004C4CEA002017
:1050D0004CEA012121FA03FCB0EB0C0C0FD412F0C6
:1050E000FE0F36D05FEA4C001DD5001240EBC250D7
:1050F00038BF70471CF03F0F18BF70470BE0A2F19C
:1051000001025FEA1C2040EBC25038BF70471CF020
:105110007F0F18BF7047C3F12003994014BF401E92
:1051200020F00100704780084FEA122308BF704743
:10513000B0FA80FCA2EB0C02CCF1280C60FA0CF067
:1051400093EA122F04BF00EBC25070474FEAC370BE
:105150007047130A5FEADC1008BF7047F6E79CEA65
:10516000026F04D010EA5C0F08BF0020704710B532
:10517000FFF713FF40DFF63E81F000407047FBF77A
:10518000EBBCFBF71FBE040000080000000000009D
:1051900000020001000010000000000000000000FC
:1051A000303132333435363738394142434445465D
:1051B0004030580030313233343536373839616257
:1051C00063646566403078003031323334353637C9
:1051D0003839616263646566787000303132333427
:1051E000353637383941424344454658500000006F
:1051F00002400000000000A0000000000540000088
:10520000000000C8000000000C4000000000409CAE
:1052100000000000194000000020BCBE000000009B
:1052200034400000BFC91B8E00000004B5400000E0
:10523000504BCFD06607E2CF010000006C41000068
:105240003E8251AADFEEA73401000000D9420000DF
:10525000DCB5A0E23A301F97FFFFFFFFB445000026
:10526000FD25A0C8E9A3C14FFFFFFFFFFF3F0000DE
:105270000000008000000000FF3F000000000080F0
:1052800000000000D053000800000020340000009F
:10529000280100080454000834000020AC3200004B
:1052A000440100081C00000043000000F8FFFFFF5D
:1052B0000C0000000E0000000F0000002E00000097
:1052C0001001000043000000F8FFFFFF00404040D5
:1052D00040404040404041414141414040404040C9
:1052E0004040404040404040404040404005020275
:1052F0000202020202020202020202020220202034
:10530000202020202020200202020202020290908F
:10531000909090901010101010101010101010108D
:1053200010101010101010100202020202028888E1
:1053300088888888080808080808080808080808ED
:1053400008080808080808080202020240000000D5
:10535000000000000000000000000000000000004D
:10536000000000000000000000000000000000003D
:10537000000000000000000000000000000000002D
:10538000000000000000000000000000000000001D
:10539000000000000000000000000000000000000D
:1053A00000000000000000000000000000000000FD
:1053B00000000000000000000000000000000000ED
:1053C00000000000000000000000000000000000DD
:1053D00000000000000000000000000000000000CD
:1053E00000000000000000000000000000000000BD
:1053F000000000000102030401020304060708097B
:045400000204060894
:04000005080000ED02
:00000001FF
