:020000040800F2
:100000008006002089010008910100089301000882
:100010009501000897010008990100080000000000
:100020000000000000000000000000009B0100082C
:100030009D010008000000009F010008A1010008C8
:10004000A3010008A3010008A3010008A301000800
:10005000A3010008A3010008A3010008A3010008F0
:10006000A3010008A3010008A3010008A3010008E0
:10007000A3010008A3010008A3010008A3010008D0
:10008000A3010008A3010008A3010008A3010008C0
:10009000A3010008A3010008A3010008A3010008B0
:1000A000A3010008A3010008A3010008A3010008A0
:1000B000A3010008A3010008A3010008A301000890
:1000C000A3010008A3010008A3010008A301000880
:1000D000A3010008A3010008A3010008A301000870
:1000E000A3010008A3010008A301000800F002F822
:1000F00000F03AF80AA090E8000C82448344AAF188
:100100000107DA4501D100F02FF8AFF2090EBAE885
:100110000F0013F0010F18BFFB1A43F0010318473B
:10012000B4140000D4140000103A24BF78C878C179
:10013000FAD8520724BF30C830C144BF04680C60ED
:10014000704700000023002400250026103A28BF35
:1001500078C1FBD8520728BF30C148BF0B60704739
:100160001FB51FBD10B510BD00F031F81146FFF7E7
:10017000F7FF00F0CBFC00F04FF803B4FFF7F2FFFD
:1001800003BC00F057F800000948804709480047C1
:10019000FEE7FEE7FEE7FEE7FEE7FEE7FEE7FEE737
:1001A000FEE7FEE704480549054A064B7047000094
:1001B000AD0A0008ED000008800000208006002045
:1001C000800200208002002070477047704775460B
:1001D00000F02CF8AE4605006946534620F00700B3
:1001E000854618B020B5FFF7DDFFBDE820404FF091
:1001F00000064FF000074FF000084FF0000B21F011
:100200000701AC46ACE8C009ACE8C009ACE8C009DD
:10021000ACE8C0098D46704710B50446AFF30080C6
:100220002046BDE81040FFF7A8BF00000048704717
:100230001C00002001491820ABBEFEE7260002008A
:10024000704700004148806940F00C003F498861D8
:100250000846806940F0010088613D48406840F0F0
:1002600000703B4948603B48006820F00F00394966
:1002700008600846006840F0030008603548083010
:10028000006820F480703349083108603148006804
:1002900020F470402F4908600846006840F4405040
:1002A00008602C480830006820F4006029490831B3
:1002B00008602848006820F4702026490860084635
:1002C000006840F44030086022480830006820F49C
:1002D00080502049083108601E48006820F07040B6
:1002E0001C4908600846006840F040500860194802
:1002F0000830006820F400401649083108601648AC
:10030000006820F0F000144908600846006840F0DA
:100310003000086010480C30006820F002000E49E0
:100320000C3108600C48006820F470400A490860ED
:100330000846006840F44050086007480C300068E8
:1003400020F0080004490C3108607047001002409A
:100350000000014004080140000C01402DE9F0417B
:10036000024600250026002000230024002791F8E3
:1003700003C00CF00F0591F803C00CF0100CBCF199
:10038000000F03D091F802C04CEA050591F800C0B7
:10039000BCF1000F31D0146800202BE04FF0010CAD
:1003A0000CFA00F3B1F800C00CEA03069E4220D11B
:1003B00083004FF00F0C0CFA03F7BC4305FA03FC63
:1003C0004CEA040491F803C0BCF1280F06D14FF0A9
:1003D000010C0CFA00FCC2F814C00AE091F803C04A
:1003E000BCF1480F05D14FF0010C0CFA00FCC2F82B
:1003F00010C0401C0828D1D31460B1F800C0BCF173
:10040000FF0F34DD546800202EE000F1080C4FF09F
:10041000010808FA0CF3B1F800C00CEA03069E428A
:1004200021D183004FF00F0C0CFA03F7BC4305FAFF
:1004300003FC4CEA040491F803C0BCF1280F05D179
:1004400000F1080C08FA0CF8C2F8148091F803C007
:10045000BCF1480F07D100F1080C4FF0010808FA71
:100460000CF8C2F81080401C0828CED35460BDE8B8
:10047000F081000000B585B00121082000F028FAC5
:100480000121880500F004FA4FF44060ADF8100037
:1004900003208DF812001C208DF8130004A91148C8
:1004A000FFF75CFF104800F051F80020ADF80400A1
:1004B0004BF6FF70ADF806000020ADF808004FF4D1
:1004C0008060ADF80A000001ADF80C00074800900C
:1004D0006946054800F08CF80121034800F029F82E
:1004E00005B000BD000C014000580040A08601008E
:1004F00021B1028842F48062028004E002884FF653
:10050000FF331A400280704770B502460024002570
:1005100000230020958A138B1B0445EA030626F06E
:100520007F4404EA01068E4201D1012000E0002050
:1005300070BD21B1028842F00102028004E002880D
:100540004FF6FE731A4002807047000010B5044653
:100550000B48844209D10121480500F0A9F9002186
:100560004FF4001000F0A4F908E00121880500F024
:100570009FF900214FF4800000F09AF910BD0000AF
:100580000054004021B1028842F48072028004E0ED
:1005900002884FF6FF631A400280704721B102883B
:1005A00042F40072028004E002884FF6FF531A40C2
:1005B000028070470CB5024600200023019300938F
:1005C00000920B0F019321F07F41019B1BB1009B17
:1005D0001433009303E0090C009B18330093009B35
:1005E0001B680B400BB1012000E000200CBD000097
:1005F0002DE9F04385B004460D460026B146042798
:10060000DFF8CC80A6884FF6C0700640684600F040
:100610006FF9DDF808802F48B8FBF0F01FFA80F979
:1006200046EA0906A68020884FF6FE710840208021
:1006300000262949286888420CD828684000B8FB61
:10064000F0F087B2042F00DA04273E4309F10100DD
:10065000208427E0E8884BF6FF71884206D128689D
:1006600000EB4000B8FBF0F087B209E0286800EB2F
:10067000C00101EB0010B8FBF0F087B247F48047EF
:10068000C7F30B0008B947F0010747F400400643E1
:100690004FF4967009FB00F04FF47A7190FBF1F083
:1006A000401C2084A683208840F0010020802688FA
:1006B0004FF6F5300640A88869890843064326802E
:1006C000A88929890843208105B0BDE8F08300008E
:1006D00000127A0040420F00A086010070B5044667
:1006E0000E46002500BF4FF400313448FFF762FF8B
:1006F0000028F8D101213148FFF744FF00BF3049FD
:100700002E48FFF701FF0028F9D06006010E0022F5
:100710002A4800F05DF800BF2A492848FFF7F4FE98
:100720000028F9D03146254800F05BF800BF254984
:10073000891C2248FFF7E8FE0028F8D001211F4855
:10074000FFF720FF00BF1E491C48FFF7DDFE002811
:10075000F9D06006010E0122184800F039F800BFF8
:100760001749491C1548FFF7CFFE0028F8D0012192
:100770001248FFF7BDFE00BF11493F310F48FFF798
:10078000C3FE0028F8D00D4800F01EF80502002135
:100790000A48FFF7ADFE01210848FFF7FFFE00BF42
:1007A00007493F310548FFF7AFFE0028F8D003485E
:1007B00000F00AF80543284670BD000000580040CC
:1007C00001000300820007000146088AC0B270479A
:1007D00012B141F0010102E04FF6FE7319400182AF
:1007E000704701827047000070B505460E461446FA
:1007F00000BF4FF400312348FFF7DCFE0028F8D19A
:1008000001212048FFF7BEFE00BF1F491D48FFF72A
:100810007BFE0028F9D06806010E00221948FFF778
:10082000D7FF00BF19491748FFF76EFE0028F9D01F
:1008300031461448FFF7D5FF00BF1449891C114801
:10084000FFF762FE0028F8D0210A0E48FFF7C9FF23
:1008500000BF0E49891C0B48FFF756FE0028F8D050
:10086000E1B20848FFF7BDFF00BF0849891C0548F1
:10087000FFF74AFE0028F8D001210248FFF78EFE5C
:1008800070BD000000580040010003008200070016
:1008900029B1064AD2690243044BDA6104E0034AF3
:1008A000D2698243014BDA617047000000100240B8
:1008B00029B1064A12690243044B1A6104E0034A53
:1008C00012698243014B1A61704700000010024018
:1008D00029B1064A92690243044B9A6104E0034A33
:1008E00092698243014B9A617047000000100240F8
:1008F00030B500210022002400232D4D6D6805F045
:100900000C0121B1042905D0082923D105E0294D86
:10091000056022E0274D05601FE0254D6D6805F458
:100920007012234D6D6805F48034022505EB924268
:100930001CB9214D554305600BE01D4D6D6805F454
:1009400000351DB11C4D5543056002E0194D55435E
:10095000056002E0174D056000BF00BF144D6D68D3
:1009600005F0F0010909154D6B5C0568DD40456037
:100970000F4D6D6805F4E061090A104D6B5C456828
:10098000DD4085600A4D6D6805F46051C90A0B4D64
:100990006B5C4568DD40C560054D6D6805F4404100
:1009A000890B074D6B5CC568B5FBF3F5056130BD80
:1009B0000010024000127A0000093D0008000020EB
:1009C0001800002010B500F001F810BD0CB5002093
:1009D000019000903348006840F48030314908604D
:1009E00000BF3048006800F4003000900198401CBF
:1009F0000190009818B90198B0F5A06FF1D129487D
:100A0000006800F4003010B10120009001E00020E7
:100A100000900098012843D12348006840F010005E
:100A2000214908600846006820F007000860084671
:100A3000006840F0020008601A48406819494860A0
:100A40000846406848600846406840F48060486056
:100A50000846406820F47C1048600846406840F42E
:100A6000E81048600846006840F08070086000BFE9
:100A70000C48006800F000700028F9D00948406870
:100A800020F00300074948600846406840F0020033
:100A9000486000BF0348406800F00C000828F9D106
:100AA0000CBD0000001002400020024010B51348A9
:100AB000006840F00100114908600846406810498C
:100AC00008400E494860084600680E4908400B4936
:100AD00008600846006820F48020086008464068E6
:100AE00020F4FE0048604FF41F008860FFF76AFFA3
:100AF0004FF000600449086010BD00000010024083
:100B00000000FFF8FFFFF6FE08ED00E008B5FFF774
:100B1000CDFFFFF797FBFFF7ADFC00BF43E04EF2C0
:100B2000633201214820FFF75FFE00BF012148200A
:100B3000FFF7D4FD82460AF400400028F6D00021D9
:100B40004820FFF7CBFD0FFA80FB584600F0C6F9AE
:100B50008046154A154B00F0D9F906460022144B81
:100B600000F064F8044600F02FF8124908600846C7
:100B70000168114800F0B8FC0546104900F0E8FB98
:100B800004460C480168204600F020FB0C49086030
:100B90000020009002E00098401C00900949009855
:100BA0008842F8DB00BFBAE7FCA9F1D24D621040E1
:100BB0000000E040000000200000A0400050C347BB
:100BC0000400002020A1070021F00042A2F16052A1
:100BD000B2F5801F01F0004328BFD2F17F6C0BD922
:100BE0005FEA001C43EAC20242EB507018BF704734
:100BF00028BF20F001007047B2F5801FBCBF184627
:100C000070474FEA410C1CF5001F02D2084600F065
:100C100066BC70B500F024FA00000089FFF7F6BF4B
:100C20004FF00040A0F58000704700002DE9C04162
:100C300030B4DFF8A0C23CEA111418BF3CEA131428
:100C400000F0EC8081EA03051CEA111444EAD57433
:100C500018BF1CEA131500F0C780A4EB05044FF081
:100C6000004545EAC12145EAC32341EA505143EA20
:100C7000525304F17F74994204F500344FEAC020C6
:100C80004FEAC22208BF904200F09C804FEA1365F1
:100C90000FF24016765D4FEA134506FB05F7C7F1E4
:100CA000807706FB07F74FEAD737A7FB0368764242
:100CB000C8F58038A7FB06CE38BFA8F1010807FBAE
:100CC00008E64FF0000EA6FB028CE6FB03CEDCF13B
:100CD000000CCEF1004E38BFAEF1010EA6FB0C5851
:100CE0004FF000074FF00005E6FB0E87A1FB08C69A
:100CF000A0FB07CE16EB0E0645F10005E1FB0765EC
:100D000015F1E04E7EBFA4F580345FEA46066D41E2
:100D100016F1800745F100054FEA17274FEA0666EE
:100D200047EA0567A6F1DE46B6F1805F4FEA152572
:100D30001FD9384624F0010C05EBC471BCF1FE6FDD
:100D400001EB0C1102D8F0BCBDE8008124425CBF6D
:100D500001F5801E9EEAC47F02D4F0BCBDE800818C
:100D6000244238D4F0BCA1F1C041BDE8004100F0FC
:100D7000C5B94FEAD22242EA43524FEAD323A7FB36
:100D800002864FEAD02040EA415007FB03661EEA84
:100D90000E0F4FEAD12105FB026658BFA6EB0056A5
:100DA000B6EB00564FEA520E4EEAC37E18EB0E0E1B
:100DB00056EB530EBDD518EB02085E417F1C55F172
:100DC0000005B6E74FF480154FF000074FF000061E
:100DD0004FF00008ADE7F0BC4FF0000001F1C0415A
:100DE00001F00041BDE8008111EA0C1F0CEA131567
:100DF00000D00CE013EA0C1F00F025804FF000003B
:100E0000F0BC81EA030101F00041BDE80081F0BCC3
:100E1000BDE8004181EA030100F070B9F0BCBDE813
:100E2000004170B500F01CF9097EFC3E00F007B8E7
:100E300081EA03014FF0000001F00041704781EAB0
:100E4000030100F05BB9F0BCBDE800414FF00000C9
:100E500021497047FFFDFBF9F7F5F4F2F0EEEDEBF9
:100E6000E9E8E6E4E3E1E0DEDDDBDAD8D7D5D4D3A8
:100E7000D1D0CFCDCCCBCAC8C7C6C5C4C2C1C0BFF4
:100E8000BEBDBCBBBAB9B8B7B6B5B4B3B2B1B0AFFA
:100E9000AEADACABAAA9A8A8A7A6A5A4A3A3A2A1DE
:100EA000A09F9F9E9D9C9C9B9A9999989797969599
:100EB00095949393929191908F8F8E8E8D8C8C8B35
:100EC0008B8A8989888887878685858484838382BD
:100ED000828181800000FF070000F87F10F000424F
:100EE00048BF4042B0FA80F310FA03F10AD0C3F1D0
:100EF0001D0303F580634FEA415002EB035202EBFE
:100F0000D12170474FF0000070470000DFF848C162
:100F100070B51CEA111E1EBF1CEA13159EEA0C0FC9
:100F200095EA0C0F00F06F8081EA030423EA4C136A
:100F30004EEAD47E21EA4C1141F4801143F480132F
:100F4000AE44A1FB024CA0FB0365AEF17F7E3619D7
:100F500055EB0C05A1FB034C4CF10003A0FB021C5C
:100F600016EB0C06654153F10003094218BF46F029
:100F7000010613F4007F0BD14FEA03314FEA05302D
:100F8000340341EA155140EA16506FF003020AE0BB
:100F90004FEAC3214FEAC520F40241EA555140EA25
:100FA00056506FF0020202EB2E4201EB025585EA29
:100FB000CE710AD05FEA440C18BF24F0004450F10F
:100FC000000041F1000120EAD47040F2FE7C62454D
:100FD00000D270BDA84214BF4FF080444FF040448F
:100FE000002E08BF0024BEF1806FA8BFA1F1C04150
:100FF000BDE8704080F282804FF0000001F1C041F6
:1010000001F0004170479EEA0C0F0CEA131518BF5F
:1010100095EA0C0F06D04FF0000081EA030E0EF0A7
:10102000004170BD00F01CF88900013E00F007B8D7
:1010300000F009B84FEA430C5FEA5C5C08D081EA33
:10104000030100F05BB84FEA410C5FEA5C5CF6D14B
:101050004FF00000014970470000FF070000F87FD3
:101060000EF1020E2EF0030E5EF8046B364205D42C
:10107000012A43EB030515F5001F12D8012841EBA7
:10108000010C1CF5001F0CD80ED14FEAD17C15F5D0
:10109000001F0CEB4C0C0CF1020C08BF4CEBD37C8A
:1010A00004E04FF0080C01E04FEAD37C0CEB4C0558
:1010B00026FA05F606F00706B6F1040C06D20EEB8A
:1010C000860CBDE870404CF0010C6047DFE80CF086
:1010D000090B02024FF000414FF00000A1F5002182
:1010E00070BD19461046012851EB010418BFD4F514
:1010F000001484BF002001F0004170BD0808A0F575
:1011000000114FEA3101704790EA010F48BF81F0AA
:10111000004100F1F081421A3CBF801A89184FEA61
:10112000D0524FF07F4C1CEA410FA2EBD15318BFB5
:101130009CEA026F00F03B804FF0004C4CEA00202C
:101140004CEA012121FA03FC10EB0C0C1ED202F137
:10115000FF325FEA1C2040EBC25038BF70471CF0E2
:101160007F0F4FEA400C18BFBCF17F4F38BF70476C
:10117000C3F12003994008BF20F00100BCF17F4F6C
:1011800038BF7047A0F1C04000F0A9B94FEA3C0059
:10119000000A40EBC25028BF1CF0FF0F4FEA400C82
:1011A000E6D018BFBCF17F4F38BF7047EAE79CEA32
:1011B000026F05D010EA5C0F08BF00F000407047D6
:1011C00010B500F046F900BF64FBBE3E4FF47F0C43
:1011D0001CEAD0121EBF1CEAD11392EA0C0F93EA4C
:1011E0000C0F00F0858090EA010F48BF42F4807236
:1011F00040F4000C41F400002CF07F4120F07F40CF
:1012000000B58142A2EB03020FF2081CACEB504E7A
:10121000C0F100009EF800E04FEA4E0E00FB0EFC0D
:1012200038BF49004FEA2C1C02F5FA020CFB0EF302
:101230004FEACE1E4FEA112C4FEAC1210EEB635E3E
:1012400042EB22420EFB0CFC4FEA1C5300FB031145
:101250004FEA112C4FEA01310EFB0CFC4FEADC4C3B
:1012600000FB0C11C14228BF09184CEB03335DF899
:1012700004EB10EB410143EBC250B2F57C0F38BFD9
:10128000704729D512F0F00F1CBF00F1C04000F0EC
:1012900000407047008182838485868788898B8C93
:1012A0008D8E8F919293959697999A9C9D9FA0A2CF
:1012B000A3A5A7A8AAACAEB0B2B3B5B7B9BCBEC01F
:1012C000C2C5C7C9CCCED1D4D7D9DCDFE2E6E9ECC0
:1012D000F0F3F7FAFE0000004FEA400C0CF1807CBE
:1012E000BCF17E4F28BF7047B0F1C04000F0F7B8A6
:1012F00090EA010F0CEAD11348BF42F480726245B4
:1013000038BF634507D213F47F0F16D080EA01007F
:1013100000F00040704710B500F09BF8097EFC3EDD
:1013200000F005B880EA010000F00040704780EA54
:10133000010000F0004000F0D2B812F47F0F04BFAB
:101340000248704780EA010000F0C9B80000C07F81
:101350004FF47F0C1CEAD0121EBF1CEAD11392EA94
:101360000C0F93EA0C0F00F0478090EA010F48BF82
:1013700042F480724FF0004C4CEA00204CEA01210C
:1013800002EB0302A0FB0113A2F50002002918BF23
:1013900043F001035B0028BF4FEA330342EB2242D4
:1013A0005FEA132C4CEBC2502EBFBCEB436FB2F57F
:1013B0007C0F70474FEA036CBCF1004F08BF20F070
:1013C0000100B2F57C0F38BF70470BD582F0FF02E9
:1013D00012F5803FC8BF704700F1C040D8BF00F091
:1013E0000040704700F5000C5FEA4C0C48BF7047A6
:1013F000B0F1C04000F073B890EA010F0CEAD113CD
:1014000048BF42F48072624538BF634504D280EA27
:10141000010000F00040704710B500F01AF800BF5E
:101420008900013E00F007B800F009B85FEA410CFE
:101430005FEA1C6C08D080EA010000F050B85FEA57
:10144000400C5FEA1C6CF6D14FF00040A0F5800024
:1014500070470EF1020E2EF0030E5EF8044B24428C
:1014600004D44FEA4102B2F17F4F11D84FEA400352
:10147000B3F17F4F0CD80ED14FEAD07CB2F17F4F41
:101480000CEB4C0C0CF1020C08BF4CEBD17C04E0D3
:101490004FF0080C01E04FEAD17C0CEB4C0324FA2E
:1014A00003F404F00704B4F1040C06D20EEB840C30
:1014B000BDE810404CF0010C6047DFE80CF0070875
:1014C00002024FF00040A0F5800010BD0846420027
:1014D00018BFD2F1807288BF00F0004010BDFF211C
:1014E00041EAD050C005704790EA010F48BF81F033
:1014F00000413FF510AE421A04D882F00042A0EB42
:10150000020011444FEAD0524FF07F4C1CEA410FC9
:10151000A2EBD15318BF9CEA026F4AD04FF0004CA7
:101520004CEA00204CEA012121FA03FCB0EB0C0C40
:101530000FD412F0FE0F36D05FEA4C001DD500121A
:1015400040EBC25038BF70471CF03F0F18BF7047C8
:101550000BE0A2F101025FEA1C2040EBC25038BF51
:1015600070471CF07F0F18BF7047C3F120039940EC
:1015700014BF401E20F00100704780084FEA12237C
:1015800008BF7047B0FA80FCA2EB0C02CCF1280C2B
:1015900060FA0CF093EA122F04BF00EBC2507047C0
:1015A0004FEAC3707047130A5FEADC1008BF704748
:1015B000F6E79CEA026F04D010EA5C0F08BF002037
:1015C000704710B5FFF745FF40DFF63E81F0004061
:1015D00070470000F4150008000000201C00000007
:1015E00028010008101600081C00002064060000F6
:1015F000440100080000000000000000000000009E
:101600000102030401020304060708090204060894
:04000005080000ED02
:00000001FF
