:020000040800F2
:10000000E00C0020D1010008D9010008DB01000844
:10001000DD010008DF010008E10100080000000028
:10002000000000000000000000000000E3010008E4
:10003000E501000800000000A701000835040008E1
:10004000EB010008EB010008EB010008EB010008E0
:10005000EB010008EB010008EB010008EB010008D0
:10006000EB010008EB010008EB010008EB010008C0
:10007000EB010008EB010008EB010008EB010008B0
:10008000EB010008EB010008EB010008EB010008A0
:10009000EB010008EB010008EB010008EB01000890
:1000A000EB010008EB010008EB010008EB01000880
:1000B000EB010008EB010008EB010008EB01000870
:1000C000EB010008EB010008EB010008EB01000860
:1000D000EB010008EB010008EB010008EB01000850
:1000E000EB010008EB010008EB01000800F002F84A
:1000F00000F03AF80AA090E8000C82448344AAF188
:100100000107DA4501D100F02FF8AFF2090EBAE885
:100110000F0013F0010F18BFFB1A43F0010318473B
:100120007007000090070000103A24BF78C878C11B
:10013000FAD8520724BF30C830C144BF04680C60ED
:10014000704700000023002400250026103A28BF35
:1001500078C1FBD8520728BF30C148BF0B60704739
:100160001FB51FBD10B510BD00F055F81146FFF7C3
:10017000F7FF00F02DFA00F073F803B4FFF7F2FF79
:1001800003BC00F07BF8000010480268D2F800D0F1
:10019000BDE8F00F0FBC5DF804CB01B05DF804EBD7
:1001A00001B062B6704772B62DE9F00F07480168DA
:1001B000C1F800D001B500F03BFBBDE8014001688B
:1001C000D1F800D0BDE8F00F62B6704710000020F3
:1001D0000948804709480047FEE7FEE7FEE7FEE7DB
:1001E000FEE7FEE7FEE7FEE7FEE7FEE70448054917
:1001F000054A064B7047000049040008ED0000085E
:10020000E0060020E00C0020E0080020E0080020CC
:10021000704770477047754600F02CF8AE460500F1
:100220006946534620F00700854618B020B5FFF711
:10023000DDFFBDE820404FF000064FF000074FF013
:1002400000084FF0000B21F00701AC46ACE8C009F4
:10025000ACE8C009ACE8C009ACE8C0098D467047FD
:1002600010B50446AFF300802046BDE81040FFF70C
:1002700084BF0000004870477C0600200149182018
:10028000ABBEFEE726000200704700002D48006864
:1002900040F480302B49086000BF2A48006800F411
:1002A00000300028F9D02848006840F010002649A6
:1002B000086000BF2448006800F020000028F9D042
:1002C0002148006820F007001F49086008460068C0
:1002D00040F0020008601B48406820F4741019497F
:1002E00048600846406840F4E810486008464068A6
:1002F00043F6F0718843134948600846406840F46B
:10030000806048600846006840F08070086000BF68
:100310000C48006800F000700028F9D009484068D7
:1003200020F00300074948600846406840F002009A
:10033000486000BF0348406800F00C000828F9D16D
:1003400070470000001002400020024010B500F08D
:1003500001F810BD0CB500200190009033480068F2
:1003600040F480303149086000BF3048006800F434
:10037000003000900198401C0190009818B9019835
:10038000B0F5A06FF1D12948006800F4003010B139
:100390000120009001E0002000900098012843D146
:1003A0002348006840F010002149086008460068B2
:1003B00020F0070008600846006840F0020008606E
:1003C0001A4840681949486008464068486008462D
:1003D000406840F4806048600846406820F47C1023
:1003E00048600846406840F4E810486008460068E5
:1003F00040F08070086000BF0C48006800F000709A
:100400000028F9D00948406820F0030007494860F7
:100410000846406840F00200486000BF034840685A
:1004200000F00C000828F9D10CBD000000100240BB
:10043000002002400348006840F0805001490860F5
:100440007047000004ED00E010B51348006840F06C
:1004500001001149086008464068104908400E49EB
:100460004860084600680E4908400B490860084685
:10047000006820F4802008600846406820F4FE00F0
:1004800048604FF41F008860FFF760FF4FF0006086
:100490000449086010BD0000001002400000FFF891
:1004A000FFFFF6FE08ED00E010B5002804DB0A07A8
:1004B000130E054A135406E00A07140E034A00F00F
:1004C0000F031B1FD45410BD00E400E018ED00E042
:1004D0003D48806940F008003B4988613B4800681E
:1004E00020F47040394908600846006840F4004034
:1004F000086036480C30006840F0080033490C3181
:1005000008603248006820F47020304908600846CE
:10051000006840F4002008602C480C30006840F06F
:1005200010002A490C3108602848006820F4700047
:10053000264908600846006840F400000860234827
:100540000C30006840F0200020490C3108601F4842
:10055000006820F070601D4908600846006840F09F
:100560000060086019480C30006840F040001749EE
:100570000C3108601548006820F07040134908608D
:100580000846006840F00040086010480C300068E1
:1005900040F080000D490C3108600C48001D0068D7
:1005A00020F00F000949091D08600846006840F066
:1005B0000800086005480C30006840F4807003496A
:1005C0000C3108607047000000100240000C014030
:1005D0000F48806940F001000D4988610D4840686E
:1005E00040F000700B494860FFF750FEFFF770FFC6
:1005F00000F05EF8084800F015F8084800F012F81E
:10060000074800F00FF8012000F05AF800BFFEE79D
:10061000001002400000014041080008690800087D
:100620007D08000810B5044672B61D48006800F049
:1006300071F81B48006800EBC00101EB001019497C
:1006400001EB0010C0F888411548006858B91648F9
:100650001349096800EBC1001349114A126801EB04
:10066000C201486012E010480D49096800EBC10161
:100670000B480068401E0C4A02EBC0004160104667
:100680000146074A126801EBC20148600648074963
:10069000086003480068401C0149086062B610BD4C
:1006A000140000203C0000201C000020100000204E
:1006B0000148024908607047401901000C00002001
:1006C00010B5044600204FF0E02108618861104910
:1006D000096804FB01F0401E4FF0E0214861002151
:1006E000481EFFF7E1FE4FF0E020006940F00400F3
:1006F0004FF0E02108610846006940F00100086100
:100700000846006940F002000861FFF73DFD10BD9A
:100710000C00002000EBC00101EB0011424A02EB8B
:10072000011101F5A871414A42F830104FF0807173
:1007300000EBC00202EB00123B4B03EB0212C2F8CB
:100740008C114FF0AA3100EBC00202EB001203EB58
:100750000212C2F8841100EBC00202EB001203EB9C
:100760000212C2F8801100EBC00202EB001203EB90
:100770000212C2F87C1100EBC00202EB001203EB84
:100780000212C2F8781100EBC00202EB001203EB78
:100790000212C2F8741100EBC00202EB001203EB6C
:1007A0000212C2F8701100EBC00202EB001203EB60
:1007B0000212C2F86C1100EBC00202EB001203EB54
:1007C0000212C2F8681100EBC00202EB001203EB48
:1007D0000212C2F8641100EBC00202EB001203EB3C
:1007E0000212C2F8601100EBC00202EB001203EB30
:1007F0000212C2F85C1100EBC00202EB001203EB24
:100800000212C2F8581100EBC00202EB001203EB17
:100810000212C2F8541100EBC00202EB001203EB0B
:100820000212C2F8501170473C0000201C0000204A
:1008300002480068406801490860704710000020C5
:100840000DE00748006800F0080028B90548006876
:10085000401C0449086002E0002002490860F0E7FB
:10086000080C01400000002004E003480068401C20
:1008700001490860F9E700000400002004E0034893
:100880000068401C01490860F9E7000008000020EA
:10089000B0080008000000201C000000280100082B
:1008A000CC0800081C000020C40C00004401000813
:1008B0000000000000000000000000000000000038
:0C08C0000000000000000000000000002C
:04000005080000ED02
:00000001FF
