:020000040800F2
:100000006806002091010008990100089B01000882
:100010009D0100089F010008A101000800000000E8
:10002000000000000000000000000000A301000824
:10003000A501000800000000A7010008A9010008B0
:10004000AB010008AB010008AB010008AB010008E0
:10005000AB010008AB010008AB010008AB010008D0
:10006000AB010008AB010008AB010008AB010008C0
:10007000AB010008AB010008AB010008AB010008B0
:10008000AB010008AB010008AB010008AB010008A0
:10009000AB010008AB010008AB010008AB01000890
:1000A000AB010008AB010008AB010008AB01000880
:1000B000AB010008AB010008AB010008AB01000870
:1000C000AB010008AB010008AB010008AB01000860
:1000D000AB010008AB010008AB010008AB01000850
:1000E000AB010008AB010008AB01000800F002F80A
:1000F00000F03EF80AA090E8000C82448344AAF184
:100100000107DA4501D100F033F8AFF2090EBAE881
:100110000F0013F0010F18BFFB1A43F0010318473B
:10012000CC0F0000EC0F0000103A24BF78C878C153
:10013000FAD8520724BF30C830C144BF04680C60ED
:10014000704700000023002400250026103A28BF35
:1001500078C1FBD8520728BF30C148BF0B60704739
:100160001FB59DE8030000F0A9F81FBD10B510BD34
:1001700000F000F91146FFF7F3FF00F0A7FF00F0D1
:100180001EF903B4FFF7F2FF03BC00F04FF90000C3
:100190000948804709480047FEE7FEE7FEE7FEE71B
:1001A000FEE7FEE7FEE7FEE7FEE7FEE70448054957
:1001B000054A064B704700003D0F0008ED0000089F
:1001C0006800002068060020680200206802002005
:1001D00070B5064600F056F8056806F10B0020F0F1
:1001E0000704B4429CBF002070BD2B466A68BAB1B8
:1001F0001068A04210D304F1080188423CBF506847
:10020000586007D35168101941601168091B0160DB
:1002100058601460101D70BD13465268002AE7D163
:100220002146284600F036F80028DED170BD70B5B2
:100230000446051F00F026F80068002C14BF44682F
:1002400070BD002C18BFAC423CBF20466468F8D398
:1002500001680A18AA4218BF456003D12A680546FA
:100260001144016028684119A1421CBF6C6070BD37
:100270006168696021680844286070BD70477047F4
:1002800070470000004870470C000020704770471E
:100290007047704738B504460A4600206946AFF3F8
:1002A0000080002808BF38BD02460099204600F0B3
:1002B0003FF8012038BD012000F054B8F8B5AFF385
:1002C0000080054600200C46102000BF0646A819F5
:1002D000A0420DD9324669460020AFF300800700E6
:1002E00008BF00F03FF80098A04218BF0546C419A7
:1002F000FFF7C8FF05600746F01D20F0070046190C
:10030000284600F00AF8B44208BFF8BDA21B3146E7
:100310003868BDE8F84000F00BB800210160C0E982
:1003200001107047102070470048704704000020FB
:10033000034640688C46002818BF88423CBF0346ED
:100340004068F8D318681844884207D00CF10300BD
:1003500020F00700001D411A521A0146081D0A60CC
:10036000FFF765BF10B500F039F8BDE8104000F0A8
:100370002FB870477546FFF7D7FFAE4605006946B0
:10038000534620F00700854618B020B5FFF70EFF52
:10039000BDE820404FF000064FF000074FF0000886
:1003A0004FF0000B21F00701AC46ACE8C009ACE807
:1003B000C009ACE8C009ACE8C0098D46704710B56B
:1003C0000446AFF300802046BDE81040FFF7D9BED9
:1003D000002801D000F02AB87047000010B50128AD
:1003E00005D0002103A000F027F8012010BD09A1CD
:1003F000F8E7000053494752544D454D3A204F7598
:1004000074206F662068656170206D656D6F72790C
:10041000000000003A2048656170206D656D6F72C4
:100420007920636F727275707465640001491820D9
:10043000ABBEFEE72600020070B505460C460A205A
:1004400000E06D1C00F011F835B128780028F8D1D3
:1004500002E0641C00F009F814B120780028F8D1FB
:10046000BDE870400A20AFF3008008B569468DF8FA
:1004700000000320ABBE08BD0549096821F010014A
:10048000034A11601146096801431160704700007A
:100490000020024001460020034A106800F03800A6
:1004A0000843106070470000002002402DE9F04131
:1004B000024600250026002000230024002791F892
:1004C00003C00CF00F0591F803C00CF0100CBCF148
:1004D000000F03D091F802C04CEA050591F800C066
:1004E000BCF1000F31D0146800202BE04FF0010C5C
:1004F0000CFA00F3B1F800C00CEA03069E4220D1CA
:1005000083004FF00F0C0CFA03F7BC4305FA03FC11
:100510004CEA040491F803C0BCF1280F06D14FF057
:10052000010C0CFA00FCC2F814C00AE091F803C0F8
:10053000BCF1480F05D14FF0010C0CFA00FCC2F8D9
:1005400010C0401C0828D1D31460B1F800C0BCF121
:10055000FF0F34DD546800202EE000F1080C4FF04E
:10056000010808FA0CF3B1F800C00CEA03069E4239
:1005700021D183004FF00F0C0CFA03F7BC4305FAAE
:1005800003FC4CEA040491F803C0BCF1280F05D128
:1005900000F1080C08FA0CF8C2F8148091F803C0B6
:1005A000BCF1480F07D100F1080C4FF0010808FA20
:1005B0000CF8C2F81080401C0828CED35460BDE867
:1005C000F0810000F0B50A46002300240021002538
:1005D00000F00046B6F1004F02D11D4EF16901E076
:1005E0001B4E7168C0F3034583B200F44016B6F5A4
:1005F000401F08D121F07061154E766826F07066B4
:10060000134F7E6012E000F48016B6F5801F06D10D
:10061000032606FA05F4A14341F0706106E0460D99
:10062000360103FA06F6B14341F0706122B1460D7E
:10063000360103FA06F6314300F00046B6F1004FEA
:1006400002D1034EF16101E0014E7160F0BD000086
:100650000000014041617047016170472DE9FE4F84
:1006600007460C4600254FF480600290B0EB440F23
:1006700001D9650001E04FF4806508211F48FFF7AC
:10068000EBFF02211D48FFF7E5FF38120190AB4652
:100690005846FFF79DFD0646002004E001993154BD
:1006A000411C7754801CA842F8D34FEA4408B8FB99
:1006B000F5F9B8FBF5F005FB108AB9F1000F0CD085
:1006C0000020009006E0A9B2304600F067F90098DB
:1006D000401C009000984845F5D3BAF1000F04D0B3
:1006E0001FFA8AF1304600F059F902210348FFF75A
:1006F000B3FF3046FFF79BFDBDE8FE8F00080140C9
:1007000010B504210148FFF7A7FF10BD0008014004
:1007100010B504460A480088401E83B20948008884
:10072000401E82B20021084600F040F905480088CA
:10073000034A128800FB02F12046FFF78FFF10BD2D
:10074000000000200200002010B500F09FFCFFF721
:10075000D7FF00F003F9012000F0B2F90A2000F001
:100760007BFCCB2000F0ACF9392000F0BDF92C2047
:1007700000F0BAF9002000F0B7F9342000F0B4F925
:10078000022000F0B1F9CF2000F09AF9002000F02B
:10079000ABF9C12000F0A8F9302000F0A5F9E8205D
:1007A00000F08EF9852000F09FF9002000F09CF900
:1007B000782000F099F9EA2000F082F9002000F09A
:1007C00093F9002000F090F9ED2000F079F9642011
:1007D00000F08AF9032000F087F9122000F084F974
:1007E000812000F081F9F72000F06AF9202000F064
:1007F0007BF9C02000F064F9232000F075F9C120D6
:1008000000F05EF9102000F06FF9C52000F058F9F3
:100810003E2000F069F9282000F066F9C72000F0BA
:100820004FF9862000F060F9362000F049F94820A1
:1008300000F05AF93A2000F043F9552000F054F93D
:10084000B12000F03DF9002000F04EF9182000F032
:100850004BF9B62000F034F9082000F045F9822069
:1008600000F042F9272000F03FF9F22000F028F9CB
:10087000002000F039F9262000F022F9012000F0D4
:1008800033F9E02000F01CF90F2000F02DF93120A1
:1008900000F02AF92B2000F027F90C2000F024F9B1
:1008A0000E2000F021F9082000F01EF94E2000F083
:1008B0001BF9F12000F018F9372000F015F9072096
:1008C00000F012F9102000F00FF9032000F00CF9ED
:1008D0000E2000F009F9092000F006F9002000F0D0
:1008E00003F9E12000F0ECF8002000F0FDF80E2004
:1008F00000F0FAF8142000F0F7F8032000F0F4F804
:10090000112000F0F1F8072000F0EEF8312000F09F
:10091000EBF8C12000F0E8F8482000F0E5F80820E6
:1009200000F0E2F80F2000F0DFF80C2000F0DCF817
:10093000312000F0D9F8362000F0D6F80F2000F072
:10094000D3F8112000F0BCF8642000F085FB2920CA
:1009500000F0B6F8002000F059F810BD10B50421E1
:100960000A48FFF777FE0A2000F076FB02210748CD
:10097000FFF770FE0A2000F06FFB04210348FFF729
:100980006BFE02210148FFF767FE10BD0008014021
:1009900010B50446204600F0B5FA10BD70B5044607
:1009A0000D462946204600F09FFA70BDF8B507466F
:1009B0000C4615461E4638128DF80000F8B28DF828
:1009C000010028128DF80200E8B28DF803002A20F9
:1009D00000F076F80421684600F05CF820128DF8EB
:1009E0000000E0B28DF8010030128DF80200F0B284
:1009F0008DF803002B2000F063F80421684600F016
:100A000049F82C2000F05CF8F8BD000010B5044651
:100A1000362000F055F8012000F01EFB34B1012C07
:100A20000FD0022C18D0032C2CD120E0482000F04D
:100A30005BF8F020154908804FF4A0701449088035
:100A400021E0282000F050F84FF4A0700F490880F2
:100A5000F0200F49088016E0882000F045F8F020CB
:100A60000A4908804FF4A070094908800BE0E8208B
:100A700000F03AF84FF4A07004490880F0200449CF
:100A8000088000E000BF00BF10BD00000200002091
:100A90000000002070B504460D4608210748FFF706
:100AA000DBFD02210548FFF7D5FD29462046FFF76B
:100AB00075FF02210148FFF7CFFD70BD000801401E
:100AC00010B5044608210748FFF7C4FD0221054878
:100AD000FFF7C0FD2046FFF75BFF02210148FFF74B
:100AE000BBFD10BD0008014010B5044608210748B1
:100AF000FFF7B2FD02210548FFF7ACFD2046FFF7E6
:100B000047FF02210148FFF7A7FD10BD0008014083
:100B100029B1064AD2690243044BDA6104E0034A70
:100B2000D2698243014BDA61704700000010024035
:100B300029B1064A92690243044B9A6104E0034AD0
:100B400092698243014B9A61704700000010024095
:100B500010B51E48806940F001001C4988610121E0
:100B60001B48FFF72FFD4FF4803000F065F800BF01
:100B7000312000F02FF80028FAD00220FFF78AFC7D
:100B80001020FFF779FC4FF4E0114FF4803000F0B3
:100B900097F8012000F08EF800BF392000F01AF815
:100BA0000028FAD0002000F03BF84FF4806000F0FD
:100BB00069F8002000F072F8022000F08FF800BF02
:100BC00000F026F80828FBD110BD000000100240FC
:100BD0000002300010B501460022002300204A1117
:100BE000012A02D1094C236806E0022A02D1074CEF
:100BF000236A01E0054C636A01F01F02012494405E
:100C00001C400CB1012000E0002010BD001002408B
:100C10000248406800F00C007047000000100240DD
:100C200001460020034A506820F0F000084350605D
:100C300070470000001002401149096821F480311A
:100C40000F4A11601146096821F480211160B0F546
:100C5000803F03D0B0F5802F0ED106E00849096827
:100C600041F48031064A116007E00549096841F402
:100C7000A021034A116000E000BF00BF70470000E0
:100C80000010024001460020034A506820F4E06052
:100C900008435060704700000010024001460020E9
:100CA000034A506820F4605040EAC1005060704729
:100CB00000100240014908667047000000004242EF
:100CC00002460020044B586820F47C1042EA0103DD
:100CD0001843014B58607047001002400146002045
:100CE000034A506820F0030008435060704700003A
:100CF0000010024021B1028842F04002028004E06C
:100D000002884FF6BF731A400280704702460020E7
:100D100013890B400BB1012000E000207047014611
:100D2000888970478181704710B50022028802F4DB
:100D300041520B884C8823438C882343CC8823431F
:100D40000C8923434C8923438C892343CC89234337
:100D50001A430280838B4FF2FF74234083830B8AF4
:100D6000038210BD10B500F001F810BD0CB50020D5
:100D7000019000903348006840F4803031490860A9
:100D800000BF3048006800F4003000900198401C1B
:100D90000190009818B90198B0F5A06FF1D12948D9
:100DA000006800F4003010B10120009001E0002044
:100DB00000900098012843D12348006840F01000BB
:100DC000214908600846006820F0070008600846CE
:100DD000006840F0020008601A48406819494860FD
:100DE0000846406848600846406840F480604860B3
:100DF0000846406820F47C1048600846406840F48B
:100E0000E81048600846006840F08070086000BF45
:100E10000C48006800F000700028F9D009484068CC
:100E200020F00300074948600846406840F002008F
:100E3000486000BF0348406800F00C000828F9D162
:100E40000CBD0000001002400020024000B587B039
:100E5000012141F20400FFF76BFEE020ADF818001D
:100E600018208DF81B0003208DF81A0006A91C48D5
:100E7000FFF71CFB0E20ADF8180010208DF81B00AA
:100E800003208DF81A0006A91548FFF70FFB002074
:100E9000ADF804004FF48270ADF806000020ADF804
:100EA0000800ADF80A00ADF80C004FF40070ADF882
:100EB0000E001020ADF810000020ADF81200072041
:100EC000ADF8140001A90748FFF72EFF01210548DE
:100ED000FFF710FF0E210248FFF7BEFB07B000BD71
:100EE000000801400030014070B505460E46002460
:100EF00004E0285D00F006F8601C84B2B442F8DB20
:100F000070BD000010B5044600BF02210A48FFF77B
:100F1000FDFE0028F9D021460748FFF703FF00BF78
:100F200001210548FFF7F2FE0028F9D00248FFF73B
:100F3000F6FEC0B210BD00000030014010B51348ED
:100F4000006840F0010011490860084640681049F7
:100F500008400E494860084600680E4908400B49A1
:100F600008600846006820F4802008600846406851
:100F700020F4FE0048604FF41F008860FFF7F2FE87
:100F80004FF000600449086010BD000000100240EE
:100F90000000FFF8FFFFF6FE08ED00E021B1028837
:100FA00042F00102028004E002884FF6FE731A400C
:100FB00002807047002202881D4B98420ED01D4BC4
:100FC00098420BD0B0F1804F08D01B4B984205D00F
:100FD0001A4B984202D01A4B984204D14FF68F73A5
:100FE0001A404B881A43174B984207D0164B984229
:100FF00004D04FF6FF431A40CB881A4302808B88F7
:1010000083850B8803850A4B98420BD0094B984285
:1010100008D00E4B984205D00D4B984202D00D4B94
:10102000984201D10B7A0386012383827047000026
:10103000002C014000340140000400400008004042
:10104000000C00400010004000140040004001402F
:10105000004401400048014000B5034603E04FF45E
:101060007A7000F007F8181EA3F101018BB2F6D1D7
:1010700000BD00000021044A118000BF0249098818
:101080008142FBDB70470000240400400EB50121C3
:101090000220FFF73DFD4720ADF800000020ADF82D
:1010A00002004FF6FF70ADF804000020ADF8060016
:1010B0008DF8080069460448FFF77CFF01210248CB
:1010C000FFF76CFF0EBD000000040040FFF740FD7D
:1010D000FFF7DCFFFFF7BAFEFFF740FCFFF734FB3A
:1010E0004FF47840FFF714FB00BFFEE70C11000837
:1010F0000000002004000000280100081011000872
:101100000400002064060000440100084001F000D3
:04000005080000ED02
:00000001FF
