:020000040800F2
:10000000680600208901000891010008930100089A
:100010009501000897010008990100080000000000
:100020000000000000000000000000009B0100082C
:100030009D010008000000009F010008A1010008C8
:10004000A3010008A3010008A3010008A301000800
:10005000A3010008A3010008A3010008A3010008F0
:10006000A3010008A3010008A3010008A3010008E0
:10007000A3010008A3010008A3010008A3010008D0
:10008000A3010008A3010008A3010008A3010008C0
:10009000A3010008A3010008A3010008A3010008B0
:1000A000A3010008A3010008A3010008A3010008A0
:1000B000A3010008A3010008A3010008A301000890
:1000C000A3010008A3010008A3010008A301000880
:1000D000A3010008A3010008A3010008A301000870
:1000E000A3010008A3010008A301000800F002F822
:1000F00000F03AF80AA090E8000C82448344AAF188
:100100000107DA4501D100F02FF8AFF2090EBAE885
:100110000F0013F0010F18BFFB1A43F0010318473B
:100120007809000098090000103A24BF78C878C107
:10013000FAD8520724BF30C830C144BF04680C60ED
:10014000704700000023002400250026103A28BF35
:1001500078C1FBD8520728BF30C148BF0B60704739
:100160001FB51FBD10B510BD00F031F81146FFF7E7
:10017000F7FF00F0DFFA00F04FF803B4FFF7F2FFEB
:1001800003BC00F057F800000948804709480047C1
:10019000FEE7FEE7FEE7FEE7FEE7FEE7FEE7FEE737
:1001A000FEE7FEE704480549054A064B7047000094
:1001B000D5060008ED000008680000206806002051
:1001C000680200206802002070477047704775463B
:1001D00000F02CF8AE4605006946534620F00700B3
:1001E000854618B020B5FFF7DDFFBDE820404FF091
:1001F00000064FF000074FF000084FF0000B21F011
:100200000701AC46ACE8C009ACE8C009ACE8C009DD
:10021000ACE8C0098D46704710B50446AFF30080C6
:100220002046BDE81040FFF7A8BF00000048704717
:100230000400002001491820ABBEFEE726000200A2
:100240007047000070B500F027F80546284600F01A
:100250003FFB0646034900F079FA0446024900F0E4
:100260004FFB70BDFEFFFF4A0000204010B500F0BC
:1002700049F80821002000F05FF80021022000F07A
:100280005BF80321084600F057F8FC2000F05AF90B
:10029000002000F057F910BD38B500BF0121174804
:1002A00000F0EFF80028F9D11021154800F0F2F81D
:1002B000012000F047F90020009002E00098401C67
:1002C000009000980A28F9D3FF2000F03BF904467B
:1002D000FF2000F037F940EA0424FF2000F032F953
:1002E00040EA042404F4000008B144F07F441021E3
:1002F000034800F0D1F8204638BD0000000C014052
:100300000008014008B510210A4800F0C3F8FE209B
:1003100000F018F90020009002E00098401C0090C6
:100320004CF2503100988842F7D31021014800F078
:10033000B3F808BD0008014070B504460D46102111
:10034000094800F0A7F804F00F0141F0500000F058
:10035000F9F8002000F0F6F8284600F0F3F8102134
:10036000014800F099F870BD000801402DE9F04106
:10037000024600250026002000230024002791F8D3
:1003800003C00CF00F0591F803C00CF0100CBCF189
:10039000000F03D091F802C04CEA050591F800C0A7
:1003A000BCF1000F31D0146800202BE04FF0010C9D
:1003B0000CFA00F3B1F800C00CEA03069E4220D10B
:1003C00083004FF00F0C0CFA03F7BC4305FA03FC53
:1003D0004CEA040491F803C0BCF1280F06D14FF099
:1003E000010C0CFA00FCC2F814C00AE091F803C03A
:1003F000BCF1480F05D14FF0010C0CFA00FCC2F81B
:1004000010C0401C0828D1D31460B1F800C0BCF162
:10041000FF0F34DD546800202EE000F1080C4FF08F
:10042000010808FA0CF3B1F800C00CEA03069E427A
:1004300021D183004FF00F0C0CFA03F7BC4305FAEF
:1004400003FC4CEA040491F803C0BCF1280F05D169
:1004500000F1080C08FA0CF8C2F8148091F803C0F7
:10046000BCF1480F07D100F1080C4FF0010808FA61
:100470000CF8C2F81080401C0828CED35460BDE8A8
:10048000F0810246002093680B400BB1012000E090
:1004900000207047416170470161704729B1064AE9
:1004A00092690243044B9A6104E0034A92698243D1
:1004B000014B9A61704700000010024000B587B000
:1004C000012141F20400FFF7E9FFE020ADF804004C
:1004D00018208DF8070003208DF8060001A91748A1
:1004E000FFF744FF1020ADF804008DF8070001A9C4
:1004F0001248FFF73BFF0020ADF808004FF4827070
:10050000ADF80A000020ADF80C000220ADF80E0096
:100510000120ADF810004002ADF812000820ADF83F
:1005200014000020ADF8160002A9054800F040F8BC
:100530000121034800F022F807B000BD0008014087
:100540000030014010B5044600BF02210A4800F007
:1005500021F80028F9D02146074800F027F800BF0D
:100560000121054800F016F80028F9D0024800F0F3
:100570001AF8C0B210BD00000030014021B102885D
:1005800042F04002028004E002884FF6BF731A4036
:10059000028070470246002013890B400BB10120F6
:1005A00000E00020704701468889704781817047CC
:1005B00010B50022028802F441520B884C88234374
:1005C0008C882343CC8823430C8923434C892343C1
:1005D0008C892343CC8923431A430280838B4FF2B7
:1005E000FF74234083830B8A038210BD10B500F093
:1005F00001F810BD0CB50020019000903348006850
:1006000040F480303149086000BF3048006800F491
:10061000003000900198401C0190009818B9019892
:10062000B0F5A06FF1D12948006800F4003010B196
:100630000120009001E0002000900098012843D1A3
:100640002348006840F0100021490860084600680F
:1006500020F0070008600846006840F002000860CB
:100660001A4840681949486008464068486008468A
:10067000406840F4806048600846406820F47C1080
:1006800048600846406840F4E81048600846006842
:1006900040F08070086000BF0C48006800F00070F7
:1006A0000028F9D00948406820F003000749486055
:1006B0000846406840F00200486000BF03484068B8
:1006C00000F00C000828F9D10CBD00000010024019
:1006D0000020024010B51348006840F001001149A5
:1006E000086008464068104908400E4948600846BE
:1006F00000680E4908400B4908600846006820F46D
:10070000802008600846406820F4FE0048604FF4EE
:100710001F008860FFF76AFF4FF00060044908601F
:1007200010BD0000001002400000FFF8FFFFF6FEC1
:1007300008ED00E0FFF7C2FEFFF798FD03E0FFF7CA
:1007400081FD01490860FAE7000000204FF47F0CAA
:100750001CEAD0121EBF1CEAD11392EA0C0F93EAD6
:100760000C0F00F0858090EA010F48BF42F48072C0
:1007700040F4000C41F400002CF07F4120F07F4059
:1007800000B58142A2EB03020FF2081CACEB504E05
:10079000C0F100009EF800E04FEA4E0E00FB0EFC98
:1007A00038BF49004FEA2C1C02F5FA020CFB0EF38D
:1007B0004FEACE1E4FEA112C4FEAC1210EEB635EC9
:1007C00042EB22420EFB0CFC4FEA1C5300FB0311D0
:1007D0004FEA112C4FEA01310EFB0CFC4FEADC4CC6
:1007E00000FB0C11C14228BF09184CEB03335DF824
:1007F00004EB10EB410143EBC250B2F57C0F38BF64
:10080000704729D512F0F00F1CBF00F1C04000F076
:1008100000407047008182838485868788898B8C1D
:100820008D8E8F919293959697999A9C9D9FA0A259
:10083000A3A5A7A8AAACAEB0B2B3B5B7B9BCBEC0A9
:10084000C2C5C7C9CCCED1D4D7D9DCDFE2E6E9EC4A
:10085000F0F3F7FAFE0000004FEA400C0CF1807C48
:10086000BCF17E4F28BF7047B0F1C04000F00FB917
:1008700090EA010F0CEAD11348BF42F4807262453E
:1008800038BF634507D213F47F0F16D080EA01000A
:1008900000F00040704710B500F0B3F8097EFC3E50
:1008A00000F005B880EA010000F00040704780EADF
:1008B000010000F0004000F0EAB812F47F0F04BF1E
:1008C0000248704780EA010000F0E1B80000C07FF4
:1008D00010F0004148BF4042B0FA80F310FA03F232
:1008E000C3F19D030BD051EAC35101EB1220530613
:1008F00038BF704700F1010008BF20F001007047C9
:100900004FF47F0C1CEAD0121EBF1CEAD11392EAEE
:100910000C0F93EA0C0F00F0478090EA010F48BFDC
:1009200042F480724FF0004C4CEA00204CEA012166
:1009300002EB0302A0FB0113A2F50002002918BF7D
:1009400043F001035B0028BF4FEA330342EB22422E
:100950005FEA132C4CEBC2502EBFBCEB436FB2F5D9
:100960007C0F70474FEA036CBCF1004F08BF20F0CA
:100970000100B2F57C0F38BF70470BD582F0FF0243
:1009800012F5803FC8BF704700F1C040D8BF00F0EB
:100990000040704700F5000C5FEA4C0C48BF704700
:1009A000B0F1C04000F073B890EA010F0CEAD11327
:1009B00048BF42F48072624538BF634504D280EA82
:1009C000010000F00040704710B500F01AF800BFB9
:1009D0008900013E00F007B800F009B85FEA410C59
:1009E0005FEA1C6C08D080EA010000F050B85FEAB2
:1009F000400C5FEA1C6CF6D14FF00040A0F580007F
:100A000070470EF1020E2EF0030E5EF8044B2442E6
:100A100004D44FEA4102B2F17F4F11D84FEA4003AC
:100A2000B3F17F4F0CD80ED14FEAD07CB2F17F4F9B
:100A30000CEB4C0C0CF1020C08BF4CEBD17C04E02D
:100A40004FF0080C01E04FEAD17C0CEB4C0324FA88
:100A500003F404F00704B4F1040C06D20EEB840C8A
:100A6000BDE810404CF0010C6047DFE80CF00708CF
:100A700002024FF00040A0F5800010BD0846420081
:100A800018BFD2F1807288BF00F0004010BDFF2176
:100A900041EAD050C0057047B80A000800000020A5
:100AA0000400000028010008BC0A0008040000201F
:0C0AB00064060000440100080000000083
:04000005080000ED02
:00000001FF
