:020000040800F2
:10000000600600206D0100087501000877010008F6
:10001000790100087B0100087D0100080000000054
:100020000000000000000000000000007F01000848
:10003000810100080000000083010008850100081C
:100040008701000887010008870100088701000870
:100050008701000887010008870100088701000860
:100060008701000887010008870100088701000850
:100070008701000887010008870100088701000840
:100080008701000887010008870100088701000830
:100090008701000887010008870100088701000820
:1000A0008701000887010008870100088701000810
:1000B0008701000887010008870100088701000800
:1000C00087010008870100088701000887010008F0
:1000D00087010008870100088701000887010008E0
:1000E00087010008870100088701000800F002F876
:1000F00000F02CF80AA090E8000C82448344AAF196
:100100000107DA4501D100F021F8AFF2090EBAE893
:100110000F0013F0010F18BFFB1A43F0010318473B
:10012000740500008405000000230024002500263B
:10013000103A28BF78C1FBD8520728BF30C148BF4A
:100140000B6070471FB51FBD10B510BD00F031F832
:100150001146FFF7F7FF00F03FFA00F04FF803B445
:10016000FFF7F2FF03BC00F057F800000948804792
:1001700009480047FEE7FEE7FEE7FEE7FEE7FEE789
:10018000FEE7FEE7FEE7FEE704480549054A064BA1
:100190007047000059040008ED00000860000020CE
:1001A0006006002060020020600200207047704757
:1001B0007047754600F02CF8AE4605006946534678
:1001C00020F00700854618B020B5FFF7DDFFBDE839
:1001D00020404FF000064FF000074FF000084FF0AE
:1001E000000B21F00701AC46ACE8C009ACE8C0093F
:1001F000ACE8C009ACE8C0098D46704710B50446AC
:10020000AFF300802046BDE81040FFF7A8BF000014
:10021000004870470000002001491820ABBEFEE7EF
:100220002600020070470000F0B50A4600230024B3
:100230000021002500F00046B6F1004F02D11D4E0E
:10024000F16901E01B4E7168C0F3034583B200F40D
:100250004016B6F5401F08D121F07061154E766842
:1002600026F07066134F7E6012E000F48016B6F53B
:10027000801F06D1032606FA05F4A14341F0706100
:1002800006E0460D360103FA06F6B14341F070610F
:1002900022B1460D360103FA06F6314300F000465E
:1002A000B6F1004F02D1034EF16101E0014E7160E1
:1002B000F0BD00000000014010B501212948FFF702
:1002C000B3FF2948006840F480302749086000BF28
:1002D0002548006800F400300028F9D02348006861
:1002E00040F010002149086000BF2048006800F07D
:1002F00020000028F9D01D48006840F002001B498A
:1003000008601948406840F4803017494860084642
:10031000406840F4E01048600846406840F480605F
:10032000486008464068486008464068486008469B
:10033000006840F08070086000BF0B48006800F063
:1003400000700028F9D00848406840F003000649D2
:10035000486000BF0448406800F00C000828F9D14C
:1003600010BD0000000430000010024000200240D8
:1003700010B500F001F810BD0CB500200190009000
:100380003348006840F480303149086000BF30488D
:10039000006800F4003000900198401C0190009823
:1003A00018B90198B0F5A06FF1D12948006800F4A0
:1003B000003010B10120009001E000200090009872
:1003C000012843D12348006840F01000214908600B
:1003D0000846006820F0070008600846006840F002
:1003E000020008601A484068194948600846406899
:1003F00048600846406840F48060486008464068AD
:1004000020F47C1048600846406840F4E8104860DA
:100410000846006840F08070086000BF0C48006823
:1004200000F000700028F9D00948406820F003006F
:10043000074948600846406840F00200486000BF35
:100440000348406800F00C000828F9D10CBD0000FA
:10045000001002400020024010B51348006840F030
:1004600001001149086008464068104908400E49DB
:100470004860084600680E4908400B490860084675
:10048000006820F4802008600846406820F4FE00E0
:1004900048604FF41F008860FFF76AFF4FF000606C
:1004A0000449086010BD0000001002400000FFF881
:1004B000FFFFF6FE08ED00E04448806940F00100CF
:1004C000424988614248406840F0007040494860B5
:1004D0003E48806940F008003C4988613D4800681A
:1004E00020F470203B4908600846006840F4002072
:1004F000086038480C30006840F0100035490C3175
:1005000008603448006820F47000324908600846EA
:10051000006840F4000008602E480C30006840F08D
:1005200020002C490C3108602A48006820F07060D7
:10053000284908600846006840F0006008602548C7
:100540000C30006840F0400022490C31086021481E
:10055000006820F070401F4908600846006840F0BD
:10056000004008601B480C30006840F080001949CA
:100570000C3108601748001D006820F00F00154975
:10058000091D08600846006840F00800086011482E
:100590000C30006840F480700E490C3108600D4842
:1005A000001D006820F0F0000A49091D0860084697
:1005B000006840F08000086006480C30006840F495
:1005C000007004490C3108607047000000100240C0
:1005D00000000140000C0140FFF76EFEFFF76CFFCA
:1005E00000F032F82AE01648006800F01000C0B1B0
:1005F0001348006800F0200098B11148006800F02E
:10060000400070B10E48006800F0800048B10C480E
:10061000006800F4807020B10948006800F40070A0
:1006200030B90848C06840F400500649C86005E089
:100630000448C06820F400500249C860D3E70000B5
:10064000080C0140001001401048806940F0100083
:100650000E4988610E48406820F480000C494860CB
:100660000846406820F4000048600846406840F4AE
:10067000801048600846406840F400104860084612
:10068000C06840F40050C86070470000001002408D
:1006900000100140A40600080000002060060000D1
:0406A0002801000825
:04000005080000ED02
:00000001FF
